:04040000BDEF03F059
:10041800D8CF16F0E8CF17F0E0CF18F0E1CF19F0F9
:10042800E2CF1AF0D9CF1BF0DACF1CF09EAA01D088
:1004380001D02CD05BEC35F01D6E0001000E026E71
:10044800F40E016E1D0E036E000E046E0F0E046E88
:100458005F0E0364046A010E056E000E066E000E40
:10046800076E000E086E9DEC24F001040210D8B44B
:1004780001D001D009D0010E0001E627000EE723C4
:10048800000EE823000EE9239E9A7DD0F2A401D045
:1004980001D079D0FB0E026E1D0E016EAFEC35F067
:1004A800010E0001E227000EE323000EE423000EF4
:1004B800E523010EDE27000EDF23000EE023000EE9
:1004C800E1232A4A2B2A4150020AD8A401D001D09C
:1004D8000CD0E90E2A5C030E2B58D8A001D001D00D
:1004E80004D08B722A6A2B6A4DD04150030AD8A4D3
:1004F80001D001D009D0910E2A5C010E2B58D8A04A
:1005080001D001D001D0EDD74150040AD8A401D0C0
:1005180001D009D0650E2A5C000E2B58D8A001D056
:1005280001D001D0DED74150050AD8A401D001D0AE
:1005380009D0470E2A5C000E2B58D8A001D001D054
:1005480001D0CFD74150060AD8A401D001D009D094
:10055800290E2A5C000E2B58D8A001D001D001D05A
:10056800C0D74104D8A401D001D004D08B822A6A14
:100578002B6A08D0416601D001D004D08B922A6A38
:100588002B6A00D0F294A4AA01D001D00FD074AC89
:1005980001D001D00AD0010E0001C627000EC723E2
:1005A800000EC823000EC923749CA49A74AA01D013
:1005B80001D003D0060E416E14D074B801D001D01A
:1005C80004D074A601D001D003D0050E416E09D025
:1005D80074A001D001D003D0040E416E02D0010EE8
:1005E800416EA4A201D001D0B5D00201020E096E5D
:1005F800800E086E3F0E0A6E400E0B6E3B0E0DEC21
:100608001EF00009D8B401D001D0A3D040A601D073
:1006180001D00ED040AA01D001D09BD0010E00011C
:10062800C627000EC723000EC823000EC92391D089
:1006380040BC01D001D08DD040AA01D001D089D0D2
:100648003F50146E156A050E1426000E1522330E3F
:10065800016E000E026E0F0E026E5F0E0164026ADA
:100668000CEC2DF01450015C15500258D8A001D0A4
:1006780001D0D4D71E6A330E016E000E026E0F0E23
:10068800026E5F0E0164026A3B0E036E000E046E7A
:100698000F0E046E5F0E0364046A040E056E000EEE
:1006A800066E000E076E000E086E9DEC24F00150D9
:1006B800040A0210D8B401D001D002D0010E1E6E77
:1006C800330E016E000E026E0F0E026E5F0E016495
:1006D800026A3F0E036E000E046E0F0E046E5F0E6C
:1006E8000364046A010E056E000E066E000E076EA6
:1006F800000E086E9DEC24F001040210D8B401D05D
:1007080001D002D0010E1E6E330E016E000E026E75
:100718000F0E026E5F0E0164026A0201020E046E81
:10072800800E036E3F50056E066A076A086A9DECE4
:1007380024F03F5001180210D8B401D001D002D0E3
:10074800010E1E6E312A1E50D8B401D001D001D03E
:1007580065D7A4921CC0DAFF1BC0D9FF1AC0E2FFFC
:1007680019C0E1FF18C0E0FF17C0E8FF16C0D8FFA6
:1007780010008DEF31F00101026702D07CEC17F018
:10078800F29E000E206EF40E1F6E0201020E226E03
:10079800C30E216E246A010E236EA7EC29F01F04F4
:1007A800201002E025EF0FF0F28E010101510FE059
:1007B8000201C35181EC35F0ACA2FED70201C3514E
:1007C8000D0A05E10A0E81EC35F0ACA2FED7010155
:1007D80098EC15F0C3C2DFFF032B4F0E036501D061
:1007E800036B0201C3510D0A02E025EF0FF001016E
:1007F80098EC15F0DF6A0001676F050E666F7F0ED3
:10080800696FC00E686FFBEC2FF027EC0FF004E166
:10081800000166510101B31911E1790E216ECE0E66
:10082800206ED5EC32F0BCEC35F0206A1F6AFF0E62
:100838002168BBEC34F0FF001BEF0FF0D9EC0FF090
:10084800FBEC2FF027EC0FF004E1000166510101E9
:10085800B3190CE1026B000E6AEC35F07F0E216EC5
:100868006A0E206ED5EC32F01BEF0FF0010EE3ECB0
:100878000FF0FBEC2FF027EC0FF004E100016651BC
:100888000101B3190DE1010E026F000E6AEC35F09B
:100898007F0E216E6A0E206ED5EC32F01BEF0FF042
:1008A800010E00010CEC10F0FBEC2FF027EC0FF020
:1008B80004E1000166510101B3190DE1010E026F57
:1008C800800E6AEC35F07F0E216E6A0E206ED5EC34
:1008D80032F01BEF0FF0010E000104EC10F0FBECFE
:1008E8002FF027EC0FF004E1000166510101B31964
:1008F8000CE1026B400E6AEC35F07F0E216E6A0E39
:10090800206ED5EC32F01BEF0FF0010E0001FCEC6D
:100918000FF0FBEC2FF027EC0FF004E1000166511B
:100928000101B3190CE1026B600E6AEC35F07F0E21
:10093800216E6A0E206ED5EC32F01BEF0FF0010E1F
:100948000001676F050E666F7E0E696FF80E686F9F
:10095800FBEC2FF027EC0FF004E1000166510101D8
:10096800B3190AE138EC30F07F0E216E6A0E206E62
:10097800D5EC32F01BEF0FF0010E0001676F050E8A
:10098800666F7F0E696F330E686FFBEC2FF027ECF4
:100998000FF004E1000166510101B31961E16F50E4
:1009A800E00B0201C96FC9670BD00101026708D0CB
:1009B8007D0E216E0D0E206ED5EC32F01BEF0FF080
:1009C8000201C951010ED8A4000E0101021508E068
:1009D8007D0E216E210E206ED5EC32F01BEF0FF04C
:1009E8000201C951200A08E17D0E216E5D0E206EBC
:1009F800D5EC32F01BEF0FF0C951400A08E17C0E2C
:100A0800216E4F0E206ED5EC32F01BEF0FF0C9515E
:100A1800600A08E17A0E216EE80E206ED5EC32F0FD
:100A28001BEF0FF0C951800A08E17C0E216EF90E08
:100A3800206ED5EC32F01BEF0FF0C951E00A08E147
:100A48007D0E216E700E206ED5EC32F01BEF0FF08C
:100A58007B0E216E7B0E206ED5EC32F01BEF0FF073
:100A6800010E0001676F050E666F7F0E696FEA0E53
:100A7800686FFBEC2FF027EC0FF004E100016651E2
:100A88000101B31901E0D9D088EC0FF0EFEC2EF09A
:100A980064C0CAF265C0CBF2030E0101B06F020157
:100AA800CB51CA1109E0CAC262F0CBC263F0D1ECE3
:100AB80026F062510101B06F0101AD6BAE6B31ECF4
:100AC8000FF0EFEC2EF064C0CAF265C0CBF2020161
:100AD800CB51CA110AE0CAC262F0CBC263F0D1ECB2
:100AE80026F062C0ADF163C0AEF10101B26B31EC2A
:100AF8000FF0EFEC2EF064C0CAF265C0CBF2020131
:100B0800CB51CA1109E0CAC262F0CBC263F0D1EC82
:100B180026F062510101B26F0101AF6B31EC0FF0A9
:100B2800EFEC2EF064C0CAF265C0CBF20201CB51E3
:100B3800CA1109E0CAC262F0CBC263F0D1EC26F058
:100B480062510101AF6F0101B16B31EC0FF0EFECB5
:100B58002EF064C0CAF265C0CBF20201CB51CA11B3
:100B680009E0CAC262F0CBC263F0D1EC26F0625150
:100B78000101B16F0101010E206EA50E1F6E226AE0
:100B8800216A246A080E236E04EC35F00201B96B61
:100B98001DD031EC0FF0EFEC2EF064C0CAF265C046
:100BA800CBF20201CB51CA1116E0A50EB925D96EB8
:100BB800DA6A0101010EDA22CAC262F0CBC263F01E
:100BC800D1EC26F06251DF6E0201B92B0101B1515F
:100BD8000201B95DDEE3ADC18FF0AEC190F0B2C1E4
:100BE80091F0AFC192F0B0C193F0B1C194F0010E91
:100BF8000001966FA50E956F07EC2CF0000915E023
:100C0800DA2B000EDB23DC23DD230101B1510001C7
:100C1800D627000ED723D823D9237F0E216E6A0E3C
:100C2800206ED5EC32F01BEF0FF0790E216E4B0ED3
:100C3800206ED5EC32F01BEF0FF0010E0001676F4C
:100C4800050E666F7F0E696FE70E686FFBEC2FF07D
:100C580027EC0FF004E1000166510101B31914E11A
:100C68007CEC17F0000908E07F0E216E6A0E206EFA
:100C7800D5EC32F01BEF0FF07D0E216E820E206E48
:100C8800D5EC32F01BEF0FF0010E0001676F050E77
:100C9800666F7F0E696FBB0E686FFBEC2FF027EC59
:100CA8000FF004E1000166510101B3190AE1FAEC01
:100CB80020F07F0E216E6A0E206ED5EC32F01BEF0D
:100CC8000FF0010E0001676F050E666F7F0E696FEA
:100CD800D50E686FFBEC2FF027EC0FF004E1000154
:100CE80066510101B3190AE12BEC19F07F0E216E50
:100CF8006A0E206ED5EC32F01BEF0FF0010E0001EA
:100D0800676F050E666F7F0E696FB60E686FFBEC36
:100D18002FF027EC0FF004E1000166510101B3192F
:100D28000AE18CEC22F07F0E216E6A0E206ED5EC63
:100D380032F01BEF0FF0010E0001676F050E666FB2
:100D48007F0E696F930E686FFBEC2FF027EC0FF0A6
:100D580004E1000166510101B3190AE103EC24F032
:100D68007F0E216E6A0E206ED5EC32F01BEF0FF06D
:100D7800010E0001676F050E666F7F0E696F980E92
:100D8800686FFBEC2FF027EC0FF004E100016651CF
:100D98000101B31901E013D20201BF6B010EBB6F51
:100DA8006F50E00B12E0730E216E130E206ED5EC1F
:100DB80032F00101010E206E050EE8EC2EF004EC75
:100DC80035F00101036B26EF0FF0010140EC0FF045
:100DD800EDEC34F0010E92EC0FF0EFEC2EF064C065
:100DE800C5F265C0C6F20201C651C5110AE0C5C206
:100DF80062F0C6C263F0D1EC26F062510201BC6F0A
:100E080007D07B0E216E630E206ED5EC32F0D1D761
:100E180080EC0FF0EFEC2EF064C0C5F265C0C6F2AE
:100E28000201C651C51133E0C5C21FF0C6C220F089
:100E3800226A3A0E216E4EEC32F01FC08CF220C0AE
:100E48008DF202018D518C1118E0C5C262F0C6C244
:100E580063F0D1EC26F062510201BF6F8C290101C9
:100E6800B36F000E02018D210101B46FB3C162F0AE
:100E7800B4C163F0D1EC26F006D0C5C262F0C6C298
:100E880063F0D1EC26F062510201C06F07D0790EF1
:100E9800216E8D0E206ED5EC32F08BD780EC0FF0E2
:100EA800EFEC2EF064C0C5F265C0C6F20201C6516F
:100EB800C5110DE0C5C262F0C6C263F0D1EC26F0E0
:100EC80062510201BB6FBB6702D0010EBB6F010EFE
:100ED800AF6FC16B5ED10001BFC2AFF0B06B020152
:100EE800C051C1250001B16F04C1B2F0B36B020E4D
:100EF800B56FC40EB46F0201BC5155EC27F0000960
:100F080001E1C7D07E0E216E180E206ED5EC32F0AE
:100F18000101006705D07F0E02019C6F700E04D09E
:100F28007E0E02019C6F6A0E9B6F010E00016E6FB0
:100F3800550E6D6F9BC26FF09CC270F0BCC271F011
:100F4800726B14EC10F00101010E216E550E206E2B
:100F5800D5EC32F07D0E216EFB0E206ED5EC32F012
:100F68000101006705D07F0E02019E6FED0E04D0CF
:100F78007F0E02019E6F4F0E9D6F010E00016E6F76
:100F8800550E6D6F9DC26FF09EC270F0BFC271F0BA
:100F9800726B14EC10F00101010E216E550E206EDB
:100FA800D5EC32F03A0E81EC35F0ACA2FED7010157
:100FB800006705D07F0E0201A06FED0E04D07F0EF2
:100FC8000201A06F4F0E9F6F010E00016E6F550E4C
:100FD8006D6F9FC26FF0A0C270F09BEC0FF014EC25
:100FE80010F00101010E216E550E206ED5EC32F085
:100FF8007E0E216EDC0E206ED5EC32F0010100670A
:1010080005D07F0E0201A26FED0E04D07F0E020103
:10101800A26F4F0EA16F010E00016E6F550E6D6F1E
:10102800A1C26FF0A2C270F0C4C271F0726B14EC6E
:1010380010F00101010E216E550E206ED5EC32F034
:10104800ACA2FED77F0E216EE10E206ED5EC32F0F9
:10105800200E0201C46507D07F0EC46104D0C451BC
:1010680081EC35F003D02E0E81EC35F0ACA2FED722
:101078007F0E216EC50E206ED5EC32F00201C451F0
:1010880024EC33F0720E216EDA0E206ED5EC32F0BD
:101098007ED00201AF6B7D0E216EEA0E206ED5EC7C
:1010A80032F00101006705D07F0E0201A46F700EB7
:1010B80004D07E0E0201A46F6A0EA36F010E000118
:1010C8006E6F550E6D6FA3C26FF0A4C270F0BCC2F4
:1010D80071F0726B14EC10F00101010E216E550EC7
:1010E800206ED5EC32F07B0E216E1A0E206ED5ECF8
:1010F80032F0ACA2FED70101006705D07F0E0201D5
:10110800A66FED0E04D07F0E0201A66F4F0EA56FDD
:10111800010E00016E6F550E6D6FA5C26FF0A6C26D
:1011280070F0BFC271F0726B14EC10F00101010E87
:10113800216E550E206ED5EC32F03A0E81EC35F06A
:101148000101006705D07F0E0201A86FED0E04D0E3
:101158007F0E0201A86F4F0EA76F010E00016E6F80
:10116800550E6D6FA7C26FF0A8C270F09BEC0FF020
:1011780014EC10F00101010E216E550E206ED5EC15
:1011880032F0720E216EDA0E206ED5EC32F00201CA
:10119800C12BBB51C15D01E29ED6AF5108E07F0E65
:1011A800216E6A0E206ED5EC32F01BEF0FF0720E36
:1011B800216EDD0E206ED5EC32F01BEF0FF0010E24
:1011C8000001676F050E666F7F0E696F9D0E686F71
:1011D800FBEC2FF027EC0FF004E100016651010150
:1011E800B31901E0FED00201B06B6F50E00B07E0CD
:1011F800730E216E130E206ED5EC32F0DAD5010194
:1012080040EC0FF0EDEC34F0010E92EC0FF0EFEC47
:101218002EF064C0C7F265C0C8F20201C851C711F8
:101228000AE0C7C262F0C8C263F0D1EC26F062518E
:101238000201BD6F07D07B0E216E630E206ED5ECC8
:1012480032F0B7D580EC0FF0EFEC2EF064C0C7F2A7
:1012580065C0C8F20201C851C71133E0C7C21FF008
:10126800C8C220F0226A3A0E216E4EEC32F01FC03E
:101278008EF220C08FF202018F518E1118E0C7C282
:1012880062F0C8C263F0D1EC26F062510201B06F7F
:101298008E290101B36F000E02018F210101B46F85
:1012A800B3C162F0B4C163F0D1EC26F006D0C7C276
:1012B80062F0C8C263F0D1EC26F062510201B16F4E
:1012C80007D0790E216E8D0E206ED5EC32F071D5D7
:1012D80080EC0FF0EFEC2EF064C0C7F265C0C8F2E6
:1012E8000201C851C7110AE0C7C262F0C8C263F060
:1012F800D1EC26F062510201BA6F07D07B0E216E45
:10130800930E206ED5EC32F054D50001B0C2AFF088
:10131800B06BB1C2B1F004C1B2F0B36B020EB56FDD
:10132800BA0EB46F0201BD514CEC26F0000930E052
:10133800770E216EE60E206ED5EC32F07E0E216E11
:101348001E0E206ED5EC32F00101006705D07F0E2D
:101358000201AA6FCD0E04D07E0E0201AA6FD00E34
:10136800A96F010E00016E6F550E6D6FA9C26FF067
:10137800AAC270F0BDC271F0726B14EC10F00101DA
:10138800010E216E550E206ED5EC32F01BEF0FF0DA
:10139800780E216E9F0E206ED5EC32F07E0E216EF7
:1013A8001E0E206ED5EC32F00101006705D07F0ECD
:1013B8000201AC6FCD0E04D07E0E0201AC6FD00ED0
:1013C800AB6F010E00016E6F550E6D6FABC26FF003
:1013D800ACC270F0BDC271F0726B14EC10F01BEF70
:1013E8000FF0010E0001676F050E666F7F0E696FC3
:1013F800AC0E686FFBEC2FF027EC0FF004E1000156
:1014080066510101B31973E16F50E00B07E0730EE9
:10141800216E130E206ED5EC32F0CBD440EC0FF0D9
:10142800EDEC34F0010E0001636F050E626FD1EC34
:1014380026F062510201C26F7D0E216E350E206EBC
:10144800D5EC32F00101006705D07F0E0201AE6FC6
:10145800ED0E04D07F0E0201AE6F4F0EAD6F010E80
:1014680000016E6F550E6D6FADC26FF0AEC270F0B9
:10147800C2C271F0726B14EC10F00101010E216E02
:10148800550E206ED5EC32F0720E216EDA0E206EFB
:10149800D5EC32F00001B06BAF6BD00EB16F04C168
:1014A800B2F0B36B020EB56FB20EB46F0201C25147
:1014B80055EC27F0000907E17A0E216E620E206EC6
:1014C800D5EC32F076D40201C2517AEC2AF002014E
:1014D800C251D5EC27F00201C251A2EC2EF07F0ECA
:1014E800216E6A0E206ED5EC32F01BEF0FF0010E64
:1014F8000001676F050E666F7F0E696F410E686F9A
:10150800FBEC2FF027EC0FF004E10001665101011C
:10151800B31901E0F4D00201B36B72EC0FF0EDECFB
:1015280034F088EC0FF0EFEC2EF064C0D2F265C016
:10153800D3F20201D351D21113E0D2C262F0D3C266
:1015480063F0D1EC26F062510201B86F0F0EB86556
:101558000ED0700E216E620E206ED5EC32F029D4BA
:10156800760E216ED60E206ED5EC32F022D431ECF8
:101578000FF0EFEC2EF064C0D2F265C0D3F2020196
:10158800D351D2110AE0D2C262F0D3C263F0D1ECD7
:1015980026F062510201946F07D0750E216EE20E9B
:1015A800206ED5EC32F005D431EC0FF0EFEC2EF0D4
:1015B80064C0D2F265C0D3F20201D351D2110BE05C
:1015C800D2C262F0D3C263F0D1EC26F062C090F2CE
:1015D80063C091F208D0770E216E720E206ED5ECA2
:1015E80032F0DDEF06F039EC0FF0EFEC2EF064C0CE
:1015F800D2F265C0D3F20201D351D2110AE0D2C2AD
:1016080062F0D3C263F0D1EC26F062510201956F0B
:1016180008D0770E216EC00E206ED5EC32F0DDEFCB
:1016280006F031EC0FF0EFEC2EF064C0D2F265C09A
:10163800D3F20201D351D2110AE0D2C262F0D3C26E
:1016480063F0D1EC26F062510201966F08D0760E55
:10165800216E350E206ED5EC32F0DDEF06F0FDDBA5
:10166800EFEC2EF064C0D2F265C0D3F2D2C266F0BD
:10167800D3C267F07E0E696F540E686FFBEC2FF0D3
:101688006751661103E0010E0201B36F800E6AEC28
:1016980035F095C2B3F1A9EC0FF090510101B76F85
:1016A80002019151CEEC0FF094C2BBF1F2DB9651DE
:1016B8000101C3110201886F0101C4510201896F40
:1016C8000101C55102018A6F0101C65102018B6FE8
:1016D80088C223F089C224F08AC225F08BC226F082
:1016E800B3C227F0B851D3EC1BF0000E6AEC35F00A
:1016F8007F0E216E6A0E206ED5EC32F098D3010E63
:101708000001676F050E666F7F0E696FA20E686F26
:10171800FBEC2FF098DB04E1000166510101B319DD
:1017280001E0E6D0010E206E050E1F6E0D0EB36FA0
:10173800010EB46FB3C121F0B4C122F0EDEC34F066
:10174800E3DBEFEC2EF064C0D0F265C0D1F2020109
:10175800D151D01114E0D0C262F0D1C263F0D1EC03
:1017680026F062510201BE6F010EBE6510D0730EE5
:10177800216EAE0E206ED5EC32F0DDEF06F0780E5D
:10178800216E0C0E206ED5EC32F0DDEF06F065DB35
:10179800EFEC2EF064C0D0F265C0D1F20201D15155
:1017A800D0110AE0D0C262F0D1C263F0D1EC26F0C9
:1017B80062510201976F08D0760E216E860E206E58
:1017C800D5EC32F0DDEF06F048DBEFEC2EF064C02C
:1017D800D0F265C0D1F20201D151D0110BE0D0C2D4
:1017E80062F0D1C263F0D1EC26F062C092F263C01D
:1017F80093F208D0780E216E560E206ED5EC32F09A
:10180800DDEF06F032DBEFEC2EF064C0D0F265C0FD
:10181800D1F20201D151D0110AE0D0C262F0D1C296
:1018280063F0D1EC26F062510201986F08D0780E6F
:10183800216E7B0E206ED5EC32F0DDEF06F00DDB6D
:10184800EFEC2EF064C0D0F265C0D1F20201D151A4
:10185800D0110AE0D0C262F0D1C263F0D1EC26F018
:1018680062510201996F08D0770E216E4B0E206EDF
:10187800D5EC32F0DDEF06F098C2B3F166DB925199
:101888000101B76F0201935185DB97C2BBF101DB00
:1018980099510101C3110201CC6F0101C451020128
:1018A800CD6F0101C5510201CE6F0101C651020180
:1018B800CF6F800E6AEC35F00201BE5108E00F01CF
:1018C8000F0E226E180E4EDBC2EC25F007D00F016A
:1018D8000F0E226E1C0E46DBC2EC25F0000E6AECE1
:1018E80035F07F0E216E6A0E206ED5EC32F09FD255
:1018F800010E0001676F050E666F7F0E696F8E0E11
:10190800686FFBEC2FF09FDA04E1000166510101DA
:10191800B31901E07CD2010E206E050E1F6E090E70
:10192800B36F010EB46FB3C121F0B4C122F0EDEC76
:1019380034F0010E0001676F050E666F7F0E696F48
:10194800D90E686FFBEC2FF07EDA04E100016651D6
:101958000101B31912E1010E006FBCEC35F0206AE9
:10196800060E1F6E010E216EBBEC34F0750E216E53
:10197800B60E206ED5EC32F05AD2010E0001676F18
:10198800050E666F7E0E696FF00E686FFBEC2FF028
:101998005ADA04E1000166510101B31911E1006B43
:1019A800BCEC35F0206A060E1F6E000E216ABBECF7
:1019B80034F0760E216EAE0E206ED5EC32F037D2B2
:1019C800010E0001676F050E666F7E0E696F490E86
:1019D800686FFBEC2FF06751661123E00101010EDF
:1019E800CDDAEDEC34F0010E0001636F050E626F85
:1019F800D1EC26F062510101046F140E046101D08C
:101A0800046FBCEC35F0206A090E1F6E04C121F08A
:101A1800BBEC34F07F0E216E6A0E206ED5EC32F0EE
:101A280006D2010E0001676F050E666F7E0E696FA4
:101A38009C0E686FFBEC2FF0675166115BE04EDA85
:101A4800EDEC34F0010E0001E3DAFBEC2FF0675106
:101A580066110AE0BCEC35F0206A070E1F6E000E16
:101A6800216ABBEC34F0E3D1A0DAFBEC2FF067512C
:101A780066110AE0BCEC35F0206A070E1F6E010EF5
:101A8800216EBBEC34F0D3D1010E99DAFBEC2FF0C8
:101A9800675166110AE0BCEC35F0206A070E1F6E2C
:101AA800020E216EBBEC34F0C2D1010E0001A0DAA7
:101AB800FBEC2FF0675166110AE0BCEC35F0206AA8
:101AC800070E1F6E030E216EBBEC34F0B0D1010E71
:101AD800000196DAFBEC2FF06751661101E1A7D1FE
:101AE800BCEC35F0206A070E1F6E040E216EBBECAD
:101AF80034F09DD1010E0001676F050E666F7F0EF1
:101B0800696F760E686FFBEC2FF06751661164E021
:101B18000101B2D9EDEC34F0010E0001676F050E3A
:101B2800666F7E0E696FE80E686FFBEC2FF06751E9
:101B3800661111E0F16BBCEC35F0206A030E1F6EE4
:101B4800000E216ABBEC34F07A0E216E460E206E30
:101B5800D5EC32F06CD1010E0001676F050E666F8F
:101B68007F0E696FB10E686FFBEC2FF0675166113D
:101B780012E0010EF16FBCEC35F0206A030E1F6E07
:101B8800010E216EBBEC34F0790E216EAE0E206E84
:101B9800D5EC32F04CD1010E0001676F050E666F6F
:101BA8007F0E696F880E686FFBEC2FF06751661126
:101BB80001E13DD1020EF16FBCEC35F0206A030E55
:101BC8001F6E020E216EBBEC34F07A0E216ECE0E23
:101BD800206ED5EC32F02BD1010E0001676F050E97
:101BE800666F7F0E696F7C0E686FFBEC2FF02BD948
:101BF80004E1000166510101B3193FE13DD9EDEC63
:101C080034F0010E0001ECD9FBEC2FF0675166119E
:101C180013E0010E0101016FBCEC35F0206A650E7E
:101C28001F6E010E216EBBEC34F07C0E216E7B0E14
:101C3800206ED5EC32F0FBD0010E0001C9D9FBECC7
:101C48002FF06751661112E00101016BBCEC35F011
:101C5800206A650E1F6E000E216ABBEC34F07C0E04
:101C6800216E0A0E206ED5EC32F0E1D0760E216E90
:101C78000C0E206ED5EC32F0DAD0010E0001676F41
:101C8800050E666F7E0E696F3E0E686FFBEC2FF0D7
:101C9800DAD804E1000166510101B3193EE1010EF1
:101CA8006DD9EDEC34F0010E00019AD9FBEC2FF060
:101CB8006751661112E0010EF06FBCEC35F0206A36
:101CC800660E1F6E010E216EBBEC34F07C0E216E89
:101CD800A70E206ED5EC32F0AAD0010E000178D9FB
:101CE800FBEC2FF06751661111E0F06BBCEC35F09E
:101CF800206A660E1F6E000E216ABBEC34F07C0E63
:101D0800216E650E206ED5EC32F091D0750E216EE5
:101D1800020E206ED5EC32F08AD0010E0001676FFA
:101D2800050E666F7E0E696F7E0E686FFBEC2FF0F6
:101D38008AD804E1000166510101B3193AE1010EA4
:101D4800206E050E1F6E0E0EB36F010EB46FB3C179
:101D580021F0B4C122F0EDEC34F0010E0001636F04
:101D6800050E626FD1EC26F062C0B4F2020163C0C6
:101D7800B5F2000EB5BFFF0EB66FB76F0D0EB45DAE
:101D8800000EB559000EB659000EB7590BE2780E81
:101D9800216EE60E206ED5EC32F00201B451BDEC96
:101DA8002FF045D07A0E216E0C0E206ED5EC32F055
:101DB8003ED0010E0001676F050E666F7E0E696FDB
:101DC800B70E686FFBEC2FF03ED804E100016651B6
:101DD8000101B31903E1B8EC35F029D0010E000177
:101DE800676F050E666F7F0E696FFC0E686FFBEC00
:101DF8002FF029D804E1000166510101B31917E059
:101E0800790E216E6C0E206ED5EC32F010D0055193
:101E18000D0A07E17F0E216E6A0E206ED5EC32F0B6
:101E280006D07A0E216E980E206ED5EC32F00101A4
:101E3800010E206E050EE8EC2EF004EC35F00101E1
:101E4800036BF28E1200050E0101B36F010EB46F21
:101E5800000167510101B41912000001656B646B40
:101E68007F0E676FF40E666F1200656B646B7F0EF2
:101E7800676FF40E666F1200010E206E050E1F6E5E
:101E88000A0EB36F010EB46FB3C121F0B4C122F0D2
:101E98001200BC6BBD6BBE6B1A0ED890BB37BC373B
:101EA800BD37BE37E82EF9D7B751BB11BF6FB85150
:101EB800BC11C06FB951BD11C16FBA51BE11C26F0B
:101EC800B351BF11C36FB451C011C46FB551C11123
:101ED800C56FB651C211C66F020112000101010E91
:101EE800206E050E1F6E0D0EB36F010EB46FB3C1D9
:101EF80021F0B4C122F012000001656B646B7E0E04
:101F0800676F720E666F1200010E0001656F050E95
:101F1800646F7F0E676FF40E666F12000001656FC5
:101F2800050E646F7E0E676F720E666F12000201F7
:101F3800C151C0C2B3F10101B46BB327000EB42381
:101F4800B3510001716F726B12000101B46BB56B74
:101F5800B66BB5C1B6F1B4C1B5F1B3C1B4F1B36BE9
:101F680002011200216ECCC223F0CDC224F0CEC2F1
:101F780025F0CFC226F0010E276E010C206E050E4B
:101F88001F6E0F0EB36F010EB46FB3C121F0B4C151
:101F980022F012000101B86FB96BBA6BB8C1BAF17F
:101FA800B7C1B9F1B86BB76B1200010E0001676FCA
:101FB800050E666F7F0E696FA70E686F120000012D
:101FC800676F050E666F7F0E696F480E686F1200A7
:101FD800676F050E666F7F0E696FD10E686F12000E
:101FE800676F050E666F7E0E696FFD0E686F1200D3
:101FF800676F050E666F7F0E696F3A0E686F120085
:10200800676F050E666F7E0E696FAE0E686F120001
:10201800676F050E666F7F0E696F820E686F12001C
:10202800710E7F6F30D38851250A09E06DC0D9FF42
:102038006EC0DAFF88C0DFFF6D4B6E2B24D3826B36
:10204800836B896B8A6B09D0898705D0898103D016
:102058008A8701D089856F4B702B6FC0F6FF70C0DF
:10206800F7FF0800F550200AF1E0030AF1E00E0A34
:10207800EBE01D0AEFE089B789956FC0F6FF70C0E5
:10208800F7FF0800F5503DEC35F026E30001826BC0
:10209800836B82C023F083C024F0266A0A0E256E63
:1020A80049EC34F023C082F024C083F06FC0F6FFFF
:1020B80070C0F7FF0800F5CF75F0D00E7525766F64
:1020C800776BFF0E7723765182277751832339DB8D
:1020D8003DEC35F015E3DDD700016FC0F6FF70C0A9
:1020E800F7FF0800F5502A0A0BE17F51D96EDA6A2A
:1020F800DECF82F0DDCF83F0020E7F276F4B702B8F
:1021080000016FC0F6FF70C0F7FF0800F5502E0AF7
:1021180037E18A8D16DB2A0A0CE17F51D96EDA6A1B
:10212800DECF80F0DDCF81F0020E7F276F4B702B62
:1021380088D0806B816B1AD080C023F081C024F0D6
:10214800266A0A0E256E49EC34F06FC0F6FF70C09F
:10215800F7FF0800F5502326000E2422D00E232472
:10216800806FFF0E2420816F6F4B702B6FC0F6FFBE
:1021780070C0F7FF0800F5503DEC35F062E3DCD79E
:10218800806B816B5ED089895CD0898D70D0898B9A
:10219800898F6DD08151801109E08551805D86510C
:1021A800815904E280C085F081C086F08251855D46
:1021B8008351865907E220EE85F0DE50825FDD50BC
:1021C800835B02D0826B836B89A704D015D0A8DA11
:1021D8006D4B6E2B8207C3DAD8B483290DE0F7D78D
:1021E8008451D96EDA6A6DC0E1FF6EC0E2FFDFCFBD
:1021F800E7FF842B6D4B6E2B8507D8A0860700015F
:102208008529D8B48629ECE189B704D03CD288DA8C
:102218006D4B6E2B8207A3DAD8B4832901E133D240
:10222800F6D77F51D96EDA6ADF50886F020E7F27A2
:10223800880E846F866B010E856FACD7C00E89132C
:1022480016D0000174DA885101E121D2580A9FE0C2
:102258003B0AE7E0070A0BE00D0A09E0050A93E0EC
:10226800030A93E01A0AEAE00D0A92E0E1D78951DD
:10227800C00B20E189A903D07F5147DA0DD07F51E7
:10228800D96EDA6ADECF84F0DDCF85F0000E85BF27
:10229800FF0E866F876F020E7F2787AF1FD0030E52
:1022A8008913871F861F851F846D000E852386234B
:1022B800872314D089A903D07F5127DA0ED07F5104
:1022C800D96EDA6ADECF75F0DDCF76F075C084F0AE
:1022D80076C085F0866B876B020E7F27815180114F
:1022E8005CE1875184118511861157E1804B812B60
:1022F80054D0010E886F88510A0A58E08851040D9D
:102308001C0EF324F66E6E0EF420F76E0900F550DD
:10231800845D0900F55085590900F5508659090072
:10232800F550875943E3882BE6D7010E886F88510B
:10233800080A3CE08851040D440EF324F66E6E0E34
:10234800F420F76E0900F550845D0900F5508559B1
:102358000900F55086590900F550875927E3882B5D
:10236800E6D7010E886F88510C0A20E08851040DC9
:10237800EC0EF324F66E6D0EF420F76E0900F5509E
:10238800845D0900F55085590900F5508659090002
:10239800F55087590BE3882BE6D78951C00BA9E084
:1023A800400ADFE0C00AC1E0400AA3E0800E88BF0F
:1023B8007F0E756F8051885D8151800A755903E2DF
:1023C80080C088F00FD08151800A756F8851805D78
:1023D800800E88BF7F0E755905E28851806F816B2A
:1023E80080BF81078351821106E08951030B03E006
:1023F8008207D8A083078AAD10D08151800A756FF3
:102408008251805D8351800A755905E28051825F4F
:102418008151835B02D0826B836BC40E4ED9400E10
:10242800D8B4751907E18351821118E08207D8A042
:10243800830714D0C00E41D9800ED8B475190EE1A7
:102448008351800A800F030ED8B4825D05E3FE0E27
:102458008227FF0E832302D0826B836B800E88BF96
:102468007F0E756F8251885D8351800A755907E226
:102478008851825F000E88BFFF0E835B02D0826B9B
:10248800836B89A53CD08951030B09E06DC0D9FF46
:102498006EC0DAFF2D0EDF6E6D4B6E2B22D089A138
:1024A80006D06DC0D9FF6EC0DAFF200EF4D7C00E7B
:1024B80004D9800ED8B4751914E16DC0D9FF4AD972
:1024C8006D4B6E2B89BB03D07A6B780E02D07A6B7A
:1024D800580E796F6DC0D9FF6EC0DAFF79C0DFFF83
:1024E800DBD78351821101E1B9D06DC0D9FF32D950
:1024F8006D4B6E2B8207D8A083070001F2D783515A
:102508008211D8A489B704D06DC0D9FFF1D8FCE1F5
:102518008951030B09E06DC0D9FF6EC0DAFF2D0E9B
:10252800DF6E6D4B6E2B08D089A106D06DC0D9FF28
:102538006EC0DAFF200EF4D7C00EBFD8400ED8B454
:10254800751906E16DC0D9FF05D96D4B6E2B86D084
:10255800C00EB3D8800ED8B4751901E07FD06DC015
:10256800D9FFF8D86D4B6E2B89BB03D07C6B780EE6
:1025780002D07C6B580E7B6F6DC0D9FF6EC0DAFF3E
:102588007BC0DFFFE2D780C075F081C076F0D890BD
:1025980075377637D890753776371C0E7525F66EF1
:1025A8006E0E7CD884C01FF085C020F086C021F054
:1025B80087C022F075EC30F022C068F021C067F0C7
:1025C80020C066F01FC065F00A0E696F000E6A6BC6
:1025D8006B6B6C6BBEEC31F065512DD076D8440E28
:1025E8007525F66E6E0E5AD875EC30F01F500F0B2D
:1025F800786F89BB04D07D0E7E6FB70E03D07D0E39
:102608007E6FA60E7D6F78517D25756F000E7E2139
:10261800766F75C0F6FF76C0F7FF0800F5CF88F033
:1026280016D053D8EC0E7525F66E6D0E37D875ECAE
:1026380030F01F50070B300F886F09D08951C00B3D
:10264800A2E0400AEEE0C00AC9E0400A9CE06DC082
:10265800D9FF6EC0DAFF88C0DFFF77D78007D8A020
:10266800810700018029D8B48129E8E189A70BD026
:102678008351800A800F010ED8B4825D04E36DC0D7
:10268800D9FF36D8FCE153D800018867CCD46DC097
:10269800D9FF6EC0DAFF000EDF6E000C7621F76EF0
:1026A8000900F5CF23F00900F5CF24F00900F5CF94
:1026B80025F00A00F5CF26F012008915756F080E6F
:1026C8008A15766F7651080A120084C01FF085C0FB
:1026D80020F086C021F087C022F080C075F081C04C
:1026E80076F0D89075377637D890753776371200E8
:1026F8006EC0DAFF200EDF6E6D4B6E2B8207D8A0FE
:1027080083070001835182111200D96EDA6ADECF85
:1027180084F0DECF85F0DECF86F0DECF87F0040CC4
:102728006DC0D9FF6EC0DAFF200EDF6E200C6FC0BF
:10273800F6FF70C0F7FF6F4B702B0800F5CF88F0DD
:1027480012006F4B702B6FC0F6FF70C0F7FF0800C8
:10275800F55012006EC0DAFF300EDF6E300CD8A0D4
:1027680083070001822912009C6BC6EC21F0F29EBF
:102778000001000E206EF40E1F6E000E226E9B0EDE
:10278800216E246A010E236EA7EC29F01F04201085
:1027980001E0C8D1F28E9B510D0A01E17CD1010103
:1027A800C3D99BC0DFFF032BBED10101010E206EF0
:1027B800050E1F6E2BEC34F01F04201001E098D199
:1027C8007C0E216EE50E206ED5EC32F017D101019A
:1027D800010E206E050E1F6E2BEC34F01F04201026
:1027E80001E086D17E0E216EC00E206ED5EC32F04F
:1027F80005D10101010E206E050E1F6E2BEC34F081
:102808001F04201001E074D17E0E216EC80E206EC8
:10281800D5EC32F0F3D0010EEE6FF2D0EF6703D0B3
:10282800010EEE6F9C6F0101010E206E050E1F6EEA
:102838002BEC34F01F04201001E05AD10001EF679F
:1028480057D1EE5101E154D1000E6AEC35F0010E7A
:102858000001EF6FD3D00101010E206E050E1F6E2F
:102868002BEC34F01F04201001E042D10001EF519D
:1028780001E1C4D0200E6AEC35F00001EF6BBED048
:10288800EF5101E135D10101010E206E050E1F6ED9
:102898002BEC34F00A0E1F5C000E205801E228D100
:1028A8000101010E246E550E236E500E256E010E89
:1028B800276E050E266E54EC2EF08F6F050E8F5D79
:1028C80001E216D158C18FF0080E8F2757C190F03A
:1028D800100E902756C191F0180E912755C192F00D
:1028E8000001936B946B956B912B01D024D9912F98
:1028F800FDD7902B01D01FD9902FFDD78F2B01D05A
:102908001AD98F2FFDD795C099F094C098F093C02D
:1029180097F092C096F0A9C19AF0080E9A6501D076
:10292800E7D0D8909A358F6F906B90370A0E8F2723
:10293800000E90230101010E206E050E1F6E2BEC78
:1029480034F000018F511F5C9051205801E2D0D023
:10295800010E206EA50E1F6EAA0E8F6F010E906FCE
:102968008FC021F090C022F09AC023F0246A8DEC29
:1029780033F096C088F097C089F098C08AF099C063
:102988008BF09AC08CF0010E00018E6FA50E8D6F32
:1029980083EC34F035D0EF5101E1AAD00101010EEA
:1029A800206E050E1F6E2BEC34F01F04201001E082
:1029B8009FD07F0E216E640E206ED5EC32F098D039
:1029C8000101010E206E050E1F6E2BEC34F01F5016
:1029D800020A201001E08CD00001EF6789D00101C4
:1029E8000651300A0FE10001F26BBCEC35F0206AA9
:1029F800050E1F6E000E216ABBEC34F0010E0001BB
:102A08009C6F76D00651310A0DE1010E0001F26F7C
:102A1800BCEC35F0206A050E1F6E010E216EBBEC72
:102A280034F0ECD700019C6B63D0BCEC35F0206A25
:102A3800010E1F6EFF0E2168BBEC34F0FF0058D06A
:102A480001010651760A0DE10751730A0AE108519E
:102A5800630A07E10951700A04E1010E0001F16FF0
:102A680047D00651760A44E10751650A41E1085109
:102A7800720A3EE10951620A3BE10001F16B38D06C
:102A88000101010E206E050E1F6E2BEC34F0205054
:102A98001F10B4E02DD09B51400AD2E0020AC5E0D5
:102AA800010A01E1D8D6050A01E175D70C0A01E14E
:102AB8007CD6070AA3E0030A01E19BD6010A01E1DB
:102AC800B2D61D0A15E0010A01E1A5D6070A01E1FF
:102AD800D7D6020A01E17BD60C0A01E171D7370A81
:102AE8008DE01F0A05E0010A01E198D6070AC8E14E
:102AF80000019C5107E07F0E216EF20E206ED5EC8E
:102B080032F006D07F0E216EF00E206ED5EC32F03A
:102B18000101010E206E050EE8EC2EF004EC35F0F4
:102B28000101036BF28E1200050E0325D96EDA6AD5
:102B3800010EDA221200D8909237933794379537DE
:102B48001200000120EEFDF0010EDF6403D003EC5B
:102B58001DF002D013EC1FF0F29E0001000E206E53
:102B6800F40E1F6E000E226EB60E216E246A010E40
:102B7800236EA7EC29F01F04201001E06BD1F28E20
:102B88004F0E0101036503D0036B306A326A326667
:102B98000FD030500AE0306A0001B651020A29E12C
:102BA800010E326E0101036B24D0010E306E53D139
:102BB80032041FE1305018E0306A0001B651030AB0
:102BC80003E1020E326E15D0B651100A12E101016E
:102BD80098EC15F0B6C0DFFF032B4F0E03653BD111
:102BE800306A036B326A37D10001B651100ADDE052
:102BF800EED73250020A01E02DD1326A010E0001EF
:102C0800646F050E636F03C165F0D5EC34F00009FD
:102C180003E0B2EC2DF01FD10101056703D060EC91
:102C28002DF015D1050503E1B2EC2DF010D10551B9
:102C3800020A05E1C7EC28F00009F1E1F5D70551D2
:102C4800060A03E1C0EC35F0F7D70551060AECE0B7
:102C58000551030A63E10A6701D0E1D70A051EE1BD
:102C680009C1B0F0080E0001B0273BD901D035D911
:102C7800B02FFDD7B151020AB211D6E1040E0101FD
:102C88000B61D2D70BC1F1F0BCEC35F0206A030E12
:102C98001F6E0BC121F0BBEC34F0C1D70A51020AF8
:102CA80021E109C1B0F0080E0001B0271AD901D0FE
:102CB80014D9B02FFDD7B151020AB211B5E1010103
:102CC8000B5104E0010E0001F06F02D00001F06B1F
:102CD800BCEC35F0206A660E1F6E0BC121F0BBEC10
:102CE80034F09DD70A51030A9FE109C1B0F0080EDC
:102CF8000001B027F6D801D0F0D8B02FFDD7B151D8
:102D0800020AB21191E10D0E01010B618DD760EC41
:102D18002DF001010B51BDEC2FF099D00551040A9B
:102D280083E00551080A07E10AC1FCF00BC1FDF078
:102D3800A6EC2BF08CD0052901E086D00A6706D0D6
:102D4800000E0001666B3AEC29F081D00A050AE111
:102D5800000E6AEC35F0010E0001666F000E3AECC9
:102D680029F075D00A51020A0AE1400E6AEC35F0E2
:102D7800020E0001666F000E3AEC29F068D00A5185
:102D8800030A0AE1600E6AEC35F0030E0001666F73
:102D9800000E3AEC29F05BD00A51040A0AE1200E31
:102DA8006AEC35F0040E0001666F000E3AEC29F06B
:102DB8004ED00A51050A22E172D8D8B4B15D0BE2AF
:102DC800100E01010B6107D0050E0001666F010EA0
:102DD8003AEC29F03CD0800E6AEC35F03DD8B46F5F
:102DE800B45172D8D3EC1BF0000E6AEC35F0050E26
:102DF8000001666F000E3AEC29F029D00A51060A44
:102E080001E012D74CD8D8B4B15D0BE2020E010133
:102E18000B6107D0050E0001666F010E3AEC29F030
:102E280016D0800E6AEC35F017D8B56FB5514CD86E
:102E3800D3EC1BF0000E6AEC35F0050E0001666F4E
:102E4800010E3AEC29F003D0020E44EC2BF00101FC
:102E5800036B326AF28E12000FC1B0F0080E000147
:102E6800B0270EC1B1F0100EB1270DC1B2F0180E87
:102E7800B2270CC1B3F0B22B02D0D890B337B22F1F
:102E8800FCD7B12B02D0D890B337B12FFCD7B02BD9
:102E980002D0D890B337B02FFCD7B351120008C175
:102EA800B0F0080E0001B027010108510001B16F10
:102EB800B26BB02B03D0D890B137B237B02FFBD755
:102EC800B251800A800F060C236E246A256A266A8E
:102ED80010C127F001010B511200D890B137B23759
:102EE8001200010108510001B16FB26BB02B120042
:102EF800010E00016D6FAD0E6C6F010E6F6FB20E9B
:102F08006E6F010E716FAF0E706F010E736FB00EA2
:102F1800726F010E756FB10E746F010E776FA50E8B
:102F2800766F3AEC2FF0000901E18FD1D22B000E19
:102F3800D323D423D5230101B1510001CE27000E9C
:102F4800CF23D023D1237F0E216E2C0E206ED5ECFB
:102F580032F00101006705D07F0E0001956FED0E7C
:102F680004D07F0E0001956F4F0E946F010E000183
:102F78006E6F550E6D6F94C06FF095C070F0B0C154
:102F880071F0726B14EC10F00101010E216E550EF8
:102F9800206ED5EC32F00001F05152E07E0E216E29
:102FA800260E206ED5EC32F00101006705D07F0EA9
:102FB8000001976FDD0E04D07F0E0001976F000EA1
:102FC800966F8BEC35F01FC023F020C024F0266AE2
:102FD8000A0E256E49EC34F0E2C08BF0E3C08CF0A9
:102FE800E4C08DF0E5C08EF08CC08EF08BC08DF003
:102FF8008C6B8B6B23518B11906F24518C11916FBB
:10300800000E8D11926F000E8E11936F010E00014C
:103018006E6F550E6D6F96C06FF097C070F090C0D0
:1030280071F091C072F092C073F093C074F014EC18
:1030380010F00101010E216E550E206ED5EC32F014
:103048007E0E216EE00E206ED5EC32F00101006795
:1030580005D07F0E0001996FED0E04D07F0E0001A0
:10306800996F560E986F010E00016E6F550E6D6FB9
:1030780098C06FF099C070F0ADC171F0AEC172F038
:1030880014EC10F00101010E216E550E206ED5ECE6
:1030980032F07F0E216E1E0E206ED5EC32F001014B
:1030A800006705D07F0E00019B6FED0E04D07F0EE8
:1030B80000019B6F4F0E9A6F010E00016E6F550E47
:1030C8006D6F9AC06FF09BC070F0B2C171F0726BF7
:1030D80014EC10F00101010E216E550E206ED5EC96
:1030E80032F07E0E216EA50E206ED5EC32F0010175
:1030F800006705D07F0E00019D6FED0E04D07F0E96
:1031080000019D6F4F0E9C6F010E00016E6F550EF2
:103118006D6F9CC06FF09DC070F0AFC171F0726BA5
:1031280014EC10F00101010E216E550E206ED5EC45
:1031380032F07F0E216E250E206ED5EC32F00101A3
:10314800006705D07F0E00019F6FED0E04D07F0E43
:1031580000019F6F4F0E9E6F010E00016E6F550E9E
:103168006D6F9EC06FF09FC070F0B1C171F0726B4F
:1031780014EC10F00101010E216E550E206ED5ECF5
:1031880032F00101B15153E07F0E216E170E206E0F
:10319800D5EC32F00001A26B44D00101006705D0E4
:1031A8007F0E0001A16FED0E04D07F0E0001A16F0C
:1031B8004F0EA06F010E00016E6F550E6D6FA0C00F
:1031C8006FF0A1C070F0A50EA225D96EDA6A010EC3
:1031D800DA22DF50716F726B14EC10F00101010EEE
:1031E800216E550E206ED5EC32F0FF0E0101B1258F
:1031F80000018B6F8C6BFF0E8C23A2518D6F8E6B31
:103208008E51800A8F6F8B518D5D8C51800A8F593A
:1032180006E27F0E216EF40E206ED5EC32F000012E
:10322800A22B0101B1510001A25D07E2B6D77E0EC3
:10323800216E5F0E206ED5EC32F07F0E216EC90E26
:10324800206ED5EC32F0010E01D0000E12007C0E7B
:10325800216E210E206ED5EC32F00101006705D0F9
:103268007F0E00018C6FDD0E04D07F0E00018C6F85
:10327800000E8B6F010E00016E6F550E6D6F8BC0C7
:103288006FF08CC070F0C6C071F0C7C072F0C8C0D3
:1032980073F0C9C074F014EC10F00101010E216E36
:1032A800550E206ED5EC32F0720E216EDA0E206EBD
:1032B800D5EC32F07B0E216EDB0E206ED5EC32F0B1
:1032C8000101006705D07F0E00018E6FDD0E04D06E
:1032D8007F0E00018E6F000E8D6F010E00016E6F64
:1032E800550E6D6F8DC06FF08EC070F0CAC071F052
:1032F800CBC072F0CCC073F0CDC074F014EC10F0F9
:103308000101010E216E550E206ED5EC32F0720EC1
:10331800216EDA0E206ED5EC32F07B0E216EC30ED4
:10332800206ED5EC32F00101006705D07F0E000158
:10333800906FDD0E04D07F0E0001906F000E8F6F2E
:10334800010E00016E6F550E6D6F8FC06FF090C04B
:1033580070F0E6C071F0E7C072F0E8C073F0E9C041
:1033680074F014EC10F00101010E216E550E206E60
:10337800D5EC32F0720E216EDA0E206ED5EC32F0FA
:103388007B0E216EC30E206ED5EC32F00101006772
:1033980005D07F0E0001926FDD0E04D07F0E000174
:1033A800926F000E916F010E00016E6F550E6D6FDA
:1033B80091C06FF092C070F0EAC071F0EBC072F08B
:1033C800ECC073F0EDC074F014EC10F00101010EC4
:1033D800216E550E206ED5EC32F0720E216EDA0E8B
:1033E800206ED5EC32F074A006D0730E216E470E15
:1033F800206ED5EC32F07B0E216E010E206ED5ECDE
:1034080032F00101006705D07F0E0001946FED0EC8
:1034180004D07F0E0001946F4F0E936F010E0001D0
:103428006E6F550E6D6F93C06FF094C070F076CFCD
:1034380071F0726B14EC10F00101010E216E550E43
:10344800206ED5EC32F0720E216EDA0E206ED5ECBD
:1034580032F074A406D0700E216EE20E206ED5EC08
:1034680032F074AA06D0720E216EA70E206ED5EC2B
:1034780032F074A806D0710E216E1D0E206ED5ECA8
:1034880032F07B0E216EAB0E206ED5EC32F00101CE
:10349800006705D07F0E0001966FED0E04D07F0EF9
:1034A8000001966F4F0E956F010E00016E6F550E5D
:1034B8006D6F95C06FF096C070F075CF71F0726B3C
:1034C80014EC10F00101010E216E550E206ED5ECA2
:1034D80032F0720E216EDA0E206ED5EC32F074A640
:1034E80006D0720E216E020E206ED5EC32F074A258
:1034F80006D0710E216E910E206ED5EC32F01200BE
:103508000001C66BC76BC86BC96BCA6BCB6BCC6B46
:10351800CD6BE66BE76BE86BE96BEA6BEB6BEC6B1F
:10352800ED6BE26BE36BE46BE56B206A060E1F6ED6
:103538009DEC35F00101006F206A030E1F6E9DECB3
:1035480035F00001F16F206A650E1F6E9DEC35F0B5
:103558000101016F206A660E1F6E9DEC35F00001B7
:10356800F06F206A090E1F6E9DEC35F00101046FA3
:10357800800E6AEC35F00001846B84516B6F6C6BC4
:10358800D8906B376C37D8906B376C37220E6B2519
:103598001F6E000E6C21206E9DEC35F000016D6FE2
:1035A8006DC06EF06F6B706B716B70C071F06FC037
:1035B80070F06EC06FF06E6B8451040D210EF32411
:1035C8001F6E000EF420206E9DEC35F00001726F26
:1035D80072C073F0746B756B766B74C076F073C0E1
:1035E80075F0746B736B8451040D200EF3241F6EF9
:1035F800000EF420206E9DEC35F00001776F77C047
:1036080078F0796B7A6B7B6B78C07BF07A6B796B2F
:10361800786B735178257C6F745179217D6F755162
:103628007A217E6F76517B217F6F6E517C25806F6A
:103638006F517D21816F70517E21826F71517F2181
:10364800836F8451040D230EF3241F6E000EF420A3
:10365800206E9DEC35F000018025236E000E81213F
:10366800246E000E8221256E000E8321266E276AA5
:103678008451D3EC1BF00001842B0E0E84657DD79A
:103688000F010F0E226E180E216E206A620E1F6E39
:103698009DEC35F056D8610E1F6E9DEC35F070D854
:1036A800600E1F6E9DEC35F026D8630E1F6E9DECE4
:1036B80035F057D8C2EC25F00F010F0E226E1C0E04
:1036C800216E206A660E1F6E9DEC35F03AD8650EA5
:1036D8001F6E9DEC35F054D8640E1F6E9DEC35F0CE
:1036E8000AD8670E1F6E9DEC35F03BD8C2EC25F06A
:1036F800200E6AEF35F00001756F75C076F0776BB4
:10370800786B796B76C079F0786B776B766B7151E3
:1037180076257A6F725177217B6F735178217C6F90
:10372800745179217D6F6C517A257E6F6D517B21A3
:103738007F6F6E517C21806F6F517D21816F206A70
:10374800120000016B6F6BC06CF06D6B6E6B6F6B72
:103758006EC06FF06DC06EF06CC06DF06C6B206A5F
:10376800120000017E25236E000E7F21246E000EBC
:103778008021256E000E8121266E010E276E010C18
:103788000001706F70C071F0726B736B746B72C0F4
:1037980074F071C073F0726B716B206A1200E8CF1D
:1037A80066F0150E0001606F23C061F024C062F05E
:1037B80025C063F026C064F0606701D007D0643587
:1037C8006433633362336133602FF6D76151676FB7
:1037D80023C060F0030E60170D0E616F23C062F006
:1037E80024C063F025C064F026C065F0616701D08D
:1037F80007D065356533643363336233612FF6D799
:103808006251E00B60110809686F24C069F023C099
:103818006AF090D067C000FF68C001FF69C002FF6E
:103828006AC003FFAAD067C004FF68C005FF69C06B
:1038380006FF6AC007FFA1D067C008FF68C009FF7C
:1038480069C00AFF6AC00BFF98D067C00CFF68C048
:103858000DFF69C00EFF6AC00FFF8FD067C010FF51
:1038680068C011FF69C012FF6AC013FF86D067C025
:1038780014FF68C015FF69C016FF6AC017FF7DD026
:1038880067C060FD68C061FD69C062FD6AC063FD14
:1038980074D067C064FD68C065FD69C066FD6AC014
:1038A80067FD6BD067C068FD68C069FD69C06AFDC7
:1038B8006AC06BFD62D067C070FD68C071FD69C0E9
:1038C80072FD6AC073FD59D067C074FD68C075FD8C
:1038D80069C076FD6AC077FD50D067C078FD68C0C2
:1038E80079FD69C07AFD6AC07BFD47D067C080FD5D
:1038F80068C081FD69C082FD6AC083FD3ED067C093
:1039080084FD68C085FD69C086FD6AC087FD35D025
:1039180067C088FD68C089FD69C08AFD6AC08BFDE3
:103928002CD067C090FD68C091FD69C092FD6AC047
:1039380093FD23D0665101E16DD7010A01E173D7E8
:10394800030A01E179D7010A80E0070A87E0010A42
:103958008EE0030A95E0010A9CE00F0AA3E0010A41
:10396800AAE0030AB1E0010AB8E0070ABFE0010AC9
:10397800C6E0030ACDE0010AD4E0275034E0BCECED
:1039880035F032D8200E60251F6E000E6121206EA2
:103998003EC021F0BBEC34F0BCEC35F025D8210E4C
:1039A80060251F6E000E6121206E3DC021F0BBEC2A
:1039B80034F0BCEC35F018D8220E60251F6E000ECE
:1039C8006121206E3CC021F0BBEC34F0BCEC35F03A
:1039D8000BD8230E60251F6E000E6121206E3BC0A0
:1039E80021F0BBEC34F0120000016651606F616B8E
:1039F800D89060376137D890603761371200846B90
:103A0800786B000EFDD862EC2CF0000901E1E7D0DC
:103A1800836BD22B000ED323D423D5238251CE27F8
:103A2800000ECF23D023D123ACA2FED7100E81ECF9
:103A380035F0ACA2FED7020E81EC35F0ACA2FED771
:103A48000001F0510DE00C0E81EC35F00001000E84
:103A5800616F830E606F0C0E626F67EC34F00CD0F0
:103A6800060E81EC35F00001000E616F830E606F69
:103A7800060E626F67EC34F0ACA2FED7000E81EC44
:103A880035F00001000E616F830E606F000E626BEF
:103A980067EC34F00001000E646F830E636FF3511E
:103AA800EFEC31F00001F32BA3D881C0DFFF98D8E9
:103AB80080C0DFFF95D87FC0DFFF92D87EC0DFFFD0
:103AC800842BF05132E08BEC35F01FC023F020C07E
:103AD80024F0266A0A0E256E49EC34F0E2C06CF038
:103AE800E3C06DF0E4C06EF0E5C06FF06DC06FF03C
:103AF8006CC06EF06D6B6C6B23516C11796F245137
:103B08006D117A6F000E6E117B6F000E6F117C6F56
:103B18006FD87CC0DFFF64D87BC0DFFF61D87AC074
:103B2800DFFF5ED879C0DFFF842B62D882C0DFFF59
:103B3800842B7D6B0FD07D51700FD96EDA6A550ECC
:103B480000018425E16EE26A010EE222DFCFE7FF81
:103B5800842B7D2B82517D5DEEE3782BFD517861BE
:103B680009D0050E786106D0000E4AD862EC2CF018
:103B780000099AE1000E646F830E636F000EEFEC8C
:103B880031F00001000E646F830E636F8451EFEC17
:103B980031F000017D6B11D0000E646F830E636FEE
:103BA800550E00017D25D96EDA6A0101010EDA226F
:103BB800DF50EFEC31F000017D2B84517D5DECE3AB
:103BC800646B636B8351EFEC31F0ACA2FED7100E3F
:103BD80081EC35F0ACA2FED7030E81EC35F0120073
:103BE800842B550E8425D96EDA6A010EDA2212006A
:103BF800550E00018425D96EDA6A010EDA22120008
:103C0800696F820E686F000E6B6F700E6A6F7E0EA2
:103C18001200E8CF0EF02F6A7750C00B106E1066B6
:103C280032D060AE12D0A49074AE06D00B50D96ECC
:103C3800DA6A000EDB86749E60A002D02F8001D065
:103C48002F900F0E136E600E1AD00F0150AF19D0BF
:103C5800A49274AC06D00B50D96EDA6A000EDB86DB
:103C6800749C5051070B2F6E020E2F6005D00B501D
:103C7800D96EDA6A000EDB8E0F0E136E500E126EBE
:103C880065D0000EC4D01050400A46E160AE04D0A2
:103C98000F0E136E600E3ED00F0150AF04D00F0E02
:103CA800136E500E37D00D01F8B507D00E0120AFB6
:103CB80004D00E0E136E200E2DD00D01F8B707D0CC
:103CC8000E0130AF04D00E0E136E300E23D00D014E
:103CD800F8B907D00E0140AF04D00E0E136E400E97
:103CE80019D00D01F8BB05D00E0150AF02D00E0E51
:103CF800D7D70D01F8BD05D00E0160AF02D00E0E6A
:103D0800C8D70D01F8BFBDD70E0170AFBAD70E0ED8
:103D1800136E700E126E0AD074AEB3D76F50070BC5
:103D2800B0EC30F001C012F002C013F012C0D9FF9D
:103D380013C0DAFFDF501F0B2F6EA49274AC06D0AD
:103D48000B50D96EDA6A000EDB86749C12C00CF038
:103D580013C00DF00B50D96EDA6ADF6A20EE05F059
:103D680057D80A50D96EDA6A11500F0BDF6E11ACB2
:103D780005D00B50D96EDA6A000EDB8C20EE02F00B
:103D880047D811A608D00B50D96EDA6A000EDB8A24
:103D9800010E116E01D0116A1228016E000E132057
:103DA800026E0EC003F011C004F033EC25F0060ECD
:103DB8001226000E13220A50D96EDA6ADF50116EED
:103DC8000F6A0FD012C0D9FF13C0DAFF08C0E1FF95
:103DD80009C0E2FFDFCFE7FF124A132A084A092A7F
:103DE8000F2A11500F5CEEE3A4AE06D00B50D96E2B
:103DF800DA6A000EDB88A49E0CC0D9FF0DC0DAFF7A
:103E08007F0EDF161050800AD8B4749E010E12007F
:103E18001250D9261350DA22DF50116E1200000E0C
:103E2800696F810E686F000E6B6F700E6A6F7D0E82
:103E380062EC2CF0000901E1E4D0826BD22B000E79
:103E4800D323D423D5238151CE27000ECF23D023CB
:103E5800D123ACA2FED7100E81EC35F0ACA2FED770
:103E6800020E81EC35F0ACA2FED70001F0510DE056
:103E78000B0E81EC35F00001000E616F820E606F51
:103E88000B0E626F67EC34F00CD0020E81EC35F04B
:103E98000001000E616F820E606F020E626F67ECA8
:103EA80034F0ACA2FED7000E81EC35F00001000E14
:103EB800616F820E606F000E626B67EC34F0000178
:103EC800000E646F820E636FF351EFEC31F0000166
:103ED800F32B000E646F820E636F000EEFEC31F06F
:103EE80091D8050FEFEC31F00001000E646F820EDF
:103EF800636F8051EFEC31F00001000E646F820EA9
:103F0800636F7F51EFEC31F00001000E646F820E99
:103F1800636F7E51EFEC31F00001000E646F820E8A
:103F2800636F7D51EFEC31F00001F05145E08BEC0F
:103F380035F01FC023F020C024F0266A0A0E256E33
:103F480049EC34F0E2C06CF0E3C06DF0E4C06EF010
:103F5800E5C06FF06DC06FF06CC06EF06D6B6C6B90
:103F680023516C11796F24516D117A6F000E6E1107
:103F78007B6F000E6F117C6F000E646F820E636F93
:103F880000017C51EFEC31F00001000E646F820EED
:103F9800636F7B51EFEC31F00001000E646F820E0D
:103FA800636F7A51EFEC31F00001000E646F820EFE
:103FB800636F7951EFEC31F025D8EFEC31F0000167
:103FC800786B0DD0000E646F820E636F7851700F9E
:103FD800D96EDA6ADF50EFEC31F00001782B8151AD
:103FE800785DF0E3646B636B8251EFEC31F0ACA267
:103FF800FED7100E81EC35F0ACA2FED7030E81EC93
:1040080035F012000001000E646F820E636F81515B
:104018001200010E416E0001FC6FFD6F000E206E54
:10402800F40E1F6E0201020E226E000E216E246A2B
:10403800800E236EAEEC33F0330E1F6E000E206E32
:104048000F0E206E5F0E1F64206A040E226E000E93
:10405800216E010E246EEE0E236EAEEC33F024ECCE
:1040680031F0206A010E1F6E9DEC35F0550A07E10C
:10407800206A020E1F6E9DEC35F0AA0AD8A4B8EC8F
:1040880035F01FEC32F0820E0001C46FDD0EE82E11
:10409800FED7C42FFCD700D0780E216E310E206ECB
:1040A800D5EC32F0710E216E570E206ED5EC32F041
:1040B800780E216EC30E206ED5EC32F038EC30F05D
:1040C800EBEC30F00001F15137E0720E216E700E0A
:1040D800206ED5EC32F00001DE6BDF6BE06BE16B3C
:1040E800060E416E20D00400F29E0001000E206EE4
:1040F800F40E1F6E000E226EC50E216E246A010E8C
:10410800236EA7EC29F01F0420100CE1F28EC55194
:10411800760A08E1F16B7A0E216E290E206ED5EC35
:1041280032F00AD0F28EB80EDE5D0B0EDF59000EAB
:10413800E059000EE159D7E3010E416E1DD001018F
:10414800026B000E6AEC35F025D0010E0101026FFA
:10415800000E6AEC35F01ED00101026B600E6AECAD
:1041680035F018D00101026B400E6AEC35F012D020
:10417800200E6AEC35F00ED0206A070E1F6E9DECFB
:1041880035F0010ADCE0030AE0E0010AE5E0070A8D
:10419800E9E0EED70400ABA202D0AB98AB88F29E60
:1041A8000001000E206EF40E1F6EB8EC2CF0640EA9
:1041B8001F5C000E205802E2829801D08288F28E9D
:1041C800F16703D0BFEC03F0E5D7F10503E1A5ECF7
:1041D80015F0E0D7F151020A03E1B8EC13F0DAD791
:1041E800F151030AF4E1BFEC35F0D4D77D0E216E0E
:1041F800940E206ED5EC32F00101006705D07F0ED9
:1042080000018C6FDD0E04D07F0E00018C6F5D0EF7
:104218008B6F010E00016E6F550E6D6F8BC06FF0C6
:104228008CC070F0DAC071F0DBC072F0DCC073F0E3
:10423800DDC074F014EC10F00101010E216E550E72
:10424800206ED5EC32F0720E216EDA0E206ED5ECAF
:1042580032F07D0E216ED90E206ED5EC32F00101C0
:10426800006705D07F0E00018E6FDD0E04D07F0E33
:1042780000018E6F5D0E8D6F010E00016E6F550E81
:104288006D6F8DC06FF08EC070F0D6C071F0D7C062
:1042980072F0D8C073F0D9C074F014EC10F00101BA
:1042A800010E216E550E206ED5EC32F0720E216E85
:1042B800DA0E206ED5EC32F07C0E216E910E206E57
:1042C800D5EC32F00101006705D07F0E0001906F38
:1042D800DD0E04D07F0E0001906F5D0E8F6F010E12
:1042E80000016E6F550E6D6F8FC06FF090C070F04B
:1042F800D2C071F0D3C072F0D4C073F0D5C074F0DE
:1043080014EC10F00101010E216E550E206ED5EC53
:1043180032F0720E216EDA0E206ED5EC32F07C0E81
:10432800216EBC0E206ED5EC32F00101006705D07D
:104338007F0E0001926FDD0E04D07F0E0001926F98
:104348005D0E916F010E00016E6F550E6D6F91C07D
:104358006FF092C070F0CEC071F0CFC072F0D0C0D4
:1043680073F0D1C074F014EC10F00101010E216E4D
:10437800550E206ED5EC32F0720E216EDA0E206EDC
:10438800D5EF32F0000E696F810E686F010E0001E3
:104398006B6FA50E6A6F7D0E62EC2CF0000901E1CF
:1043A800AFD0D22B000ED323D423D5238151CE27CF
:1043B800000ECF23D023D123ACA2FED7540E81EC1C
:1043C80035F0010E00016E6F550E6D6F7DC06FF0F8
:1043D8007EC070F07FC071F080C072F0746B100EF8
:1043E800736F54EC28F0826B836BACA2FED7300E4F
:1043F80081EC35F086D8D8B4825DF7E30101010E6F
:10440800216E550E206ED5EC32F0010E00016A6F58
:10441800550E696F81C06BF06C6B6E6B100E6D6F13
:104428009FEC34F0ACA2FED70101555181EC35F078
:104438000001826B836B2DD0010E00016A6F550E4F
:10444800696FA50E8225D96E010E8321DA6EDF50C1
:104458006B6F6C6B6E6B100E6D6F9FEC34F001011F
:10446800010E206E550E1F6E2BEC34F01F50020A01
:10447800201005E0ACA2FED7300E81EC35F001012A
:10448800010E216E550E206ED5EC32F00001824BE4
:10449800832B81517A6F7B6B8351800A7C6F7A51B1
:1044A800825D7B51800A7C59C7E3F25124E0010EFA
:1044B80000016E6F550E6D6FE2C06FF0E3C070F0D3
:1044C800E4C071F0E5C072F0746B100E736F54ECB9
:1044D80028F0826B836BACA2FED7300E81EC35F0EE
:1044E80010D8D8B4825DF7E30101010E216E550E94
:1044F800206ED5EC32F0ACA2FED70D0E81EC35F073
:1045080012000001824B832B8351800A800FB80C64
:10451800770E216E240E206ED5EC32F06F0E216ED0
:10452800F80E206ED5EC32F07A0E216E7D0E206EDC
:10453800D5EC32F0750E216E8A0E206ED5EC32F075
:10454800750E216E300E206ED5EC32F0730E216E92
:104558007B0E206ED5EC32F0730E216EE00E206ECD
:10456800D5EC32F0790E216EED0E206ED5EC32F0DE
:10457800740E216E120E206ED5EC32F0750E216E7F
:104588005E0E206ED5EC32F07B0E216E330E206E5F
:10459800D5EC32F0710E216ECA0E206ED5EC32F0D9
:1045A8007B0E216EF30E206ED5EC32F0790E216E63
:1045B8002A0E206ED5EC32F0760E216EFD0E206E9E
:1045C800D5EC32F0760E216E5E0E206ED5EC32F010
:1045D800740E216ED30E206ED5EC32F06E0E216E65
:1045E800FF0E206ED5EC32F06F0E216E4B0E206E52
:1045F800D5EC32F06E0E216EB20E206ED5EC32F094
:104608007B0E216E4B0E206ED5EC32F06E0E216EB5
:10461800640E206ED5EC32F07C0E216ED10E206E29
:10462800D5EC32F06F0E216E950E206ED5EC32F07F
:10463800790E216E080E206ED5EC32F0740E216EC4
:10464800A40E206ED5EC32F0740E216E750E206E1D
:10465800D5EC32F0700E216E1F0E206ED5EC32F0C4
:10466800740E216E440E206ED5EC32F0720E216E5F
:10467800390E206ED5EC32F0700E216EA40E206E2D
:10468800D5EC32F0770E216E990E206ED5EF32F010
:104698000F0E00016D6F400E6C6F0F0E6F6F300EB6
:1046A8006E6F0F0E716F200E706F0E0E736F200EEF
:1046B800726F0E0E756F300E746F0E0E776F400EA0
:1046C800766F0E0E796F500E786F0E0E7B6F600E40
:1046D8007A6F0E0E7D6F700E7C6F7750C00B7E6FF9
:1046E8007E6702D0020E01D0080E7F6F0D01D890B0
:1046F800F8310001816F856B7DD08551020DF35033
:104708006C0FD96EDA6ADECF86F0DDCF87F086C00F
:1047180082F087C083F0020E856504D0D89081337B
:1047280081A167D086C0D9FF87C0DAFFDF506B6FE1
:104738006BB75FD086C0D9FF87C0DAFFFC0EDF16E3
:104748006AC06BF0030E6B1786C0D9FF87C0DAFF0B
:104758006B51DF126AAD04D069514009846F02D0F1
:1047680069C084F020EE05F08651D9268751DA22F7
:1047780084C0DFFF6AAB03D0010E846F01D0846B65
:104788008629216E000E8721226E63C023F064C043
:1047980024F065C025F066C026F084C027F0C2EC7E
:1047A80025F0060E8627000E8723806B0FD067C082
:1047B800D9FF68C0DAFF86C0E1FF87C0E2FFDFCF1C
:1047C800E7FF674B682B864B872B802B6951805DF1
:1047D800EEE382C0D9FF83C0DAFFDF506B6F6BB5A1
:1047E80006D082C0D9FF83C0DAFF000EDB86010E37
:1047F80005D0852B7F51855D80E3000E12000001F6
:10480800C06BC26B6F50E00B07E0730E216E130E86
:10481800206ED5EC32F08CD06F0E216EDC0E206E3F
:10482800D5EC32F0010E0001C36F0400E00E000168
:10483800AF6F04C1B0F0B16BC10EB26FC35111ECD0
:104848002AF000094AE00001C25106E0720E216E0A
:10485800DA0E206ED5EC32F07A0E216EB30E206E91
:10486800D5EC32F00101006704D00001BF6B0A0EDD
:1048780003D00001BF6B100EBE6F010E00016A6FFE
:10488800550E696FAFC16BF06C6BBEC06DF0BFC0E9
:104898006EF09FEC34F00101010E216E550E206E72
:1048A800D5EC32F0720E216EDA0E206ED5EC32F0B5
:1048B8000001C3517AEC2AF00001C351D5EC27F06E
:1048C8000001C351A2EC2EF06F0E216EDC0E206E9B
:1048D800D5EC32F00001C02B07D0010E0001C26FE9
:1048E8002E0E81EC35F0AC500001C32BC3679DD769
:1048F800720E216EDA0E206ED5EC32F0010E000138
:104908006A6F550E696FC0C06BF06C6B6E6B0A0EE8
:104918006D6F9FEC34F00101010E216E550E206E73
:10492800D5EC32F07D0E216EC80E206ED5EC32F03B
:10493800120003C00DF004C00EF00F6A106A116A6D
:10494800126A68D020EE04F0015072D802E10950D2
:104958000B1811E020EE06F001506AD802E1095068
:104968000B180EE120EE04F00150D9260250DA228D
:10497800DE50DD1005E10FC001F010C002F057D085
:104988000DC0D9FF0EC0DAFF10EE02F00150E1268B
:104998000250E222E6CF09F0E5CF0AF001C0E1FFBC
:1049A80002C0E2FFE6CF0BF0E5CF0CF009500B2474
:1049B800E16E0A500C20E26EDFCFE7FF0D4A0E2AA7
:1049C80020EE02F00150D9260250DA22DE2A000E2B
:1049D800DD2220EE06F00150D9260250DA2210EE30
:1049E80002F00150E1260250E222E652DE52DD508A
:1049F800E55C02E1DF50E75C08E320EE02F00150DD
:104A0800D9260250DA22DE6ADD6A0F2A000E102249
:104A18001122122205500F5C0650105807501158E9
:104A2800085012588FE305C001F006C002F01200CA
:104A3800D9260250DA22DECF09F0DDCF0AF020EEC7
:104A480002F00150D9260250DA22DECF0BF0DDCF7A
:104A58000CF00B2A000E0C220A500C18120003C08E
:104A680007F004662BD00750D96E62D80536D89067
:104A78000536D8900534DF6E0750D96EDA6AD92A20
:104A8800DA6A73D8D8900532062EFCD7055059D863
:104A9800050E066ED8900532062EFCD70750D96E43
:104AA800DA6A0550DF123DD8DF6A0750D96EDA6A34
:104AB800030ED926DA6A000EDF6E32D032D855D806
:104AC800D8900536062EFCD70550DF6E0750D96EF4
:104AD800DA6A030ED9262CD80532D8900532D89038
:104AE80005302FD8030E05161CD80550DF1201C05B
:104AF800D9FF02C0DAFFDF50056ED8900532D89092
:104B08000532D89005321C0E05160BD80550DF1259
:104B180022D8E12AE26ADFCFE7FF1DD8DFCFE7FF1F
:104B280012000750D96EDA6A020ED926DA6A120024
:104B3800DA6A01C0E1FF02C0E2FFE750056ED890D3
:104B48001200DF6E014A022A01C0D9FF02C0DAFF53
:104B5800DF50056E1200014A022A01C0D9FF02C0C7
:104B6800DAFF0750E16EE26A120001C0E1FF02C0FD
:104B7800E2FFE750056E050E066E050C230E0001D8
:104B8800626F276622D06251D96EDA6ADF50606F91
:104B9800D8906033D8906033D890603158D8D92AEB
:104BA800DA6A71D8D8906037612FFCD721C0D9FF55
:104BB80044D869D8D8906037612FFCD7605121C09C
:104BC800D9FF22C0DAFFDF6E37D054D8050E616FE7
:104BD800D8906033612FFCD7605139D8030E40D884
:104BE800603721C0D9FF29D8020E3AD86035E00BCA
:104BF80021C0D9FF22C0DAFFDF6E21C0D9FF22C051
:104C0800DAFF000EDB8636D8030E601721C0D9FF05
:104C180014D8D92ADA6A21C0E1FF22C0E2FFDFCF27
:104C2800E7FF214A222A6251D96EDA6A21C0E1FFE0
:104C380022C0E2FFDFCFE7FF120022C0DAFF605197
:104C4800DF12214A222A6251D96EDA6A120021C083
:104C5800D9FF22C0DAFFDF6E6251D96EDA6A12001C
:104C6800D926DA6ADF50606FD8906037D8906037FD
:104C7800D89012006251D96EDA6A020ED926DA6A21
:104C8800DF50606F1200DF50606F050E616F050C1A
:104C9800E8CFBAF0BAC0A5F10001B0510101A66F82
:104CA800AFC0A7F1B1C0A8F1B4C0D9FFB5C0DAFF51
:104CB800DF50A96F0001906B8F6B260E916F926B7E
:104CC800936B050E946F010E966FA50E956F07EC0A
:104CD8002CF0000960E0DE6BDF6BE06BE16B4BD022
:104CE80004002EEC35F0010E00016D6FAD0E6C6FF7
:104CF800010E6F6FB20E6E6F010E716FAF0E706F97
:104D0800010E736FB00E726F010E756FB10E746F76
:104D1800010E776FA50E766F3AEC2FF000092BE0A5
:104D28000101AF510001BA6326D00101B151050A52
:104D380022E1A56720D00001B0510101A6191BE1AD
:104D48000001AF5121EEA7F0DF6215D0B15101018A
:104D580021EEA8F0DF620FD0A951B4C0D9FFB5C0C9
:104D6800DAFFDF6208D0B4C0D9FFB5C0DAFFA6C148
:104D7800DFFF010E11D00001B251B66FB351B76F0A
:104D8800B86BB96BB651DE5DB751DF59B851E05910
:104D9800B951E159A5E3000E120003D00001624B9E
:104DA800632B000177D8EA6403D0EA6EEF5003D092
:104DB800F76E0800F550200AF1E000016BD8EA64AC
:104DC80003D0EA6EEF5003D0F76E0800F550090AD9
:104DD800E5E00001676B686B666B5CD8EA6403D03A
:104DE800EA6EEF5003D0F76E0800F5502D0A03E184
:104DF8000001662B0DD000014DD8EA6403D0EA6E9D
:104E0800EF5003D0F76E0800F5502B0A21E100019E
:104E1800624B632B1DD067C023F068C024F0266A5C
:104E28000A0E256E49EC34F035D8EA6403D0EA6EF0
:104E3800EF5003D0F76E0800F5502326000E242209
:104E4800D00E23240001676FFF0E2420686FDFD780
:104E5800000120D8EA6403D0EA6EEF5003D0F76E61
:104E68000800F5503DEC35F0D6E2000166510DE042
:104E780067C064F068C065F0641F651F644B652BEC
:104E880064C062F065C063F004D067C062F068C0B7
:104E980063F012006251F66EE96E050EEA6E635118
:104EA8001200E8CFBAF0BAC0A5F10001B051010173
:104EB800A66FAFC0A7F1B1C0A8F1010EA96F00019C
:104EC800906B8F6B250E916F926B936B050E946FA1
:104ED800010E966FA50E956F07EC2CF000095FE0A8
:104EE800DE6BDF6BE06BE16B4AD004002EEC35F033
:104EF800010E00016D6FAD0E6C6F010E6F6FB20E7B
:104F08006E6F010E716FAF0E706F010E736FB00E82
:104F1800726F010E756FB10E746F010E776FA50E6B
:104F2800766F3AEC2FF000092AE00101AF51000139
:104F3800BA6325D00101AE51AD1121E1B251270A62
:104F48001EE1B151050A1BE1A56719D00001B05156
:104F58000101A61914E10001AF5121EEA7F0DF62AB
:104F68000ED0B151010121EEA8F0DF6208D0B4C023
:104F7800D9FFB5C0DAFFA9C1DFFF010E11D00001CA
:104F8800B251B66FB351B76FB86BB96BB651DE5D3E
:104F9800B751DF59B851E059B951E159A6E3000EAC
:104FA8001200E8CFB8F00101010E206E550EE8ECB2
:104FB8002EF004EC35F07E0E216ED80E206ED5EC66
:104FC80032F00001BD6BBD51D00FAF6F000104C1BD
:104FD800B0F0B16BBC0EB26FB85111EC2AF00009F9
:104FE80029E00001000E6A6FB90E696FBCC06BF052
:104FF8006C6B6E6B100E6D6F9FEC34F0000E206EB4
:10500800B90E1F6E2BEC34F01F0420100FE10101C4
:10501800010E206E550E1F6E7F0E226EF80E216E49
:10502800AAEC32F033D8AAEC32F00FD02FD8AAEC81
:1050380032F00BD00101010E206E550E1F6E7F0E4F
:10504800226EE40E216EAAEC32F00F0E0001BD6153
:105058000BD00101010E206E550E1F6E7F0E226EC1
:10506800FA0E216EAAEC32F00001BD2B0F0EBD65C1
:10507800AAD70101010E216E550E206ED5EC32F033
:10508800720E216EDA0E206ED5EF32F0010E206E10
:10509800550E1F6E0001000E226EB90E216E120011
:1050A8006FC075F070C076F071C077F072C078F09C
:1050B80075C01FF076C020F077C021F078C022F0CC
:1050C80058D875EC30F022C078F021C077F020C0B5
:1050D80076F01FC075F06D4B6E2B785175117611F7
:1050E8007711E6E16DC0D9FF6EC0DAFFDF6A6D07A0
:1050F800D8A06E076FC065F070C066F071C067F029
:1051080072C068F073C069F074C06AF0000E6ABFBC
:10511800FF0E6B6F6C6FBEEC31F06551796F6FC02D
:105128001FF070C020F071C021F072C022F021D8A9
:1051380075EC30F022C072F021C071F020C070F020
:105148001FC06FF0090E796502D0070E7927300E5F
:1051580079276DC0D9FF6EC0DAFF79C0DFFF6D0710
:10516800D8A06E0772516F1170117111D8B4120066
:10517800C1D773C023F074C024F0000E24BEFF0E04
:10518800256E266E12000CC18FF00001906B916B9A
:10519800926B91C092F090C091F08FC090F08F6B9D
:1051A8000BC193F0946B956B966B94C096F093C07B
:1051B80095F0946B936B0AC197F0986B996B9A6B07
:1051C8001A0ED8909737983799379A37E82EF9D723
:1051D800935197119B6F945198119C6F9551991108
:1051E8009D6F96519A119E6F8F519B119F6F905191
:1051F8009C11A06F91519D11A16F92519E11A26FA8
:1052080001010D5100019F11AB6FA051AC6FA1516D
:10521800AD6FA251AE6F01010951FC0F0001AF6FD4
:10522800080EAF6501D0AF6F000E206EA30E1F6E83
:105238000E0E8F6F010E906F8FC021F090C022F07C
:10524800AFC023F0246A8DEC33F0ABC088F0ACC05B
:1052580089F0ADC08AF0AEC08BF0AFC08CF0000111
:10526800000E8E6FA30E8D6F83EF34F0E8CF67F0DA
:10527800686BACA2FED7100E81EC35F0ACA2FED75D
:10528800020E81EC35F0ACA2FED7FE0E81EC35F0B3
:105298000001000E616F680E606FFE0E626F67ECB2
:1052A80034F0ACA2FED7000E81EC35F045D867EC9F
:1052B80034F00001000E646F680E636F010107513E
:1052C800EFEC31F0ACA2FED7000E81EC35F034D80B
:1052D80067EC34F0ACA2FED7020E81EC35F0000189
:1052E800000E616F680E606F020E626F67EC34F03B
:1052F800ACA2FED70001000E646F680E636F6751A1
:10530800EFEC31F0ACA2FED70001000E646F680E1E
:10531800636F6651EFEC31F00001646B636B6851A9
:10532800EFEC31F0ACA2FED7100E81EC35F0ACA258
:10533800FED7030E81EF35F00001000E616F680E95
:10534800606F626B000C21C064F022C065F0000140
:10535800666B676B4AD020EE02F051D8E518DFCFB4
:10536800E8FFD8B4E7183AE020EE04F01F50D92639
:105378002050DA22DECF60F0DDCF61F01FC0D9FF08
:1053880020C0DAFFDECF62F0DDCF63F06051622526
:10539800D96E61516321DA6E64C0E1FF65C0E2FF36
:1053A800DFCFE7FF644B652B20EE04F01F50D926B2
:1053B8002050DA22DE2A000EDD2220EE06F01FD869
:1053C800E55C02E1DF50E75C0EE320EE04F01F50DD
:1053D800D9262050DA22DE6ADD6A05D066C01FF0C1
:1053E80067C020F00BD0664B672B2350665D2450B6
:1053F8006759B1E323C01FF024C020F012001F50EA
:10540800D9262050DA2210EE04F01F50E126205051
:10541800E222E652DE52DD501200E8CFB7F0B7C004
:10542800A5F1AFC0A6F1906B8F6B090E916F926BCF
:10543800936B020E946F010E0001966FA50E956F87
:1054480007EC2CF0000950E0DE6BDF6BE06BE16BE2
:105458003BD004002EEC35F0010E00016D6FAD0E4F
:105468006C6F010E6F6FB20E6E6F010E716FAF0E23
:10547800706F010E736FB00E726F010E756FB10E03
:10548800746F010E776FA50E766F3AEC2FF0000956
:105498001BE00101AF510001B76316D00101AE5105
:1054A800AD1112E1B2510A0A0FE1B151020A0CE141
:1054B800A5510001AF6308D0B251D96EDA6A010173
:1054C800A6C1DFFF010E11D00001B051B36FB15179
:1054D800B46FB56BB66BB351DE5DB451DF59B551DE
:1054E800E059B651E159B5E3000E1200E8CFB8F023
:1054F8000101010E206E550EE8EC2EF004EC35F09B
:105508007D0E216E490E206ED5EC32F00001BD6B88
:10551800BD51940FAF6F000104C1B0F0B16BBC0E68
:10552800B26FB85111EC2AF0000919E00001000E21
:105538006A6FB90E696FBCC06BF06C6B6E6B100E46
:105548006D6F9FEC34F0010E206E550E1F6E00013A
:10555800000E226EB90E216EAAEC32F00BD00101BA
:10556800010E206E550E1F6E7F0E226EFC0E216EF0
:10557800AAEC32F0020E0001BD610BD00101010E50
:10558800206E550E1F6E7F0E226EF60E216EAAEC4F
:1055980032F00001BD2B020EBD65BAD70101010E24
:1055A800216E550E206ED5EC32F0720E216EDA0E99
:1055B800206ED5EF32F0BCEC35F0206A010E1F6E7C
:1055C800550E216EBBEC34F0BCEC35F0206A020EAF
:1055D8001F6EAA0E216EBBEC34F0BCEC35F0206ACD
:1055E800030E1F6E000E216ABBEC34F0BCEC35F0E4
:1055F800206A050E1F6E000E216ABBEC34F0BCEC6D
:1056080035F0206A060E1F6E000E216ABBEC34F0DE
:10561800BCEC35F0206A090E1F6E140E216EBBEC2F
:1056280034F0200E236EBCEC35F0206A200E1F6E7D
:10563800FF0E2168BBEC34F0232A5F0E2364F3D7F6
:10564800600E236EBCEC35F0206A600E1F6E000EF3
:10565800216ABBEC34F0232A670E2364F3D7BCEC31
:1056680035F0206A650E1F6E000E216ABBEC34F01F
:10567800BCEC35F0206A660E1F6E216ABBEF34F071
:10568800E8CF66F00001676BACA2FED7100E81EC84
:1056980035F0ACA2FED7020E81EC35F0ACA2FED7F5
:1056A800FD0E81EC35F00001000E616F670E606F32
:1056B800FD0E626F67EC34F0ACA2FED7000E81ECF1
:1056C80035F039D867EC34F00001000E646F670ECE
:1056D800636F01010751EFEC31F0ACA2FED7000E69
:1056E80081EC35F028D867EC34F0ACA2FED7010E77
:1056F80081EC35F00001000E616F670E606F010EDE
:10570800626F67EC34F00001000E646F670E636F20
:105718006651EFEC31F00001646B636B6751EFEC9D
:1057280031F0ACA2FED7100E81EC35F0ACA2FED75A
:10573800030E81EF35F00001000E616F670E606F98
:10574800626B000C0001666BACA2FED7100E81ECF8
:1057580035F0ACA2FED7020E81EC35F0ACA2FED734
:10576800090E81EC35F00001000E616F660E606F66
:10577800090E626F67EC34F0ACA2FED7000E81EC24
:1057880035F00001000E616F660E606F000E626BEF
:1057980067EC34F00001000E646F660E636FF3511E
:1057A800EFEC31F00001F32B000E646F660E636FAF
:1057B800000EEFEC31F00001000E646F660E636FAF
:1057C800020EEFEC31F00001000E646F660E636F9D
:1057D800010EEFEC31F00001000E646F660E636F8E
:1057E800000EEFEC31F00001646B636B6651EFEC77
:1057F80031F0ACA2FED7100E81EC35F0ACA2FED78A
:10580800030E81EF35F091C097F0986B996B9A6B06
:1058180099C09AF098C099F097C098F0976B8F51FB
:105828009B6F90519C6F9D6B9E6B9CC09EF09BC024
:105838009DF09C6B9B6B93C09FF0A06BA16BA26BC0
:105848001A0ED8909F37A037A137A237E82EF9D77C
:105858009B519F11A36F9C51A011A46F9D51A11141
:10586800A56F9E51A211A66F9751A311A76F9851CA
:10587800A411A86F9951A511A96F9A51A611AA6FE1
:105888009251A711AB6FA851AC6FA951AD6FAA5136
:10589800AE6FABC088F0ACC089F0ADC08AF0AEC0C6
:1058A8008BF094C08CF095C08DF096C08EF083EC90
:1058B80034F00009000ED8A4010E1200E8CF25F03C
:1058C800315011E0F29E48D81F64206A25C021F0AB
:1058D800226A246A040E236EA7EC29F01F50040ADA
:1058E800201003E0F28E000E36D036D81F64206AEE
:1058F80068C021F069C022F0246A010E236EA7EC6B
:1059080029F01F042010EEE168C0D9FF69C0DAFF52
:10591800080EDF6405D068C0D9FF69C0DAFFDF6A06
:105928001BD81F64206A6AC021F06BC022F068C0CF
:10593800D9FF69C0DAFFDF50236E246AA7EC29F08B
:1059480068C0D9FF69C0DAFFDF501F182010CAE10C
:105958003106F28E010E1200330E1F6E000E206EFD
:105968000F0E206E5F0E120020EE04F01F50D92695
:105978002050DA2210EE02F01F50E1262050E222D9
:10598800E652DE52DD50E55C02E1DF50E75C13E2EF
:1059980020EE02F034D820EE04F01F50D926205013
:1059A800DA22DECF62F0DDCF63F06051625D1F6EF8
:1059B8006151635922D020EE04F021D820EE02F084
:1059C8001F50D9262050DA22DECF62F0DDCF63F0F7
:1059D80020EE06F01F50D9262050DA22DECF64F0E0
:1059E800DDCF65F06251645D666F63516559676F1D
:1059F800605166251F6E61516721206E12001F508D
:105A0800D9262050DA22DECF60F0DDCF61F0120017
:105A180020EE04F00150D9260250DA2210EE02F0EE
:105A28000150E1260250E222E652DE52DD50E55CEA
:105A380002E1DF50E75C13E220EE02F034D820EEFA
:105A480004F00150D9260250DA22DECF05F0DDCF6E
:105A580006F00350055C016E0450065822D020EE73
:105A680004F021D820EE02F00150D9260250DA22A3
:105A7800DECF05F0DDCF06F020EE06F00150D92686
:105A88000250DA22DECF07F0DDCF08F00550075CC0
:105A9800096E065008580A6E03500924016E045016
:105AA8000A20026E12000150D9260250DA22DECFF7
:105AB80003F0DDCF04F012000001666BACA2FED744
:105AC800100E81EC35F0ACA2FED7020E81EC35F059
:105AD800ACA2FED7FB0E81EC35F00001000E616F21
:105AE800660E606FFB0E626F67EC34F0ACA2FED7F7
:105AF800000E81EC35F02BD867EC34F00001000E75
:105B0800646F660E636F01010751EFEC31F0ACA2D0
:105B1800FED7000E81EC35F01AD867EC34F0ACA251
:105B2800FED7000E81EC35F012D867EC34F0000196
:105B3800646B636B6651EFEC31F0ACA2FED7100ECC
:105B480081EC35F0ACA2FED7030E81EF35F00001F1
:105B5800000E616F660E606F626B000C0001666B71
:105B6800ACA2FED7100E81EC35F0ACA2FED7020E27
:105B780081EC35F0ACA2FED7FC0E81EC35F00001CB
:105B8800000E616F660E606FFC0E626F67EC34F09A
:105B9800ACA2FED7000E81EC35F02BD867EC34F0C0
:105BA8000001000E646F660E636F01010751EFEC90
:105BB80031F0ACA2FED7000E81EC35F01AD867ECB4
:105BC80034F0ACA2FED7000E81EC35F012D867ECA9
:105BD80034F00001646B636B6651EFEC31F0ACA2FA
:105BE800FED7100E81EC35F0ACA2FED7030E81EF84
:105BF80035F00001000E616F660E606F626B000C7D
:105C080062C066F063C067F066C01FF067C020F02E
:105C180064C021F065C022F0FFEC32F01FC066F0CE
:105C280020C067F0604B612B67516611EDE160C0E1
:105C3800D9FF61C0DAFF000EDF6A6007D8A06107EC
:105C480062C01FF063C020F064C021F065C022F07C
:105C58000CEC34F01F50686F62C01FF063C020F076
:105C680064C021F065C022F0FFEC32F01FC062F082
:105C780020C063F0090E686502D0070E6827300E51
:105C8800682760C0D9FF61C0DAFF68C0DFFF60071E
:105C9800D8A0610763516211D3E1604B612B1200F8
:105CA80026C01FF027C020F02BEC34F0D89020300D
:105CB8000001646F1F30636F2550606F616B615125
:105CC800800A626F6351605D6451800A625902E222
:105CD800000E33D0676B686B26C065F027C066F08E
:105CE80022D067512324D96E68512420DA6E10EE31
:105CF80001F06551E1266651E222E750CEEC33F01F
:105D0800606F65C0E1FF66C0E2FFE750CEEC33F09C
:105D1800616F6139F00B6011DF6E020E6527000EAE
:105D28006623674B682B6851800A606F6351675D13
:105D38006451800A6059D5E367511200E8CFB8F082
:105D4800010E0001BB6F550EBA6F0101010E206EE6
:105D5800550E3AD804EC35F07E0E216E0A0E206EF0
:105D6800D5EC32F00001BC6BBC51E00FAF6F000105
:105D780004C1B0F0B16BB90EB26FB85111EC2AF092
:105D880000090AE0BAC0D9FFBBC0DAFFB9C0DFFF1B
:105D98000001BA4BBB2B07D0BAC0D9FFBBC0DAFF92
:105DA8003F0EDF6EF5D7BC2B1F0EBC65DDD701019A
:105DB800010E216E550E206ED5EC32F0720E216E5A
:105DC800DA0E206ED5EF32F01F6E226A216A246A3D
:105DD800500E236E500C6551641104E12CC064F020
:105DE8002DC065F06551641117E064C060F065C0AE
:105DF80061F066C062F067C063F06AEC33F00001DE
:105E0800605164276151652364C0D9FF65C0DAFF1A
:105E1800DF5005E12C6A2D6A646B656B26D064C07F
:105E280060F065C061F066C062F067C063F047EC7F
:105E380033F00001605164252C6E615165212D6E8F
:105E48002CC0D9FF2DC0DAFFDF5009E02CC0D9FFE4
:105E58002DC0DAFF000EDF6E2C4A2D2A02D02C6AE4
:105E68002D6A64C064F065C065F0120074C068F003
:105E780075C069F076C06AF077C06BF07C0E62EC92
:105E88002CF0000902E1000E33D070C0D9FF71C0B8
:105E9800DAFF7CC0DFFF6EC0D9FF6FC0DAFF7DC0BC
:105EA800DFFF00017E51786F010E7F15796F6CC09E
:105EB800D9FF6DC0DAFF78C0DEFF79C0DDFF7CC096
:105EC80078F07DC079F07EC07AF07FC07BF01B0E41
:105ED80005D0D8907B337A3379337833E82EF9D7E5
:105EE8007851070B72C0D9FF73C0DAFFDF6E010E5D
