:020000040000FA
:04000000000E04D01A
:0800080004EF02F082AE0FD0FC
:08001000F66E040EF76E02D03B
:080018000CEF02F0000EF86E7F
:100020000900F53C00EF02F00900F53CFBD720EE9B
:1000300000F0700ED3129B8C82AEFED7900EAB6E8A
:10004000260EAC6EA786020ED56EAB98AE50AE50A3
:10005000D76AD66AF2944ED8D58E4CD8D59EF2B4D3
:10006000F7D7D6CFAFFFD7CF7DFFAB88E5D80F0A44
:10007000ECE10F0EDCD800EE04F0DED80F0AF9E058
:100080000250040A07E00250050A01E1D5D802C077
:10009000ECFFF3D710EE05F0006A016AEDCFF4FF34
:1000A000E65030D8E250EA62FBD7E150E962F8D777
:1000B0000150F462CAD70050EF62C7D7006A016AE4
:1000C0000650F66E746E0750F76E756E08C0F8FF36
:1000D00000EE0BF00A0E0560B8D7F9500544F9267A
:1000E00027D02FD039D04BD055D062D06FD07ED012
:1000F00099D7FF000400F2B4120082BEFCD782AE92
:10010000FED71200011800C001F0006EE83A0F0B94
:10011000001A0038F00B011A0038E844011AE00B0D
:10012000011A001A120000030105FF8400000000FC
:10013000260EF66E010EF76E000EF86E0A0E0A6EAF
:100140000B6A0900F55067D8DDDF0A06000E0B5A6E
:100150000A500B10F6E158D00900F550D3DFF650E5
:100160003F0BFAE100500BEC01F001500BEC01F0F9
:100170000A06000E0B5A0A500B10EEE149D0940EFD
:100180007F6E68D8400EF65EE86AF75AF85A0A2E73
:10019000F6D736D0840E7F6EEECFF5FF0D00F65009
:1001A0003F0BFAE10A0056D809000A2EF3D728D0EF
:1001B0007F6A7F807350744A752A2DD8A3DF0A06A0
:1001C000000E0B5A0A500B10F4E11ED0040E7F6E85
:1001D000ECCF73FF3FD87FB2FED7744A752A0A0668
:1001E000000E0B5A0A500B10F3E10AD0C40E7F6EBA
:1001F0000800EE50F5622CD80B000A2EFAD700D07A
:100200007F6A055008D87EDF005005D8015003D81A
:10021000040E0DD82BD7036E0F0A06E00350040A14
:1002200003E00350050A02E1050E01D80350040063
:100230009EA8FED7AD6E1200ABB2FF0004009EAACE
:10024000FDD7AE50026E1200FF00FF00FF007F6A74
:10025000F56E0C000400550E7E6EAA0E7E6E7F8237
:040260000000120088
:020000040030CA
:010000001DE2
:0100010018E6
:010002006E8F
:010003007F7D
:010005008971
:010006009168
:010008000FE8
:01000900C036
:01000A000FE6
:01000B00E014
:01000C000FE4
:01000D0040B2
:00000001FF
