:04000000D3EF00F04A
:10001800D8CF11F0E8CF12F0E0CF13F0E1CF14F011
:10002800E2CF15F0D9CF16F0DACF17F09EAA01D09B
:1000380001D024D09EEC28F0186E0101010E026E4A
:10004800C80E016E180E036E010E046E000E056ECA
:10005800000E066E000E076E3EEC19F00104021049
:10006800D8B401D001D008D0010E1827000E1923EA
:10007800000E1A23000E1B239E9A7DD0F2A401D0F5
:1000880001D079D0010E0001CF27000ED023000E39
:10009800D123000ED223010ECB27000ECC23000E55
:1000A800CD23000ECE23FB0E026E1D0E016EE0EC7A
:1000B80028F0354A362A3C50020AD8A401D001D08B
:1000C8000CD0E90E355C030E3658D8A001D001D00B
:1000D80004D08B72356A366A4DD03C50030AD8A4D6
:1000E80001D001D009D0910E355C010E3658D8A048
:1000F80001D001D001D0EDD73C50040AD8A401D0DA
:1001080001D009D0650E355C000E3658D8A001D054
:1001180001D001D0DED73C50050AD8A401D001D0C7
:1001280009D0470E355C000E3658D8A001D001D052
:1001380001D0CFD73C50060AD8A401D001D009D0AD
:10014800290E355C000E3658D8A001D001D001D058
:10015800C0D73C04D8A401D001D004D08B82356A22
:10016800366A08D03C6601D001D004D08B92356A3B
:10017800366A00D0F294A4A201D001D001D0A49292
:1001880017C0DAFF16C0D9FF15C0E2FF14C0E1FF9F
:1001980013C0E0FF12C0E8FF11C0D8FF1000CCEF79
:1001A80024F00001D66702D0FCEC10F0F29E010E9C
:1001B8001A6EC80E196E0201020E1C6EAC0E1B6E72
:1001C8001E6A010E1D6E61EC1FF019041A1002E080
:1001D800A1EF09F0F28E200E0001D825D96EDA6A57
:1001E800010EDA22ACC2DFFFD82B7F0ED86501D012
:1001F800D86B0201AC510D0A02E0A1EF09F0200E04
:100208000001D825D96EDA6A0101010EDA22DF6A07
:10021800276E200E266E7F0E296ED00E286E75EC86
:1002280023F0A3EC09F002E12650B1190FE17A0E90
:100238001B6EED0E1A6EE6EC25F01A6A196AFF0EAF
:100248001B686DEC28F0FF0093EF09F00101010E27
:10025800276E200E266E7F0E296EB70E286E75EC5F
:1002680023F0A3EC09F002E12650B1190CE1D66B9A
:10027800000EADEC28F07F0E1B6E800E1A6EE6ECB9
:1002880025F093EF09F00101010E276E200E266E6E
:100298007F0E296E5E0E286E75EC23F0A3EC09F034
:1002A80002E12650B1190DE1010ED66F000EADEC3A
:1002B80028F07F0E1B6E800E1A6EE6EC25F093EF89
:1002C80009F00101010E276E200E266E7F0E296EA1
:1002D800920E286E75EC23F0A3EC09F002E126508B
:1002E800B1190DE1010ED66F200EADEC28F07F0E8E
:1002F8001B6E800E1A6EE6EC25F093EF09F00101F3
:10030800010E276E200E266E7E0E296ECD0E286EEB
:1003180075EC23F0A3EC09F002E12650B1190CE1C9
:10032800D66B400EADEC28F07F0E1B6E800E1A6E59
:10033800E6EC25F093EF09F00101010E276E200E7F
:10034800266E7F0E296E500E286E75EC23F0A3ECF6
:1003580009F002E12650B1190CE1D66B600EADEC44
:1003680028F07F0E1B6E800E1A6EE6EC25F093EFD8
:1003780009F00101010E276E200E266E7F0E296EF0
:100388000E0E286E75EC23F0A3EC09F002E126505E
:10039800B1190AE165EC22F07F0E1B6E800E1A6E11
:1003A800E6EC25F093EF09F00101010E276E200E0F
:1003B800266E7F0E296E490E286E75EC23F0A3EC8D
:1003C80009F002E12650B11961E16F50E00B02011A
:1003D800B66FB6670BD00001D66708D07D0E1B6ECE
:1003E800830E1A6EE6EC25F093EF09F00201B65180
:1003F800010ED8A4000E0001D61508E07D0E1B6E74
:10040800970E1A6EE6EC25F093EF09F00201B6514B
:10041800200A08E17D0E1B6ED30E1A6EE6EC25F05D
:1004280093EF09F0B651400A08E17D0E1B6E060EE7
:100438001A6EE6EC25F093EF09F0B651600A08E170
:100448007B0E1B6ECF0E1A6EE6EC25F093EF09F0CB
:10045800B651800A08E17D0E1B6E6F0E1A6EE6EC2F
:1004680025F093EF09F0B651E00A08E17D0E1B6E06
:10047800E60E1A6EE6EC25F093EF09F07C0E1B6E83
:10048800490E1A6EE6EC25F093EF09F00101010E12
:10049800276E200E266E7F0E296EEB0E286E75ECE9
:1004A80023F0A3EC09F002E12650B11901E0D9D0FC
:1004B800F1EC09F01CEC22F025C0B7F226C0B8F226
:1004C800030E0001DD6F0201B851B71109E0B7C290
:1004D8001FF0B8C220F06DEC1BF01F500001DD6F5B
:1004E8000001DA6BDB6BAAEC09F01CEC22F025C0EA
:1004F800B7F226C0B8F20201B851B7110AE0B7C284
:100508001FF0B8C220F06DEC1BF01FC0DAF020C05D
:10051800DBF00001DF6BAAEC09F01CEC22F025C02F
:10052800B7F226C0B8F20201B851B71109E0B7C254
:100538001FF0B8C220F06DEC1BF01F500001DF6FF8
:100548000001DC6BAAEC09F01CEC22F025C0B7F224
:1005580026C0B8F20201B851B71109E0B7C21FF0BE
:10056800B8C220F06DEC1BF01F500001DC6F0001D9
:10057800DE6BAAEC09F01CEC22F025C0B7F226C00D
:10058800B8F20201B851B71109E0B7C21FF0B8C2FA
:1005980020F06DEC1BF01F500001DE6F400E196E4D
:1005A800000E1A6E0F0E1A6E5F0E19641A6A1C6A14
:1005B8001B6A1E6A080E1D6E57EC28F00201AA6B12
:1005C8001AD0AAEC09F01CEC22F025C0B7F226C01C
:1005D800B8F20201B851B71113E0AA51400FD96E11
:1005E800DA6AB7C21FF0B8C220F06DEC1BF01F50DA
:1005F800DF6E0201AA2B0001DE510201AA5DE1E3D0
:10060800DAC083F0DBC084F0DFC085F0DCC086F0A0
:10061800DDC087F0DEC088F0400E0001896F28EC4D
:1006280020F0000916E00101142B000E15231623F3
:1006380017230001DE5101011027000E1123122398
:1006480013237F0E1B6E800E1A6EE6EC25F093EFD7
:1006580009F07A0E1B6E490E1A6EE6EC25F093EF40
:1006680009F00101010E276E200E266E7F0E296EFD
:10067800E80E286E75EC23F0A3EC09F002E1265091
:10068800B11914E1FCEC10F0000908E07F0E1B6EB4
:10069800800E1A6EE6EC25F093EF09F07D0E1B6EC6
:1006A800F80E1A6EE6EC25F093EF09F00101010E41
:1006B800276E200E266E7F0E296ECB0E286E75ECE7
:1006C80023F0A3EC09F002E12650B11904E1B8ECDB
:1006D80015F093EF09F00101010E276E200E266E2A
:1006E8007F0E296ED90E286E75EC23F0A3EC09F065
:1006F80002E12650B11904E1AFEC0FF093EF09F0D5
:100708000101010E276E200E266E7F0E296EC60E81
:10071800286E75EC23F0A3EC09F002E12650B1191C
:100728000AE17CEC16F07F0E1B6E800E1A6EE6EC6A
:1007380025F093EF09F00101010E276E200E266EB9
:100748007F0E296EA30E286E75EC23F0A3EC09F03A
:1007580002E12650B11904E1D6EC1CF093EF09F040
:100768000101010E276E200E266E7F0E296EA80E3F
:10077800286E75EC23F0A3EC09F002E12650B119BC
:1007880001E0ABD10201AD6B010EAB6FD6EC09F005
:1007980029EC28F00101FBEC09F01CEC22F025C043
:1007A800B2F226C0B3F20201B351B2110AE0B2C2EA
:1007B8001FF0B3C220F06DEC1BF01F5002018C6FCC
:1007C80008D07C0E1B6E310E1A6EE6EC25F0A2EFF7
:1007D80009F004EC0AF01CEC22F025C0B2F226C0A5
:1007E800B3F20201B351B21133E0B2C219F0B3C28D
:1007F8001AF01C6A3A0E1B6E5FEC25F019C084F2E1
:100808001AC085F202018551841118E0B2C21FF0A6
:10081800B3C220F06DEC1BF01F500201AD6F8429AC
:100828000001B16F000E020185210001B26FB1C055
:100838001FF0B2C020F06DEC1BF006D0B2C21FF062
:10084800B3C220F06DEC1BF01F500201AE6F08D050
:100858007A0E1B6EAC0E1A6EE6EC25F0A2EF09F0CC
:1008680004EC0AF01CEC22F025C0B2F226C0B3F268
:100878000201B351B2110DE0B2C21FF0B3C220F0B1
:100888006DEC1BF01F500201AB6FAB6702D0010E7D
:10089800AB6F010EA06FB06B0AD10001ADC29EF024
:1008A8009F6B0201AE51B0250001A06FD9C0A1F025
:1008B800A26B020EA46FB10EA36F02018C5191ECD2
:1008C8001EF0000901E19BD07E0E1B6E5E0E1A6EB3
:1008D800E6EC25F00001D36705D07F0E0201956F85
:1008E800EE0E04D07F0E0201956F650E946F010E17
:1008F8000001616F700E606F94C262F095C263F080
:10090800ADC264F0656B3CEC0AF00101010E1B6E90
:10091800700E1A6EE6EC25F0ACA2FED73A0EC4ECC7
:1009280028F00001D36705D07F0E0201976FEE0E05
:1009380004D07F0E0201976F650E966F010E0001BD
:10094800616F700E606F96C262F097C263F018EC28
:100958000AF03CEC0AF00101010E1B6E700E1A6ED3
:10096800E6EC25F07E0E1B6EEA0E1A6EE6EC25F01C
:100978000001D36705D07F0E0201996FEE0E04D0F7
:100988007F0E0201996F650E986F010E0001616F6D
:10099800700E606F98C262F099C263F0B1C264F0E1
:1009A800656B3CEC0AF00101010E1B6E700E1A6EAD
:1009B800E6EC25F0ACA2FED7200EC4EC28F0ACA2E1
:1009C800FED7200E0201B16507D07F0EB16104D0B9
:1009D800B151C4EC28F003D02E0EC4EC28F0ACA220
:1009E800FED7200EC4EC28F00201B1515CEC26F0D1
:1009F800740E1B6EAE0E1A6EE6EC25F056D0020190
:100A0800A06B7A0E1B6E060E1A6EE6EC25F000013E
:100A1800D36705D07F0E02019B6FEE0E04D07F0EC8
:100A280002019B6F650E9A6F010E0001616F700ED7
:100A3800606F9AC262F09BC263F0ADC264F0656BEE
:100A48003CEC0AF00101010E1B6E700E1A6EE6EC0A
:100A580025F0ACA2FED73A0EC4EC28F00001D3670B
:100A680005D07F0E02019D6FEE0E04D07F0E0201AD
:100A78009D6F650E9C6F010E0001616F700E606FB7
:100A88009CC262F09DC263F018EC0AF03CEC0AF0DC
:100A98000101010E1B6E700E1A6EE6EC25F0740E45
:100AA8001B6EAE0E1A6EE6EC25F00201B02BAB51B0
:100AB800B05D01E2F2D6A05108E07F0E1B6E800EF9
:100AC8001A6EE6EC25F093EF09F0740E1B6E460ED5
:100AD8001A6EE6EC25F093EF09F00101010E276E7E
:100AE800200E266E7F0E296EAD0E286E75EC23F053
:100AF800A3EC09F002E12650B11901E0A8D00201E7
:100B0800A16BD6EC09F029EC28F00101FBEC09F007
:100B18001CEC22F025C0B4F226C0B5F20201B55192
:100B2800B4110AE0B4C21FF0B5C220F06DEC1BF09E
:100B38001F5002018D6F07D07C0E1B6E310E1A6E8E
:100B4800E6EC25F0FBD304EC0AF01CEC22F025C0FF
:100B5800B4F226C0B5F20201B551B41133E0B4C203
:100B680019F0B5C21AF01C6A3A0E1B6E5FEC25F03C
:100B780019C086F21AC087F202018751861118E05F
:100B8800B4C21FF0B5C220F06DEC1BF01F5002017B
:100B9800A16F86290001B16F000E020187210001B3
:100BA800B26FB1C01FF0B2C020F06DEC1BF006D0E0
:100BB800B4C21FF0B5C220F06DEC1BF01F5002014B
:100BC800A26F07D07A0E1B6EAC0E1A6EE6EC25F0FB
:100BD800B5D304EC0AF01CEC22F025C0B4F226C010
:100BE800B5F20201B551B4110AE0B4C21FF0B5C2A2
:100BF80020F06DEC1BF01F500201A76F07D07C0E90
:100C08001B6E610E1A6EE6EC25F098D30001A1C2A6
:100C18009EF09F6BA2C2A0F0D9C0A1F0A26B020EF9
:100C2800A46FA70EA36F02018D51B8EC1DF0000947
:100C380007E0790E1B6EC10E1A6EE6EC25F06FD335
:100C48007A0E1B6E8B0E1A6EE6EC25F068D3010146
:100C5800010E276E200E266E7F0E296EBC0E286EA2
:100C680075EC23F06CDB02E12650B11954E1010E5A
:100C78001A6E200E196E290E0001B16F010EB26FA7
:100C8800B1C01BF0B2C01CF029EC28F00101010E24
:100C9800206E200E1F6E6DEC1BF01F500201AF6F0F
:100CA8007D0E1B6EAB0E1A6EE6EC25F00001D367C5
:100CB80005D07F0E02019F6FEE0E04D07F0E020159
:100CC8009F6F650E9E6F010E0001616F700E606F61
:100CD8009EC262F09FC263F0AFC264F0656B3CECE9
:100CE8000AF00101010E1B6E700E1A6EE6EC25F07B
:100CF800740E1B6EAE0E1A6EE6EC25F00201AF51B3
:100D0800F9EC1EF00201AF51EAEC1AF00201AF5102
:100D1800D2EC21F004D30101010E276E200E266EBD
:100D28007F0E296E570E286E75EC23F008DB02E162
:100D38002650B11901E0C6D0010E42DB29EC28F09B
:100D48004CDB1CEC22F025C0B9F226C0BAF2020135
:100D5800BA51B91113E0B9C21FF0BAC220F06DEC54
:100D68001BF01F500201A86F0F0EA8650ED0720E5F
:100D78001B6E400E1A6EE6EC25F0E0D2780E1B6E64
:100D88001E0E1A6EE6EC25F0D9D2E0DA1CEC22F041
:100D980025C0B9F226C0BAF20201BA51B9110AE067
:100DA800B9C21FF0BAC220F06DEC1BF01F5002014F
:100DB8008E6F07D0770E1B6E530E1A6EE6EC25F079
:100DC800BDD2C4DA1CEC22F025C0B9F226C0BAF2B2
:100DD8000201BA51B9110BE0B9C21FF0BAC220F032
:100DE8006DEC1BF01FC088F220C089F207D0780E86
:100DF8001B6EBA0E1A6EE6EC25F0A0D2A7DA1CEC30
:100E080022F025C0B9F226C0BAF20201BA51B911CE
:100E18000AE0B9C21FF0BAC220F06DEC1BF01F50F7
:100E280002018F6F07D0790E1B6E080E1A6EE6EC62
:100E380025F084D28BDA1CEC22F025C0B9F226C04A
:100E4800BAF20201BA51B9110AE0B9C21FF0BAC226
:100E580020F06DEC1BF01F500201906F07D0770E49
:100E68001B6E7D0E1A6EE6EC25F068D2800EADEC96
:100E780028F08FC2B1F0CBDA88510001B56F0201BA
:100E88008951EBDA8EC2B9F068DA90510001C111CC
:100E98000201806F0001C2510201816F0001C3513C
:100EA8000201826F0001C4510201836F80C219F0F0
:100EB80081C21AF082C21BF083C21CF0A8513DEC1B
:100EC80013F02DD20101010E276E200E266E7F0E23
:100ED800296EB20E286E75EC23F031DA02E1265045
:100EE800B11901E0CDD0010E6BDA29EC28F075DAE2
:100EF8001CEC22F025C0BBF226C0BCF20201BC519A
:100F0800BB1113E0BBC21FF0BCC220F06DEC1BF09C
:100F18001F500201A96F010EA9650ED0750E1B6E38
:100F28004D0E1A6EE6EC25F009D2790E1B6E2E0EC8
:100F38001A6EE6EC25F002D209DA1CEC22F025C084
:100F4800BBF226C0BCF20201BC51BB110AE0BBC215
:100F58001FF0BCC220F06DEC1BF01F500201916F16
:100F680007D0770E1B6ECE0E1A6EE6EC25F0E6D192
:100F7800EDD91CEC22F025C0BBF226C0BCF2020160
:100F8800BC51BB110BE0BBC21FF0BCC220F06DEC22
:100F98001BF01FC08AF220C08BF207D0790E1B6E9F
:100FA800780E1A6EE6EC25F0C9D1D0D91CEC22F0E7
:100FB80025C0BBF226C0BCF20201BC51BB110AE03D
:100FC800BBC21FF0BCC220F06DEC1BF01F50020129
:100FD800926F07D0790E1B6E9D0E1A6EE6EC25F007
:100FE800ADD1B4D91CEC22F025C0BBF226C0BCF2AE
:100FF8000201BC51BB110AE0BBC21FF0BCC220F009
:101008006DEC1BF01F500201936F07D0780E1B6E1A
:10101800930E1A6EE6EC25F091D192C2B1F0F7D991
:101028008A510001B56F02018B5117DA91C2B9F0EC
:1010380094D993510001C1110201A36F0001C2515B
:101048000201A46F0001C3510201A56F0001C45140
:101058000201A66F800EADEC28F00201A95108E04C
:101068000F010F0E1A6E180EECD960EC1AF057D15A
:101078000F010F0E1A6E1C0EE4D960EC1AF04FD156
:101088000101010E276E200E266E7F0E296E9E0E20
:10109800286E75EC23F053D902E12650B11901E00E
:1010A80038D1010E1A6E200E196E240E0001B16F90
:1010B800010EB26FB1C01BF0B2C01CF029EC28F0D1
:1010C8000101010E276E200E266E7F0E296EDD0EA1
:1010D800286E75EC23F033D902E12650B11910E1DE
:1010E800010ED36F1A6A060E196E010E1B6E6DEC97
:1010F80028F0770E1B6E270E1A6EE6EC25F00FD13E
:101108000101010E276E200E266E7F0E296E060E37
:10111800286E75EC23F013D902E12650B1190FE1BE
:10112800D36B1A6A060E196E000E1B6A6DEC28F056
:10113800770E1B6EF60E1A6EE6EC25F0F0D0010164
:10114800010E276E200E266E7E0E296E870E286EE3
:1011580075EC23F02750261025E0010E1A6E200E9C
:10116800196E2A0E0001B16F010EB26FB1C01BF0EB
:10117800B2C01CF029EC28F00101010E206E200EEF
:101188001F6E6DEC1BF01F500001D96F0A0ED9615C
:1011980001D0D96F1A6A090E196ED9C01BF06DEC0F
:1011A80028F0BDD00101010E276E200E266E7E0E9E
:1011B800296EBB0E286E75EC23F02750261005E02B
:1011C800010EFED829EC28F0AAD00101010E276EE5
:1011D800200E266E7F0E296E860E286E75EC23F083
:1011E800275026105FE0DED829EC28F00101010E17
:1011F800276E200E266E7E0E296EFE0E286E75EC6A
:1012080023F02750261010E00001D76B1A6A030E4E
:10121800196E000E1B6A6DEC28F07B0E1B6E480ED3
:101228001A6EE6EC25F07BD00101010E276E200E28
:10123800266E7F0E296EC10E286E75EC23F027509E
:10124800261011E0010E0001D76F1A6A030E196EFD
:10125800010E1B6E6DEC28F07A0E1B6ECD0E1A6E09
:10126800E6EC25F05CD00101010E276E200E266EFB
:101278007F0E296E980E286E75EC23F027502610E5
:101288004EE0020E0001D76F1A6A030E196E020EA5
:101298001B6E6DEC28F07B0E1B6EB50E1A6EE6EC1D
:1012A80025F03DD00101010E276E200E266E7E0E20
:1012B800296EEE0E286E75EC23F02750261010E0EC
:1012C800010E1A6E200E196E270E0001B16F010E65
:1012D800B26FB1C01BF0B2C01CF029EC28F01FD0CF
:1012E8000101010E276E200E266E7F0E296E8C0ED0
:1012F800286E75EC23F02750261004E053D829EC0B
:1013080028F00DD07A0E1B6E6A0E1A6EE6EC25F0E8
:1013180006D07B0E1B6E7F0E1A6EE6EC25F00101DF
:10132800010E1A6E200E196E1C6A1B6A1E6A500E78
:101338001D6E57EC28F00001D86BF28E1200200EBB
:101348000001B16F010EB26F27181200266A256AD4
:101358007F0E286EF50E276E1200BA6BBB6BBC6B46
:101368001A0ED890B937BA37BB37BC37E82EF9D739
:10137800B551B911BD6FB651BA11BE6FB751BB1196
:10138800BF6FB851BC11C06FB151BD11C16FB2511F
:10139800BE11C26FB351BF11C36FB451C011C46F36
:1013A80002011200010E1A6E200E196E250E0001A0
:1013B800B16F010EB26FB1C01BF0B2C01CF01200C9
:1013C8001A6E200E196E280E0001B16F010EB26F51
:1013D800B1C01BF0B2C01CF012000101010E266E54
:1013E800200E256E7F0E286EF50E276E1200010E58
:1013F800266E200E256E7F0E286E2B0E276E12008D
:10140800266A256A7F0E286E2B0E276E12000001B1
:10141800B26BB36BB46BB3C0B4F0B2C0B3F0B1C0CD
:10142800B2F0B16B020112000201B051AEC2B1F0CC
:101438000001B26BB127000EB223B151646F656B26
:101448001200196EA3C21BF0A4C21CF0A5C21DF0A5
:10145800A6C21EF0010E1F6E010C0001B66FB76B1D
:10146800B86BB6C0B8F0B5C0B7F0B66BB56B1200C4
:10147800640E6F6F32D37851250A09E060C0D9FF36
:1014880061C0DAFF78C0DFFF604B612B26D3726B37
:10149800736B796B7A6B09D0798705D0798103D022
:1014A8007A8701D07985624B632B62C0F6FF63C0EF
:1014B800F7FF0800F550200AF1E0030AF1E00E0AF0
:1014C800EBE01D0AEFE079B7799562C0F6FF63C0DB
:1014D800F7FF0800F55080EC28F027E30001726B55
:1014E800736B72C019F073C01AF01C6A0A0E1B6E77
:1014F80010EC28F019C072F01AC073F0000162C035
:10150800F6FF63C0F7FF0800F5CF2FF0D00E2F24A9
:10151800306E316AFF0E31223050722731507323FA
:101528003ADB80EC28F015E3DCD7000162C0F6FF57
:1015380063C0F7FF0800F5502A0A0BE16F51D96E16
:10154800DA6ADECF72F0DDCF73F0020E6F27624BDE
:10155800632B000162C0F6FF63C0F7FF0800F55077
:101568002E0A38E17A8D17DB2A0A0CE16F51D96E01
:10157800DA6ADECF70F0DDCF71F0020E6F27624BB2
:10158800632B89D0706B716B1BD070C019F071C060
:101598001AF01C6A0A0E1B6E10EC28F0000162C0DB
:1015A800F6FF63C0F7FF0800F5501926000E1A224F
:1015B800D00E1924706FFF0E1A20716F624B632BC7
:1015C80062C0F6FF63C0F7FF0800F55080EC28F012
:1015D80062E3DBD7706B716B5ED079895CD0798DF3
:1015E80070D0798B798F6DD07151701109E0755178
:1015F800705D7651715904E270C075F071C076F073
:101608007251755D7351765907E220EE75F0DE5020
:10161800725FDD50735B02D0726B736B79A704D075
:1016280015D0A8DA604B612B7207C3DAD8B47329D6
:101638000DE0F7D77451D96EDA6A60C0E1FF61C076
:10164800E2FFDFCFE7FF742B604B612B7507D8A053
:10165800760700017529D8B47629ECE179B704D06A
:101668003CD288DA604B612B7207A3DAD8B47329AD
:1016780001E133D2F6D76F51D96EDA6ADF50786F4D
:10168800020E6F27780E746F766B010E756FACD7EC
:10169800C00E791316D0000174DA785101E121D215
:1016A800580A9FE03B0AE7E0070A0BE00D0A09E049
:1016B800050A93E0030A93E01A0AEAE00D0A92E0A9
:1016C800E1D77951C00B20E179A903D06F5147DAEE
:1016D8000DD06F51D96EDA6ADECF74F0DDCF75F0B8
:1016E800000E75BFFF0E766F776F020E6F2777AF0C
:1016F8001FD0030E7913771F761F751F746D000EA8
:1017080075237623772314D079A903D06F5127DA6C
:101718000ED06F51D96EDA6ADECF2FF0DDCF30F000
:101728002FC074F030C075F0766B776B020E6F27A0
:10173800715170115CE1775174117511761157E18F
:10174800704B712B54D0010E786F78510A0A58E00B
:101758007851040D080EF324F66E700EF420F76E1F
:101768000900F550745D0900F55075590900F550E8
:1017780076590900F550775943E3782BE6D7010EDF
:10178800786F7851080A3CE07851040D300EF32444
:10179800F66E700EF420F76E0900F550745D0900BE
:1017A800F55075590900F55076590900F5507759E3
:1017B80027E3782BE6D7010E786F78510C0A20E0E2
:1017C8007851040DD80EF324F66E6F0EF420F76EE0
:1017D8000900F550745D0900F55075590900F55078
:1017E80076590900F55077590BE3782BE6D77951EC
:1017F800C00BA9E0400ADFE0C00AC1E0400AA3E04C
:10180800800E78BF7F0E2F6E7051785D7151800AFF
:101818002F5803E270C078F00FD07151800A2F6EF4
:101828007851705D800E78BF7F0E2F5805E2785191
:10183800706F716B70BF71077351721106E0795147
:10184800030B03E07207D8A073077AAD10D071516B
:10185800800A2F6E7251705D7351800A2F5805E20D
:101868007051725F7151735B02D0726B736BC40EEF
:101878004ED9400ED8B42F1807E17351721118E0F1
:101888007207D8A0730714D0C00E41D9800ED8B4FF
:101898002F180EE17351800A800F030ED8B4725DC1
:1018A80005E3FE0E7227FF0E732302D0726B736B73
:1018B800800E78BF7F0E2F6E7251785D7351800A4B
:1018C8002F5807E27851725F000E78BFFF0E735BE6
:1018D80002D0726B736B79A53CD07951030B09E088
:1018E80060C0D9FF61C0DAFF2D0EDF6E604B612B3F
:1018F80022D079A106D060C0D9FF61C0DAFF200EDE
:10190800F4D7C00E04D9800ED8B42F1814E160C0E3
:10191800D9FF4AD9604B612B79BB03D06A6B780E2B
:1019280002D06A6B580E696F60C0D9FF61C0DAFFD8
:1019380069C0DFFFDBD77351721101E1B9D060C014
:10194800D9FF32D9604B612B7207D8A07307000109
:10195800F2D773517211D8A479B704D060C0D9FFF7
:10196800F1D8FCE17951030B09E060C0D9FF61C0EF
:10197800DAFF2D0EDF6E604B612B08D079A106D0FF
:1019880060C0D9FF61C0DAFF200EF4D7C00EBFD8FF
:10199800400ED8B42F1806E160C0D9FF05D9604BB6
:1019A800612B86D0C00EB3D8800ED8B42F1801E0B2
:1019B8007FD060C0D9FFF8D8604B612B79BB03D0CA
:1019C8006C6B780E02D06C6B580E6B6F60C0D9FFD1
:1019D80061C0DAFF6BC0DFFFE2D770C02FF071C0C3
:1019E80030F0D8902F363036D8902F363036080E53
:1019F8002F24F66E700E7CD874C019F075C01AF0DA
:101A080076C01BF077C01CF0ECEC23F01CC029F06A
:101A18001BC028F01AC027F019C026F00A0E2A6E3B
:101A2800000E2B6A2C6A2D6A2EEC25F026502DD03C
:101A380076D8300E2F24F66E700E5AD8ECEC23F0C0
:101A480019500F0B686F79BB04D07E0E6E6F2D0E88
:101A580003D07E0E6E6F1C0E6D6F68516D252F6E54
:101A6800000E6E21306E2FC0F6FF30C0F7FF080061
:101A7800F5CF78F016D053D8D80E2F24F66E6F0E07
:101A880037D8ECEC23F01950070B300F786F09D0DA
:101A98007951C00BA2E0400AEEE0C00AC9E0400A52
:101AA8009CE060C0D9FF61C0DAFF78C0DFFF77D75C
:101AB8007007D8A0710700017029D8B47129E8E12E
:101AC80079A70BD07351800A800F010ED8B4725DCC
:101AD80004E360C0D9FF36D8FCE153D80001786729
:101AE800CAD460C0D9FF61C0DAFF000EDF6E000CF7
:101AF8003020F76E0900F5CF1DF00900F5CF1EF074
:101B08000900F5CF1FF00A00F5CF20F01200791573
:101B18002F6E080E7A15306E3050080A120074C005
:101B280019F075C01AF076C01BF077C01CF070C0B1
:101B38002FF071C030F0D8902F363036D8902F362D
:101B48003036120061C0DAFF200EDF6E604B612B69
:101B58007207D8A073070001735172111200D96E71
:101B6800DA6ADECF74F0DECF75F0DECF76F0DECF46
:101B780077F0040C60C0D9FF61C0DAFF200EDF6E79
:101B8800200C62C0F6FF63C0F7FF624B632B0800AE
:101B9800F5CF78F01200624B632B62C0F6FF63C08A
:101BA800F7FF0800F550120061C0DAFF300EDF6E53
:101BB800300CD8A07307000172291200906B2BEC2F
:101BC80014F0F29E010E1A6EC80E196E0001000E76
:101BD8001C6E8F0E1B6E1E6A010E1D6E61EC1FF0CF
:101BE80019041A1001E0AFD1F28E00018F510D0ACD
:101BF80001E160D1200ED825D96EDA6A010EDA2209
:101C08008FC0DFFFD82BA0D10101010E1A6E200E64
:101C1800196E82EC27F019041A1001E076D17D0EB6
:101C28001B6E5B0E1A6EE6EC25F0010EEDD001017D
:101C3800010E1A6E200E196E82EC27F019041A1084
:101C480001E063D17E0E1B6ED60E1A6EE6EC25F00F
:101C5800ECD70101010E1A6E200E196E82EC27F0E6
:101C680019041A1001E051D17E0E1B6EDE0E1A6E99
:101C7800E6EC25F0DAD7010ED46FC7D0D56703D0CC
:101C8800010ED46F906F0101010E1A6E200E196EAD
:101C980082EC27F019041A1001E037D10001D5674A
:101CA80034D1D45101E131D1000EADEC28F0010E50
:101CB8000001D56FBAD70101010E1A6E200E196EF8
:101CC80082EC27F019041A1001E01FD10001D55148
:101CD800ACE0200EADEC28F00001D56BA6D7D551AD
:101CE80001E113D10101010E1A6E200E196E82EC6A
:101CF80027F00A0E195C000E1A5801E206D10101FC
:101D0800010E1E6E700E1D6E500E1F6E010E216E9E
:101D1800200E206E85EC21F00001836F050E835D97
:101D280001E2F3D073C183F0080E832772C184F0F7
:101D3800100E842771C185F0180E852770C186F0B2
:101D4800876B886B896B852B01D0FFD8852FFDD7D2
:101D5800842B01D0FAD8842FFDD7832B01D0F5D856
:101D6800832FFDD789C08DF088C08CF087C08BF099
:101D780086C08AF044C08EF0080E8E6501D0C5D0AA
:101D8800D8908E35836F846B84370A0E8327000EB4
:101D980084230101010E1A6E200E196E82EC27F0C1
:101DA80000018351195C84511A5801E2AED0400EEB
:101DB800196E000E1A6E0F0E1A6E5F0E19641A6AEB
:101DC800450E1B6E000E1C6E0F0E1C6E5F0E1B6404
:101DD8001C6A8EC01DF01E6AE5EC26F08AC07CF0F5
:101DE8008BC07DF08CC07EF08DC07FF08EC080F0FF
:101DF800400E0001816F000E826F0F0E826F5F0E22
:101E08008165826BA0EC27F00001906F7ED0D551E0
:101E18007CE00101010E1A6E200E196E82EC27F08B
:101E280019041A1072E17F0E1B6E7A0E1A6EE6EC18
:101E380025F06BD00101010E1A6E200E196E82EC8E
:101E480027F01950020A1A1060E10001D5675DD029
:101E580001012151300A09E13D6A1A6A050E196E1D
:101E6800000E1B6A6DEC28F0E0D62151310A0AE118
:101E7800010E3D6E1A6A050E196E010E1B6E6DEC91
:101E880028F0D3D60001906B40D01A6A010E196E63
:101E9800FF0E1B686DEC28F0FF0037D00101010E22
:101EA8001A6E200E196E82EC27F01A50191001E1F3
:101EB800BCD62BD08F51420AE8E0010A01E1FBD6DB
:101EC800050AA5E00C0A01E19FD6070A01E1ADD693
:101ED800030A01E1BED6010A01E1D5D61D0A15E0C3
:101EE800010A01E1C8D6070A01E1F9D6020A01E1AF
:101EF8009ED60C0A9FE0370A01E197D61F0A05E033
:101F0800010A01E1BBD6070AC9E10001905107E0C7
:101F18007F0E1B6EF30E1A6EE6EC25F006D07F0ED0
:101F28001B6EF10E1A6EE6EC25F00101010E1A6E19
:101F3800200E196E1C6A1B6A1E6A500E1D6E57EC25
:101F480028F00001D86BF28E1200D89086378737B8
:101F58008837893712007C0E1B6ED80E1A6EE6EC95
:101F680025F00001D36704D07F0E7C6FE10E03D00B
:101F78007F0E7C6F160E7B6F010E0001616F700E75
:101F8800606F7BC062F07CC063F000C164F001C187
:101F980065F002C166F003C167F03CEC0AF001018C
:101FA800010E1B6E700E1A6EE6EC25F0740E1B6E99
:101FB800AE0E1A6EE6EC25F07C0E1B6EA90E1A6E9C
:101FC800E6EC25F00001D36704D07F0E7E6FE10EAA
:101FD80003D07F0E7E6F160E7D6F010E0001616FBC
:101FE800700E606F7DC062F07EC063F004C164F063
:101FF80005C165F006C166F007C167F03CEC0AF060
:102008000101010E1B6E700E1A6EE6EC25F0740EBF
:102018001B6EAE0E1A6EE6EC25F07C0E1B6E910E52
:102028001A6EE6EC25F00001D36704D07F0E806FAE
:10203800E10E03D07F0E806F160E7F6F010E000138
:10204800616F700E606F7FC062F080C063F018C16E
:1020580064F019C165F01AC166F01BC167F03CEC69
:102068000AF00101010E1B6E700E1A6EE6EC25F0E7
:10207800740E1B6EAE0E1A6EE6EC25F07C0E1B6E0F
:10208800910E1A6EE6EC25F00001D36704D07F0E9E
:10209800826FE10E03D07F0E826F160E816F010EE4
:1020A8000001616F700E606F81C062F082C063F0E2
:1020B8001CC164F01DC165F01EC166F01FC167F048
:1020C8003CEC0AF00101010E1B6E700E1A6EE6EC74
:1020D80025F0740E1B6EAE0E1A6EE6EC25F07B0E24
:1020E8001B6EE80E1A6EE6EC25F00001D36704D0EB
:1020F8007F0E846FEE0E03D07F0E846F650E836FA4
:10210800010E0001616F700E606F83C062F084C0C1
:1021180063F076CF64F0656B3CEC0AF00101010EC8
:102128001B6E700E1A6EE6EC25F0740E1B6EAE0E6A
:102138001A6EE6EC25F074A406D0720E1B6EC00E63
:102148001A6EE6EC25F074AA06D0740E1B6E7C0E8F
:102158001A6EE6EC25F074A806D0720E1B6EFA0E05
:102168001A6EE6EC25F07C0E1B6E790E1A6EE6EC04
:1021780025F00001D36704D07F0E866FEE0E03D0E2
:102188007F0E866F650E856F010E0001616F700E00
:10219800606F85C062F086C063F075CF64F0656BD0
:1021A8003CEC0AF00101010E1B6E700E1A6EE6EC93
:1021B80025F0740E1B6EAE0E1A6EE6EC25F074A2B6
:1021C80006D0730E1B6E6B0E1A6EE6EC25F074A625
:1021D80006D0740E1B6E100E1A6EE6EC25F074A075
:1021E80006D0740E1B6EE60E1A6EE6EC25F0120091
:1021F800DF0E606FDC0E616FDD0E626FDE0E636FE7
:10220800400E646FDA0EF2EC22F0000901E129D1E8
:1022180001010C2B000E0D230E230F230001DE51AC
:1022280001010827000E09230A230B237F0E1B6ECA
:10223800420E1A6EE6EC25F00001D36704D07F0E3B
:10224800816FEE0E03D07F0E816F650E806F010ED9
:102258000001616F700E606F80C062F081C063F032
:10226800DDC064F0656B3CEC0AF00101010E1B6EE9
:10227800700E1A6EE6EC25F07E0E1B6EF60E1A6EC8
:10228800E6EC25F00001D36704D07F0E836FEE0ED5
:1022980003D07F0E836F6C0E826F010E0001616F99
:1022A800700E606F82C062F083C063F0DAC064F0C1
:1022B800DBC065F03CEC0AF00101010E1B6E700EEC
:1022C8001A6EE6EC25F07F0E1B6E340E1A6EE6ECE5
:1022D80025F00001D36704D07F0E856FEE0E03D082
:1022E8007F0E856F650E846F010E0001616F700EA1
:1022F800606F84C062F085C063F0DFC064F0656B16
:102308003CEC0AF00101010E1B6E700E1A6EE6EC31
:1023180025F07E0E1B6EC40E1A6EE6EC25F0000149
:10232800D36704D07F0E876FEE0E03D07F0E876FC2
:10233800650E866F010E0001616F700E606F86C0BA
:1023480062F087C063F0DCC064F0656B3CEC0AF0B7
:102358000101010E1B6E700E1A6EE6EC25F07F0E61
:102368001B6E3B0E1A6EE6EC25F00001D36704D015
:102378007F0E896FEE0E03D07F0E896F650E886F12
:10238800010E0001616F700E606F88C062F089C035
:1023980063F0DEC064F0656B3CEC0AF00101010EED
:1023A8001B6E700E1A6EE6EC25F00001DE514BE054
:1023B8007F0E1B6E2D0E1A6EE6EC25F000018C6B5D
:1023C8003ED0D36704D07F0E8B6FEE0E03D07F0E06
:1023D8008B6F650E8A6F010E0001616F700E606F62
:1023E8008AC062F08BC063F08C51400FD96EDA6AF4
:1023F800DF50646F656B3CEC0AF00101010E1B6E47
:10240800700E1A6EE6EC25F0FF0E0001DE257B6FDC
:102418007C6BFF0E7C238C517D6F7E6B7E51800A16
:102428007F6F7B517D5D7C51800A7F5906E27F0E6C
:102438001B6EF50E1A6EE6EC25F000018C2BDE51B2
:102448008C5D07E2BED77E0E1B6E920E1A6EE6EC0E
:1024580025F07F0E1B6ED50E1A6EE6EC25F0010EE8
:1024680001D0000E1200E8CF24F03A6A7750C00B72
:10247800286E286632D060AE12D0A49074AE06D012
:102488002350D96EDA6A000EDB86749E60A002D0F3
:102498003A8001D03A900F0E2B6E600E1AD00F01C1
:1024A80050AF19D0A49274AC06D02350D96EDA6A12
:1024B800000EDB86749C5051070B3A6E020E3A6090
:1024C80005D02350D96EDA6A000EDB8E0F0E2B6E04
:1024D800500E2A6E65D0000EC4D02850400A46E13E
:1024E80060AE04D00F0E2B6E600E3ED00F0150AFC1
:1024F80004D00F0E2B6E500E37D00D01F8B507D053
:102508000E0120AF04D00E0E2B6E200E2DD00D0123
:10251800F8B707D00E0130AF04D00E0E2B6E300E78
:1025280023D00D01F8B907D00E0140AF04D00E0E2C
:102538002B6E400E19D00D01F8BB05D00E0150AF1F
:1025480002D00E0ED7D70D01F8BD05D00E0160AF31
:1025580002D00E0EC8D70D01F8BFBDD70E0170AF5F
:10256800BAD70E0E2B6E700E2A6E0AD074AEB3D781
:102578006F50070BB1EC23F019C02AF01AC02BF0EA
:102588002AC0D9FF2BC0DAFFDF501F0B3A6EA49286
:1025980074AC06D02350D96EDA6A000EDB86749CC0
:1025A8002AC025F02BC026F02350D96EDA6ADF6ADC
:1025B80020EE05F057D82250D96EDA6A29500F0B51
:1025C800DF6E29AC05D02350D96EDA6A000EDB8C99
:1025D80020EE02F047D829A608D02350D96EDA6A2F
:1025E800000EDB8A010E296E01D0296A2A28196E8D
:1025F800000E2B201A6E24C01BF029C01CF0D1EC51
:1026080019F0060E2A26000E2B222250D96EDA6AFD
:10261800DF50296E276A0FD02AC0D9FF2BC0DAFFF6
:1026280020C0E1FF21C0E2FFDFCFE7FF2A4A2B2AC3
:10263800204A212A272A2950275CEEE3A4AE06D097
:102648002350D96EDA6A000EDB88A49E25C0D9FF14
:1026580026C0DAFF7F0EDF162850800AD8B4749E91
:10266800010E12002A50D9262B50DA22DF50296E8B
:102678001200E8CF23F0150E1D6E19C01EF01AC007
:102688001FF01BC020F01CC021F01D6601D007D030
:102698002134213220321F321E321D2EF6D71E5011
:1026A800246E19C01DF0030E1D160D0E1E6E19C0E6
:1026B8001FF01AC020F01BC021F01CC022F01E66BB
:1026C80001D007D022342232213220321F321E2E6E
:1026D800F6D71F50E00B1D100809256E1AC026F00A
:1026E80019C027F090D024C000FF25C001FF26C0E4
:1026F80002FF27C003FFAAD024C004FF25C005FF9E
:1027080026C006FF27C007FFA1D024C008FF25C0A8
:1027180009FF26C00AFF27C00BFF98D024C00CFF72
:1027280025C00DFF26C00EFF27C00FFF8FD024C085
:1027380010FF25C011FF26C012FF27C013FF86D047
:1027480024C014FF25C015FF26C016FF27C017FF99
:102758007DD024C060FD25C061FD26C062FD27C074
:1027680063FD74D024C064FD25C065FD26C066FDE8
:1027780027C067FD6BD024C068FD25C069FD26C051
:102788006AFD27C06BFD62D024C070FD25C071FDB5
:1027980026C072FD27C073FD59D024C074FD25C022
:1027A80075FD26C076FD27C077FD50D024C078FD82
:1027B80025C079FD26C07AFD27C07BFD47D024C0FF
:1027C80080FD25C081FD26C082FD27C083FD3ED047
:1027D80024C084FD25C085FD26C086FD27C087FD51
:1027E80035D024C088FD25C089FD26C08AFD27C0B4
:1027F8008BFD2CD024C090FD25C091FD26C092FDF4
:1028080027C093FD23D0235001E16DD7010A01E1D0
:1028180073D7030A01E179D7010A80E0070A87E044
:10282800010A8EE0030A95E0010A9CE00F0AA3E082
:10283800010AAAE0030AB1E0010AB8E0070ABFE00A
:10284800010AC6E0030ACDE0010AD4E01200700EC6
:102858002C6E400E2D6E000E2E6E0F0E2E6E5F0E1D
:102868002D642E6A710E40EC28F0000901E1B0D009
:1028780001010C2B000E0D230E230F2300017051B4
:1028880001010827000E09230A230B23ACA2FED757
:10289800540EC4EC28F0010E0001616F700E606FD9
:1028A80071C062F072C063F073C064F074C065F008
:1028B800676B100E666F63EC1CF0756B766BACA2E1
:1028C800FED7300EC4EC28F084D8D8B4755DF7E391
:1028D8000101010E1B6E700E1A6EE6EC25F0010E5A
:1028E8002A6E700E296E000170C02BF02C6A2E6AB9
:1028F800100E2D6ED9EC27F0ACA2FED70101705155
:10290800C4EC28F00001756B766B2BD0010E2A6E93
:10291800700E296E00017551400FD96EDA6ADF50CA
:102928002B6E2C6A2E6A100E2D6ED9EC27F0010141
:10293800010E1A6E700E196E82EC27F01950020AF9
:102948001A1005E0ACA2FED7300EC4EC28F0010145
:10295800010E1B6E700E1A6EE6EC25F00001754B29
:10296800762B70516D6F6E6B7651800A6F6F6D515B
:10297800755D6E51800A6F59C9E33D5024E0010E20
:102988000001616F700E606FCFC062F0D0C063F05D
:10299800D1C064F0D2C065F0676B100E666F63EC4F
:1029A8001CF0756B766BACA2FED7300EC4EC28F029
:1029B80010D8D8B4755DF7E30101010E1B6E700ED7
:1029C8001A6EE6EC25F0ACA2FED70D0EC4EC28F08A
:1029D80012000001754B762B7651800A800FB80CD7
:1029E800D66702D09AEC18F0F29E0101010E1A6E19
:1029F800C80E196E310E1B6E000E1C6E0F0E1C6E6B
:102A08005F0E1B641C6A1E6A010E1D6E61EC1FF0CE
:102A180019041A1001E09BD0F28E3F660ED03B508D
:102A280009E03B6A3150020A22E1010E3F6E0001C3
:102A3800D86B1DD0010E3B6E8BD03F0418E13B5084
:102A48000CE03B6A3150030A03E1020E3F6E0FD0DF
:102A58003150100A0CE17DD87BD03150100AEAE0E1
:102A680078D87F0ED86574D0D86B3F6A71D03F5044
:102A7800020A6DE13F6A0101010E266E200E256EE5
:102A8800D8C027F0BDEC27F0000903E0010E25ECC3
:102A98001EF00101206703D086EC20F055D02005F8
:102AA80053E02051020A07E149EC1DF00009F4E166
:102AB800C8EC1FF049D02051030AFAE02051040A5B
:102AC800F7E020293EE1256705D0000E286AECECE6
:102AD8001BF03AD0250509E1000EADEC28F0010EF7
:102AE800286E000EECEC1BF02FD02551020A09E1EC
:102AF800400EADEC28F0020E286E000EECEC1BF038
:102B080023D02551030A09E1600EADEC28F0030E2D
:102B1800286E000EECEC1BF017D02551040A09E1D1
:102B2800200EADEC28F0040E286E000EECEC1BF025
:102B38000BD02551050A08E1000E286AECEC1BF0C1
:102B480003D0020E25EC1EF00001D86B3F6AF28E0E
:102B58001200200E0001D825D96EDA6A010EDA2299
:102B680031C0DFFFD82B12007E0E1B6E0A0E1A6EC4
:102B7800E6EC25F00001D36704D07F0E7C6FE10EF0
:102B880003D07F0E7C6F730E7B6F010E0001616FA7
:102B9800700E606F7BC062F07CC063F014C164F09B
:102BA80015C165F016C166F017C167F03CEC0AF074
:102BB8000101010E1B6E700E1A6EE6EC25F0740E04
:102BC8001B6EAE0E1A6EE6EC25F07E0E1B6E3E0EE8
:102BD8001A6EE6EC25F00001D36704D07F0E7E6FF5
:102BE800E10E03D07F0E7E6F730E7D6F010E000124
:102BF800616F700E606F7DC062F07EC063F010C1BF
:102C080064F011C165F012C166F013C167F03CECC5
:102C18000AF00101010E1B6E700E1A6EE6EC25F02B
:102C2800740E1B6EAE0E1A6EE6EC25F07D0E1B6E52
:102C38001C0E1A6EE6EC25F00001D36704D07F0E57
:102C4800806FE10E03D07F0E806F730E7F6F010ED1
:102C58000001616F700E606F7FC062F080C063F02A
:102C68000CC164F00DC165F00EC166F00FC167F0CC
:102C78003CEC0AF00101010E1B6E700E1A6EE6ECB8
:102C880025F0740E1B6EAE0E1A6EE6EC25F07D0E66
:102C98001B6E320E1A6EE6EC25F00001D36704D0E5
:102CA8007F0E826FE10E03D07F0E826F730E816FED
:102CB800010E0001616F700E606F81C062F082C00A
:102CC80063F008C164F009C165F00AC166F00BC180
:102CD80067F03CEC0AF00101010E1B6E700E1A6ED3
:102CE800E6EC25F0740E1B6EAE0E1A6EE6EF25F0BC
:102CF800780E1B6E6C0E1A6EE6EC25F0710E1B6ECC
:102D0800930E1A6EE6EC25F07B0E1B6E640E1A6E9F
:102D1800E6EC25F0760E1B6EFB0E1A6EE6EC25F03F
:102D2800760E1B6EA10E1A6EE6EC25F0750E1B6E64
:102D38001A0E1A6EE6EC25F0750E1B6E7F0E1A6ED3
:102D4800E6EC25F07B0E1B6E0C0E1A6EE6EC25F0F9
:102D5800750E1B6EB10E1A6EE6EC25F0760E1B6E24
:102D6800CF0E1A6EE6EC25F07C0E1B6E010E1A6E65
:102D7800E6EC25F0730E1B6E330E1A6EE6EC25F0AA
:102D88007C0E1B6EC10E1A6EE6EC25F07A0E1B6ED9
:102D9800280E1A6EE6EC25F0780E1B6E450E1A6E9C
:102DA800E6EC25F0770E1B6EA60E1A6EE6EC25F003
:102DB800760E1B6E720E1A6EE6EC25F0710E1B6E07
:102DC800320E1A6EE6EC25F0710E1B6EFD0E1A6EB1
:102DD800E6EC25F0700E1B6E9E0E1A6EE6EC25F0E2
:102DE8007C0E1B6E190E1A6EE6EC25F0700E1B6E2B
:102DF800500E1A6EE6EC25F07D0E1B6E470E1A6E0D
:102E0800E6EC25F0700E1B6EEB0E1A6EE6EC25F064
:102E1800790E1B6EE40E1A6EE6EC25F0760E1B6E2C
:102E2800430E1A6EE6EC25F0760E1B6E140E1A6E23
:102E3800E6EC25F0710E1B6EBA0E1A6EE6EC25F064
:102E4800750E1B6EE30E1A6EE6EC25F0730E1B6E04
:102E5800A20E1A6EE6EC25F0720E1B6E820E1A6E2A
:102E6800E6EC25F0780E1B6EE10E1A6EE6EF25F003
:102E78000F0E0001616F400E606F0F0E636F300E12
:102E8800626F0F0E656F200E646F0E0E676F200E57
:102E9800666F0E0E696F300E686F0E0E6B6F400E08
:102EA8006A6F0E0E6D6F500E6C6F0E0E6F6F600EA8
:102EB8006E6F0E0E716F700E706F7750C00B726F61
:102EC800726702D0020E01D0080E736F0D01D89000
:102ED800F8310001756F796B7ED07951020DF3508E
:102EE800600FD96EDA6ADECF7AF0DDCF7BF07AC078
:102EF80076F07BC077F0020E796504D0D8907533F0
:102F080075A168D07AC0D9FF7BC0DAFFDF502B6E7D
:102F18002BB660D07AC0D9FF7BC0DAFFFC0EDF1673
:102F28002AC02BF0030E2B167AC0D9FF7BC0DAFF1C
:102F38002B50DF122AAC04D029504009786F02D0F8
:102F480029C078F020EE05F07A51D9267B51DA2293
:102F580078C0DFFF2AAA03D0010E786F01D0786B02
:102F68007A29196E000E7B211A6E23C01BF024C02B
:102F78001CF025C01DF026C01EF078C01FF060ECC4
:102F88001AF0060E00017A27000E7B23746B0FD00F
:102F980027C0D9FF28C0DAFF7AC0E1FF7BC0E2FF73
:102FA800DFCFE7FF274A282A7A4B7B2B742B29503F
:102FB800745DEEE376C0D9FF77C0DAFFDF502B6E81
:102FC8002BB406D076C0D9FF77C0DAFF000EDB86B7
:102FD800010E06D0792B7351795D01E27ED7000E80
:102FE8001200010E1A6EC80E196E0201020E1C6E36
:102FF800000E1B6E1E6A800E1D6E05EC27F0010187
:10300800010E1A6EC00E196E040E1C6E000E1B6E99
:10301800010E1E6EEE0E1D6E05EC27F097EC24F0E7
:103028001A6A010E196ED7EC28F0550A07E11A6AD8
:10303800020E196ED7EC28F0AA0AD8A4E9EC28F0F9
:10304800C3EC26F0820E326EDD0EE82EFED7322E4D
:10305800FCD700D0790E1B6E530E1A6EE6EC25F0E5
:10306800740E1B6EB10E1A6EE6EC25F065EC22F0BC
:1030780027EC24F02AD00400010E1A6EC80E196E2F
:103088000001000E1C6ECA0E1B6E1E6A010E1D6E1C
:1030980061EC1FF019041A100DE1F28E0001CA51FB
:1030A800760A08E1D76B7B0E1B6E2B0E1A6EE6ECC8
:1030B80025F00BD0F28EB80E0001CB5D0B0ECC596B
:1030C800000ECD59000ECE59D6E3010E3C6E040019
:1030D80074AA02D0060E09D074B802D074A602D021
:1030E800050E03D0040E74A0010E3C6E74AC07D01C
:1030F8000101002B000E012302230323749C00010D
:10310800D76703D0D5EC00F0E2D7D70503E1F4EC9C
:1031180014F0DDD7D751020A03E1E2EC0DF0D7D75E
:10312800D751030AEFE1EDEC28F0D1D7690E2C6EE8
:10313800000E2E6E600E2D6E6A0E40EC28F000090F
:1031480001E190D000016E6B01010C2B000E0D23E4
:103158000E230F230001695101010827000E0923DE
:103168000A230B23ACA2FED7100EC4EC28F0ACA2A5
:10317800FED7020EC4EC28F0ACA2FED7020EC4ECB7
:1031880028F00001000E216E6E0E206E020E226ED7
:10319800F5EC27F0ACA2FED7000EC4EC28F0000135
:1031A800000E216E6E0E206E000E226AF5EC27F0DE
:1031B8000001000E266E6E0E256E3E5060EC24F067
:1031C8003E2A0001000E266E6E0E256E000E60EC83
:1031D80024F049D8040F60EC24F0000E266E6E0E21
:1031E800256E00016D5160EC24F0000E266E6E0E07
:1031F800256E00016C5160EC24F0000E266E6E0EF8
:10320800256E00016B5160EC24F00001000E266E63
:103218006E0E256E6A5160EC24F025D860EC24F01F
:103228000001686B0DD0000E266E6E0E256E68517B
:10323800600FD96EDA6ADF5060EC24F00001682B69
:103248006951685DF0E3266A256A6E5160EC24F0E6
:10325800ACA2FED7100EC4EC28F0ACA2FED7030E29
:10326800C4EC28F012000001000E266E6E0E256ECA
:103278006951120003C00CF00D6A0E6A0F6A106AD9
:1032880067D020EE04F0015071D802E108500A1806
:1032980011E020EE06F0015069D802E108500A1842
:1032A8000EE120EE04F00150D9260250DA22DE5059
:1032B800DD1005E10DC001F00EC002F056D00C5033
:1032C800D96EDA6A10EE02F00150E1260250E222CD
:1032D800E6CF08F0E5CF09F001C0E1FF02C0E2FF48
:1032E800E6CF0AF0E5CF0BF008500A24E16E09504A
:1032F8000B20E26EDFCFE7FF0C2A20EE02F0015030
:10330800D9260250DA22DE2A000EDD2220EE06F04F
:103318000150D9260250DA2210EE02F00150E126BF
:103328000250E222E652DE52DD50E518DFCFE8FF18
:10333800D8B4E71808E120EE02F00150D92602506F
:10334800DA22DE6ADD6A0D2A000E0E220F22102212
:1033580004500D5C05500E5806500F580750105871
:1033680090E304C001F005C002F01200D926025013
:10337800DA22DECF08F0DDCF09F020EE02F00150AE
:10338800D9260250DA22DECF0AF0DDCF0BF00A2A66
:10339800000E0B2209500B1812001BC01FF01C66F0
:1033A8002BD01F50D96E6CD81D36D8901D36D890AA
:1033B8001D34DF6E1F50D96EDA6AD92ADA6A73D8DB
:1033C800D8901D321E2EFCD71D5063D8050E1E6ED8
:1033D800D8901D321E2EFCD71F50D96EDA6A1D50A8
:1033E800DF123DD8DF6A1F50D96EDA6A030ED9267C
:1033F800DA6A000EDF6E32D032D855D8D8901D3632
:103408001E2EFCD71D50DF6E1F50D96EDA6A030ED0
:10341800D92636D81D32D8901D32D8901D3039D8CB
:10342800030E1D161CD81D50DF1219C0D9FF1AC073
:10343800DAFFDF501D6ED8901D32D8901D32D8901B
:103448001D321C0E1D160BD81D50DF120FD8E12A95
:10345800E26ADFCFE7FF0AD8DFCFE7FF12001F508D
:10346800D96EDA6A020ED926DA6A1200194A1A2ABD
:1034780019C0D9FF1AC0DAFF1F50E16EE26A1200C4
:10348800DA6A19C0E1FF1AC0E2FFE7501D6ED89052
:103498001200DF6E194A1A2A19C0D9FF1AC0DAFFBA
:1034A800DF501D6E120019C0E1FF1AC0E2FFE7509D
:1034B8001D6E050E1E6E050C1B0E226E1F6622D099
:1034C8002250D96EDA6ADF50206ED8902032D89018
:1034D8002032D890203062D8D92ADA6A72D8D890A7
:1034E8002036212EFCD719C0D9FF46D86AD8D890E3
:1034F8002036212EFCD7205019C0D9FF1AC0DAFF78
:10350800DF6E39D0225042D8050E216ED890203275
:10351800212EFCD7205042D8030E49D8203619C096
:10352800D9FF2AD8020E43D82034E00B19C0D9FF9E
:103538001AC0DAFFDF6E19C0D9FF1AC0DAFF000E11
:10354800DB86225023D8030E201619C0D9FF14D8C1
:10355800D92ADA6A19C0E1FF1AC0E2FFDFCFE7FF14
:10356800194A1A2A2250D96EDA6A19C0E1FF1AC01C
:10357800E2FFDFCFE7FF12001AC0DAFF2050DF12A8
:10358800194A1A2A2250D96EDA6A1200D96EDA6AF2
:10359800020ED926DA6ADF50206E120019C0D9FF50
:1035A8001AC0DAFFDF6E2250D96EDA6A1200D92605
:1035B800DA6ADF50206ED8902036D8902036D8901E
:1035C8001200DF50206E050E216E050CE8CFA6F024
:1035D8000101010E1A6E700E196E1C6A1B6A1E6AB2
:1035E800500E1D6E57EC28F07E0E1B6EE60E1A6EFE
:1035F800E6EC25F00001AB6BAB51D00F9E6FD9C044
:103608009FF0A06BAA0EA16FA651E1EC20F0000973
:103618002AE00001000E2A6EA70E296EAAC02BF020
:103628002C6A2E6A100E2D6ED9EC27F00001000EC0
:103638001A6EA70E196E82EC27F019041A100FE102
:103648000101010E1A6E700E196E7F0E1C6EF90EB6
:103658001B6EBBEC25F033D8BBEC25F00FD02FD870
:10366800BBEC25F00BD00101010E1A6E700E196E1D
:103678007F0E1C6EE50E1B6EBBEC25F00F0E0001D5
:10368800AB610BD00101010E1A6E700E196E7F0E20
:103698001C6EFB0E1B6EBBEC25F00001AB2B0F0E56
:1036A800AB65AAD70101010E1B6E700E1A6EE6EC0F
:1036B80025F0740E1B6EAE0E1A6EE6EF25F0010EA5
:1036C8001A6E700E196E0001000E1C6EA70E1B6E8E
:1036D800120002D01F4A202A1F50F66EE96E050E0E
:1036E800EA6E2050EA6403D0EA6EEF5003D0F76E1A
:1036F8000800F550200AEEE064D8EA6403D0EA6EC8
:10370800EF5003D0F76E0800F550090AE3E0246A89
:10371800256A236A56D8EA6403D0EA6EEF5003D0CC
:10372800F76E0800F5502D0A02E1232A0BD049D87C
:10373800EA6403D0EA6EEF5003D0F76E0800F55044
:103748002B0A1FE11F4A202A1CD024C019F025C0CB
:103758001AF01C6A0A0E1B6E10EC28F032D8EA64C4
:1037680003D0EA6EEF5003D0F76E0800F550192623
:10377800000E1A22D00E1924246EFF0E1A20256E70
:10378800E1D71FD8EA6403D0EA6EEF5003D0F76E92
:103798000800F55080EC28F0D8E223500DE024C052
:1037A80021F025C022F0211E221E214A222A21C0F2
:1037B8001FF022C020F004D024C01FF025C020F044
:1037C80012001F50F66EE96E050EEA6E20501200C8
:1037D800E8CF29F02A6AACA2FED7100EC4EC28F074
:1037E800ACA2FED7020EC4EC28F0ACA2FED7FE0EA7
:1037F800C4EC28F05CD82064216AFE0E226EF5EC39
:1038080027F0ACA2FED7000EC4EC28F02A0E206EDA
:10381800000E20EC20F0F5EC27F02A0E256E000EA5
:103828008CEC1EF02564266A0101225160EC24F01C
:10383800ACA2FED7000EC4EC28F02A0E206E000EB3
:1038480020EC20F0F5EC27F0ACA2FED7020EC4EC79
:1038580028F02DD82064216A020E226EF5EC27F09C
:10386800ACA2FED72A0E256E000E8CEC1EF0256445
:10387800266A295060EC24F0ACA2FED72A0E256EE9
:10388800000E8CEC1EF02564266A285060EC24F0AB
:10389800266A256A2A5060EC24F0ACA2FED7100EE6
:1038A800C4EC28F0ACA2FED7030EC4EF28F02A0E11
:1038B800206E000E216E0F0E216E5F0E120062C088
:1038C80068F063C069F064C06AF065C06BF068C0F6
:1038D80019F069C01AF06AC01BF06BC01CF058D808
:1038E800ECEC23F01CC06BF01BC06AF01AC069F046
:1038F80019C068F0604B612B6B51681169116A112E
:10390800E6E160C0D9FF61C0DAFFDF6A6007D8A0CE
:10391800610762C026F063C027F064C028F065C064
:1039280029F066C02AF067C02BF0000E2BBEFF0EF0
:103938002C6E2D6E2EEC25F026506C6F62C019F09F
:1039480063C01AF064C01BF065C01CF021D8ECEC11
:1039580023F01CC065F01BC064F01AC063F019C0E6
:1039680062F0090E6C6502D0070E6C27300E6C27CA
:1039780060C0D9FF61C0DAFF6CC0DFFF6007D8A064
:1039880061076551621163116411D8B41200C1D77F
:1039980066C01DF067C01EF0000E1EBEFF0E1F6E33
:1039A800206E1200AE6B710E1B6E770E1A6EE6EC6F
:1039B80025F0010E0001B06F0400E00E00019E6FBB
:1039C800D9C09FF0A06BAF0EA16FB051E1EC20F011
:1039D80000093EE07B0E1B6E9A0E1A6EE6EC25F08F
:1039E8000001D36703D0AD6B0A0E02D0AD6B100E89
:1039F800AC6F010E2A6E700E296E0001DCC02BF030
:103A08002C6AACC02DF0ADC02EF0D9EC27F0010126
:103A1800010E1B6E700E1A6EE6EC25F0740E1B6E0E
:103A2800AE0E1A6EE6EC25F00001B051F9EC1EF06E
:103A38000001B051EAEC1AF00001B051D2EC21F0CB
:103A4800710E1B6E770E1A6EE6EC25F00001AE2B98
:103A58000001B02BB067B0D7010E2A6E700E296E28
:103A6800AEC02BF02C6A2E6A0A0E2D6ED9EC27F008
:103A78000101010E1B6E700E1A6EE6EC25F07E0E2B
:103A88001B6E4F0E1A6EE6EF25F027C183F000017A
:103A9800846B856B866B85C086F084C085F083C097
:103AA80084F0836B26C187F0886B896B8A6B88C02A
:103AB8008AF087C089F0886B876B25C18BF08C6B87
:103AC8008D6B8E6B1A0ED8908B378C378D378E375F
:103AD800E82EF9D787518B118F6F88518C11906F11
:103AE80089518D11916F8A518E11926F83518F1167
:103AF800936F84519011946F85519111956F8651F0
:103B08009211966F01012851000193119F6F9451F2
:103B1800A06F9551A16F9651A26F01012451FC0F1E
:103B28000001A36F000E1A6E970E196E290E836F8F
:103B3800010E846F83C01BF084C01CF0A3C01DF06D
:103B48001E6AE5EC26F09FC07CF0A0C07DF0A1C005
:103B58007EF0A2C07FF0A3C080F00001000E826F4B
:103B6800970E816FA0EF27F0E8CF31F031C040F019
:103B780000019F51416E9EC042F0A0C043F0A3C017
:103B8800D9FFA4C0DAFFDF50446E846B836B260E26
:103B9800856F866B876B050E886F400E896F28ECE2
:103BA80020F000094CE00001CB6BCC6BCD6BCE6BE9
:103BB80036D004000001DF0E606FDC0E616FDD0E91
:103BC800626FDE0E636F400E646FDA0EF2EC22F065
:103BD800000925E00001DC51316221D0DE51050ADF
:103BE8001EE140661CD09F51411819E19E5120EEFC
:103BF80042F0DF6214D0A05120EE43F0DF620FD014
:103C08004450A3C0D9FFA4C0DAFFDF6208D0A3C024
:103C1800D9FFA4C0DAFF41C0DFFF010E11D00001B7
:103C2800A151A56FA251A66FA76BA86BA551CB5D3B
:103C3800A651CC59A751CD59A851CE59BAE3000E77
:103C48001200E8CF28F0296AACA2FED7100EC4EC07
:103C580028F0ACA2FED7020EC4EC28F0ACA2FED726
:103C6800FD0EC4EC28F04CD82064216AFD0E226EAB
:103C7800F5EC27F0ACA2FED7000EC4EC28F0290E14
:103C8800206E000E20EC20F0F5EC27F0290E256EB2
:103C9800000E3ED82564266A0101225160EC24F00A
:103CA800ACA2FED7000EC4EC28F0290E206E000E40
:103CB80020EC20F0F5EC27F0ACA2FED7010EC4EC06
:103CC80028F01ED82064216A010E226EF5EC27F038
:103CD800290E256E000E1CD82564266A285060EC33
:103CE80024F0266A256A295060EC24F0ACA2FED79D
:103CF800100EC4EC28F0ACA2FED7030EC4EF28F0D7
:103D0800290E206E000E216E0F0E216E5F0E12001E
:103D1800266E0F0E266E5F0E1200E8CF31F031C00E
:103D280040F000019F51416E9EC042F0A0C043F098
:103D3800010E446E846B836B250E856F866B876BD3
:103D4800050E886F400E896F28EC20F000094BE0C3
:103D58000001CB6BCC6BCD6BCE6B35D00400000172
:103D6800DF0E606FDC0E616FDD0E626FDE0E636F5B
:103D7800400E646FDA0EF2EC22F0000924E0000134
:103D8800DC51316220D0DB51DA111DE1DF51270A05
:103D98001AE1DE51050A17E1406615D09F51411816
:103DA80012E19E5120EE42F0DF620DD0A05120EECC
:103DB80043F0DF6208D0A3C0D9FFA4C0DAFF44C033
:103DC800DFFF010E11D00001A151A56FA251A66F0E
:103DD800A76BA86BA551CB5DA651CC59A751CD595E
:103DE800A851CE59BBE3000E1200E8CFA6F001019E
:103DF800010E1A6E700E196E1C6A1B6A1E6A500E2E
:103E08001D6E57EC28F07D0E1B6EBF0E1A6EE6EC89
:103E180025F00001AB6BAB51940F9E6FD9C09FF09A
:103E2800A06BAA0EA16FA651E1EC20F0000919E0E1
:103E38000001000E2A6EA70E296EAAC02BF02C6A6C
:103E48002E6A100E2D6ED9EC27F0010E1A6E700E28
:103E5800196E0001000E1C6EA70E1B6EBBEC25F040
:103E68000BD00101010E1A6E700E196E7F0E1C6EBA
:103E7800FD0E1B6EBBEC25F0020E0001AB610BD0F2
:103E88000101010E1A6E700E196E7F0E1C6EF70E70
:103E98001B6EBBEC25F00001AB2B020EAB65BBD74C
:103EA8000101010E1B6E700E1A6EE6EC25F0740E01
:103EB8001B6EAE0E1A6EE6EF25F01BC023F01CC079
:103EC80024F0256A266A45D020EE02F04CD8D8B4F2
:103ED800E71838E020EE04F01950D9261A50DA22F3
:103EE800DECF1FF0DDCF20F019C0D9FF1AC0DAFFEE
:103EF800DECF21F0DDCF22F01F502124D96E2050D3
:103F08002220DA6E23C0E1FF24C0E2FFDFCFE7FF03
:103F1800234A242A20EE04F01950D9261A50DA220E
:103F2800DE2A000EDD2220EE06F01DD8D8B4E718F0
:103F38000EE120EE04F01950D9261A50DA22DE6A72
:103F4800DD6A05D025C019F026C01AF00BD0254A25
:103F5800262A1D50255C1E502658B6E31DC019F0B0
:103F68001EC01AF012001950D9261A50DA2210EE83
:103F780004F01950E1261A50E222E652DE52DD50D2
:103F8800E518DFCFE8FF1200286AACA2FED7100EB2
:103F9800C4EC28F0ACA2FED7020EC4EC28F0ACA208
:103FA800FED7FC0EC4EC28F0280E206E000E216E01
:103FB8000F0E216E5F0E2064216AFC0E226EF5EC56
:103FC80027F0ACA2FED7000EC4EC28F0280E206E15
:103FD800000E32D8F5EC27F0280E256E000E8CEC7A
:103FE8001EF02564266A0101225160EC24F0ACA27F
:103FF800FED7000EC4EC28F0280E206E000E1CD848
:10400800F5EC27F0ACA2FED7000EC4EC28F0280E81
:10401800206E000E11D8F5EC27F0266A256A285084
:1040280060EC24F0ACA2FED7100EC4EC28F0ACA2D1
:10403800FED7030EC4EF28F0216E0F0E216E5F0E1F
:104048002064216A226A000C85C08AF08B6B8C6B15
:104058008D6B8CC08DF08BC08CF08AC08BF08A6B16
:1040680083518E6F84518F6F906B916B8FC091F0DD
:104078008EC090F08F6B8E6B87C092F0936B946BB1
:10408800956B1A0ED8909237933794379537E82E58
:10409800F9D78E519211966F8F519311976F905156
:1040A8009411986F91519511996F8A5196119A6F41
:1040B8008B5197119B6F8C5198119C6F8D51991151
:1040C8009D6F86519A112C6E9B512D6E9C512E6EB0
:1040D8009D512F6E2CC07CF02DC07DF02EC07EF03F
:1040E8002FC07FF088C080F089C081F00F0E826FEA
:1040F8005F0E8165826BA0EC27F00009000ED8A442
:10410800010E1200286AACA2FED7100EC4EC28F0EB
:10411800ACA2FED7020EC4EC28F0ACA2FED7FB0E70
:10412800C4EC28F0280E206E000E216E0F0E216EB2
:104138005F0E2064216AFB0E226EF5EC27F0ACA21C
:10414800FED7000EC4EC28F0280E206E000E20ECDE
:1041580020F0F5EC27F0280E256E000E8CEC1EF0F2
:104168002564266A0101225160EC24F0ACA2FED736
:10417800000EC4EC28F0280E206E000E20EC20F073
:10418800F5EC27F0ACA2FED7000EC4EC28F0280E00
:10419800206E000E20EC20F0F5EC27F0266A256A48
:1041A800285060EC24F0ACA2FED7100EC4EC28F026
:1041B800ACA2FED7030EC4EF28F0E8CF31F031C02F
:1041C80040F09EC041F0846B836B090E856F866B4F
:1041D800876B020E886F400E896F28EC20F000096B
:1041E8003EE00001CB6BCC6BCD6BCE6B28D00400CE
:1041F8000001DF0E606FDC0E616FDD0E626FDE0E98
:10420800636F400E646FDA0EF2EC22F0000917E0DB
:104218000001DC51316213D0DB51DA1110E1DF51BA
:104228000A0A0DE1DE51020A0AE140509E6307D0F6
:10423800A151D96EDA6A41C0DFFF010E11D0000129
:104248009F51A26FA051A36FA46BA56BA251CB5D28
:10425800A351CC59A451CD59A551CE59C8E3000E4C
:10426800120022C026F023C027F026C019F027C06C
:104278001AF024C01BF025C01CF037EC26F019C03A
:1042880026F01AC027F0204A212A27502610EDE1EF
:1042980020C0D9FF21C0DAFF000EDF6A2006D8A0AF
:1042A800210622C019F023C01AF024C01BF025C033
:1042B8001CF063EC27F01950286E22C019F023C0B7
:1042C8001AF024C01BF025C01CF037EC26F019C0EA
:1042D80022F01AC023F0090E286402D0070E2826FF
:1042E800300E282620C0D9FF21C0DAFF28C0DFFF02
:1042F8002006D8A0210623502210D3E1204A212AE3
:10430800120020C019F021C01AF082EC27F0D890D2
:104318001A30266E1930256E1F50226E236A2350DC
:10432800800A246E2550225C2650800A245802E216
:10433800000E33D0296A2A6A20C027F021C028F04D
:1043480022D029501D24D96E2A501E20DA6E10EE74
:1043580001F02750E1262850E222E75025EC27F00B
:10436800226E27C0E1FF28C0E2FFE75025EC27F0C6
:10437800236E2338F00B2210DF6E020E2726000E64
:104388002822294A2A2A2A50800A226E2550295C86
:104398002650800A2258D5E329501200E8CFA6F00B
:1043A800010E0001A96F700EA86F0101010E1A6EAF
:1043B800700E196E1C6A1B6A1E6A500E1D6E57EC31
:1043C80028F07E0E1B6E6D0E1A6EE6EC25F00001CD
:1043D800AA6BAA51E00F9E6FD9C09FF0A06BA70EE1
:1043E800A16FA651E1EC20F000090AE0A8C0D9FFAE
:1043F800A9C0DAFFA7C0DFFF0001A84BA92B07D08F
:10440800A8C0D9FFA9C0DAFF3F0EDF6EF5D7AA2BE7
:104418001F0EAA65DED70101010E1B6E700E1A6E03
:10442800E6EC25F0740E1B6EAE0E1A6EE6EF25F064
:104438002650251004E137C025F038C026F0265054
:10444800251016E025C01FF026C020F027C021F057
:1044580028C022F0A1EC26F01F5025262050262245
:1044680025C0D9FF26C0DAFFDF5005E1376A386A70
:10447800256A266A25D025C01FF026C020F027C04F
:1044880021F028C022F07FEC26F01F502524376E3B
:1044980020502620386E37C0D9FF38C0DAFFDF50E9
:1044A80009E037C0D9FF38C0DAFF000EDF6E374A9F
:1044B800382A02D0376A386A25C025F026C026F087
:1044C80012007E0E1B6E9D0E1A6EE6EC25F03AD891
:1044D800010E2B6E2E6A0A0E2D6ED9EC27F0000104
:1044E800000E1B6E600E1A6EE6EC25F0ACA2FED72D
:1044F8002E0EC4EC28F026D82B6A2E6A0A0E2D6ED2
:10450800D9EC27F00001000E1B6E600E1A6EE6EC67
:1045180025F0ACA2FED72E0EC4EC28F013D82B6AD7
:104528002E6A0A0E2D6ED9EC27F00001000E1B6EC4
:10453800600E1A6EE6EC25F0740E1B6EAE0E1A6E47
:10454800E6EF25F00001000E2A6E600E296E2C6A37
:1045580012001A6A010E196E550E1B6E6DEC28F0CA
:104568001A6A020E196EAA0E1B6E6DEC28F01A6AF2
:10457800030E196E000E1B6A6DEC28F01A6A050E00
:10458800196E000E1B6A6DEC28F01A6A060E196E79
:10459800000E1B6A6DEC28F01A6A090E196E0A0ED5
:1045A8001B6E6DEC28F0200E1C6E1A6A010E196E37
:1045B800FF0E1B686DEC28F01C2A5F0E1C64F5D7F3
:1045C800600E1C6E1A6A010E196EFF0E1B686DECE8
:1045D80028F01C2A670E1C64F5D7670CE8CF69F031
:1045E80063C02CF064C02DF00F0E2E6E5F0E2D648C
:1045F8002E6A6A0E40EC28F0000902E1000E2FD066
:1046080000016151D96EDA6A6AC0DFFF6051D96E64
:10461800DA6A6BC0DFFF6C51656F010E6D15666F4E
:104628006951D96EDA6A65C0DEFF66C0DDFF625186
:10463800D96EDA6A6AC065F06BC066F06CC067F064
:104648006DC068F01B0E05D0D890683367336633A9
:104658006533E82EF9D76551070BDF6E010E12009E
:10466800800EADEC28F0090E706EFC0E716E010E16
:10467800726E200E736E778E779C606A0F01506B96
:104688000E01206B306B406B506B606B706BE00EF3
:104698000D01F86F0F01006B080E016F026B036BC1
:1046A800010E0D01D46FD56BE06B110EE16FE26F57
:1046B800E36BE46BE56BE66BE76B540EF06F050E8E
:1046C800F16FF26BF26B0F01186B196B1A6B1B6BA6
:1046D80019871C6B1D6B1E6B1F6B1D87200EADEFA2
:1046E80028F02FD026C01DF027C01EF028C01FF0CC
:1046F80029C020F028C019F029C01AF082EC27F050
:1047080019C021F01AC022F0FDEC24F01E501D1033
:1047180005E126C026F027C027F01ED026281A6EED
:10472800000E27201B6E28C0F6FF29C0F7FF0800DF
:10473800F5501C6E1D6A44EC27F01AC026F01BC009
:1047480027F02750261006E026C0D9FF27C0DAFF39
:10475800DF50C8E1266A276A1200E8CF1CF024D08F
:104768000F0E1E6E600E1ED00F010F0E1E6E500E25
:1047780019D00E010E0E1E6E200E14D00E010E0E54
:104788001E6E300E0FD00E010E0E1E6E400E0AD099
:104798000E010E0EEBD70E010E0EE3D70E010E0E14
:1047A8001E6E700E1D6E0FD01C50DAE0010ADCE0A0
:1047B800030ADFE0010AE2E0070AE5E0010AE8E0AF
:1047C800030AE9E0EBD71DC019F01EC01AF0120069
:1047D800226A236A246A256A20501D101E101F10A1
:1047E80029E0010E216E06D0D8901D361E361F36E0
:1047F8002036212A20AEF8D7D89022362336243600
:1048080025361D50195C1E501A581F501B58205031
:104818001C5809E31D50195E1E501A5A1F501B5A86
:1048280020501C5A2280D89020321F321E321D324E
:10483800212EE2D722C019F023C01AF024C01BF0A1
:1048480025C01CF012007F0E1B6E260E1A6EE6ECB9
:1048580025F00001D76707D07F0E1B6E1E0E1A6E5B
:10486800E6EC25F023D0D70507E17E0E1B6E7B0E04
:104878001A6EE6EC25F01AD0D751020A07E17E0E2F
:104888001B6EB10E1A6EE6EC25F010D0D751030A54
:1048980007E17E0E1B6EA70E1A6EE6EC25F006D019
:1048A8007C0E1B6EEF0E1A6EE6EC25F0740E1B6E76
:1048B800AE0E1A6EE6EF25F0E8CF27F02750100A63
:1048C80021E1ACA2FED7100EC4EC28F0265025102A
:1048D80008E025C020F026C021F0100E226EF5EC6D
:1048E80027F0ACA2FED7100EC4EC28F026502510F5
:1048F80019E025C020F026C021F0100E226EF5EC3C
:1049080027F010D0ACA2FED72750C4EC28F02650D0
:10491800251008E025C020F026C021F027C022F08D
:10492800F5EC27F012003450331031E11E6A1F6A8B
:104938001EC01DF01B6A1C6A1DBE03D0196A1A6AC4
:1049480003D01A6A070E196E1D501D2419181D6E02
:104958001B4A1C2A1C50800A800F080ED8B41B5C06
:10496800EBE30301000E1E24D96E030E1F20DA6E3E
:104978001DC0DFFF1E4A1F2A1F50800A7F0F000E2E
:10498800D8B41E5CD5E3000E346E010E336E1200EF
:1049980004EE00F011EEEEF0EE6AE550E150FCE1B5
:1049A800E250FAE103EE00F011EE00F0EE6AE55095
:1049B800E150FCE1E250FAE102EE00F0800EEE6A0E
:1049C800E806FDE101EE00F0D00EEE6AE806FDE132
:1049D80000EECBF0150EEE6AE806FDE100EE33F0CE
:1049E800150EEE6AE806FDE1000EF86E0001F5EF1F
:1049F80017F026D01FC0F6FF20C0F7FF0800F550BB
:104A0800B9EC28F0236E1DC0D9FF1EC0DAFFDF50B5
:104A1800B9EC28F0246E2350245C256E256606D058
:104A28001DC0D9FF1EC0DAFFDF5006E125501D6EFC
:104A38001E6A1DBE1E060DD01D4A1E2A1F4A202AA8
:104A48002106D8A022062128D8B42228D3E11D6A3D
:104A58001E6A12002D502A102B102C1023E0010E74
:104A68002E6E06D0D8902A362B362C362D362E2A86
:104A78002DAEF8D72A50265C2B5027582C50285892
:104A88002D50295808E32A50265E2B50275A2C50BF
:104A9800285A2D50295AD8902D322C322B322A32AE
:104AA8002E2EE8D726C026F027C027F028C028F0E9
:104AB80029C029F012001950F66EE96E050EEA6E4B
:104AC8001A50EA6403D0EA6EEF5003D0F76E08007C
:104AD800F5501B1805E119C019F01AC01AF018D0C2
:104AE80019501D6E1A501E6E194A1A2A1D50F66E5C
:104AF800E96E050EEA6E1E50EA6403D0EA6EEF50C6
:104B080003D0F76E0800F5500009D5E1196A1A6A52
:104B18001200E8CF1BF0AC6AAB6A1BB0AC881BA2D2
:104B280002D0AC8CAB8C1BB4AC8E1BA602D0AB886D
:104B380001D0AB8A1BB8AC849E981BBAAB861BAC61
:104B480002D09D8A01D09D9A9E9A1BAE02D09D8864
:104B580001D09D9819C0AFFF1A50B06EAC8AAB8EC9
:104B6800949C948EACB8ACBE01D0948C120019C041
:104B78001DF01AC01EF002D01D4A1E2A1DC0D9FF02
:104B88001EC0DAFFDF5005E0F7D71D4A1E2A1B4A70
:104B98001C2A1BC0F6FF1CC0F7FFF86A1DC0D9FF0E
:104BA8001EC0DAFF050EF76403D00800F55005D0E3
:104BB800F6CFE9FFF7CFEAFFEF50DF6EDF50D8B44A
:104BC8001200E3D7ACA2FED71A50F66EE96E050EB6
:104BD800EA6E1B50EA6403D0EA6EEF5003D0F76E1A
:104BE8000800F550C4EC28F01A501C6E1B501D6EBE
:104BF8001A4A1B2A1C50F66EE96E050EEA6E1D5005
:104C0800EA6403D0EA6EEF5003D0F76E0800F5505F
:104C18000009D8B41200D6D70101006B016B026BF2
:104C2800036B046B056B066B076B186B196B1A6BC0
:104C38001B6B1C6B1D6B1E6B1F6B1A6A060E196EA5
:104C4800D7EC28F00001D36F1A6A030E196ED7EC5F
:104C580028F00001D76F1A6A090E196ED7EC28F0F0
:104C68000001D96F12001E6A1F6A1C501B101BE03E
:104C7800010E1D6E04D0D8901B361C361D2A1CAEA2
:104C8800FAD7D8901E361F361B50195C1C501A587C
:104C980005E31B50195E1C501A5A1E80D8901C320E
:104CA8001B321D2EEED71EC019F01FC01AF01200BD
:104CB800E8CF1CF01E6A070E1D6E1DC01AF0010E0B
:104CC8001B6E1A2A02D0D8901B361A2EFCD71B50FE
:104CD8001C1406E0ACA2FED7310EC4EC28F005D0B7
:104CE800ACA2FED7300EC4EC28F01D06D8A01E06D4
:104CF8001EBE1200E2D7236A246A04D01F4A202A63
:104D0800234A242A1FC0D9FF20C0DAFFDF5010E051
:104D180021C019F022C01AF01FC0D9FF20C0DAFF45
:104D2800DF501B6E1C6A5FEC25F01A501910E6E084
:104D380023C01FF024C020F01200236A246A04D084
:104D48001F4A202A234A242A1FC0D9FF20C0DAFF7D
:104D5800DF5010E021C019F022C01AF01FC0D9FF9F
:104D680020C0DAFFDF501B6E1C6A5FEC25F01A507A
:104D78001910E6E123C01FF024C020F0120010EC47
:104D880026F0D388D38AD38C9B8C93949386949261
:104D9800949C948E1A6A150E196E7C0E8DEC25F073
:104DA8009E9A9F9A9D8AF28C920E8FEC28F0FB0EA9
:104DB8001A6E1D0E196ECEEC28F034EC23F0F28E2C
:104DC80012001BC021F01CC022F019C01FF01AC02D
:104DD80020F00ED021C0D9FF22C0DAFF1FC0E1FFAA
:104DE80020C0E2FFDFCFE7FF214A222A1F4A202AFC
:104DF8001D06D8A01E061D28D8B41E28D8B4120037
:104E0800E9D720EE02F016D820EE04F013D820EEF1
:104E180006F01950D9261A50DA221DC0DEFF1EC02E
:104E2800DDFF19C0D9FF1AC0DAFF1BC0DEFF1CC0A6
:104E3800DDFF12001950D9261A50DA22DE6ADD6A1F
:104E48001200E8CF19F02F0E196406D03A0E196037
:104E580003D01950D00F13D0600E196406D0670E16
:104E6800196003D01950A90F0AD0400E196406D052
:104E7800470E196003D01950C90F01D0FF0E120058
:104E88001C50B9EC28F01C6E1D6A10D01AC0D9FF4E
:104E98001BC0DAFFDF50B9EC28F01C1805E11AC076
:104EA8001AF01BC01BF00AD01A4A1B2A1AC0D9FFD5
:104EB8001BC0DAFFDF50EAE11A6A1B6A12001C50B5
:104EC8001B1017E0010E1D6E04D0D8901B361C363F
:104ED8001D2A1CAEFAD71B50195C1C501A5804E343
:104EE8001B50195E1C501A5AD8901C321B321D2EAA
:104EF800F2D719C019F01AC01AF0120019C01BF025
:104F08001AC01CF002D01B4A1C2A1B50F66EE96E10
:104F1800050EEA6E1C50EA6403D0EA6EEF5003D027
:104F2800F76E0800F5500009EEE119501B5C196E88
:104F38001A501C581A6E12007CC023F07DC024F051
:104F48007EC025F07FC026F081C027F082C028F0FF
:104F580080C029F0200E2A6E3CEC17F0000907E10A
:104F68000101042B000E05230623072301D0010E9F
:104F78001200296A286A14D0290E206E000E216EAC
:104F88000F0E216E5F0E2064216A28502524D96EE9
:104F9800000E2620DA6EDF50226EF5EC27F0282A64
:104FA8002750285CE9E3295012002CAE0CD029C008
:104FB800D9FF2AC0DAFF2D0EDF6E294A2A2A2B6C68
:104FC8002C1ED8B02C2A29C020F02AC021F02BC0D2
:104FD80022F02CC023F02DC024F02EC025F035EF90
:104FE80021F034503310D8B497EC24F020C0D9FF06
:104FF80021C0DAFFDF502218236E246A0301000E55
:105008002324D96E030E2420DA6E20C0E1FF21C0CC
:10501800E2FFDFCFE7FF120019501B02F3CF1DF0AC
:10502800F4CF1EF019501C0208D81A501B0205D8DC
:105038001DC019F01EC01AF01200F3CFF4FFF36A76
:10504800F3501D26F4501E22120019C01DF01AC07C
:105058001EF004D01D4A1E2A1B4A1C2A1BC0D9FF59
:105068001CC0DAFF1DC0E1FF1EC0E2FFDFCFE7FF73
:10507800E750D8B41200EED7E8CF2FF02DC020F0BB
:105088002EC021F02CC022F0300E236E2F5037ECAA
:1050980012F0000902E030AC02D0000E03D030AAB2
:1050A800FCD7010E120019C01FF01AC020F008D05A
:1050B8001FC0D9FF20C0DAFF1BC0DFFF1F4A202A0C
:1050C8001D06D8A01E061D28D8B41E28D8B4120064
:1050D800EFD719C0A9FF1BC0A8FFA69EA69CA6844F
:1050E800F29E550EA76EAA0EA76EA682F28EA1A8F2
:1050F800FED7A198A6941200E8CF1BF01A6A3A0EC0
:105108001B6005D02F0E1B6402D0010E1A6E1AC048
:1051180019F019301200E8CF19F019507F0BD56E2D
:10512800D76AD66AF29419AE02D0F28A01D0F29AFE
:10513800D58E1200F20E3916ABAC03D03990ABB055
:105148003980ABB43984ABB23986AECF01F00150A7
:105158001200E8CF19F01F0E6F1619506F126F501A
:10516800E00B1918D8B41200FAD7E8CF19F07B0E63
:10517800196004D0600E196401D0199A19501200F0
:10518800E8CF19F0ACAC03D0AC9039B2AC8019C000
:10519800ADFF120019C01BF01AC01CF01CC0D7FFCD
:1051A8001BC0D6FF120019C0A9FFA69EA69CA68008
:1051B800A8CF1BF01B50120001C003F002C004F07E
:1051C80004C0D7FF03C0D6FF1200ADEC22F010EFE9
:0451D80026F01200AB
:106FD800010000000800000040000000000200005E
:106FE80000100000008000000000040000002000E5
:106FF8000000000100000008000000400000000040
:10700800010000000A00000064000000E80300001E
:1070180010270000A086010040420F0080969800CB
:1070280000E1F50500CA9A3B0100000010000000CD
:107038000001000000100000000001000000100026
:107048000000000100000010202020202020202027
:1070580020466F726D61743A2066696C746572209F
:1070680066696C7465726E6F2C7072696F2C636CD4
:107078006173732C747970652C6E6F646569642014
:10708800202866696C7465726E6F203D20302D3142
:1070980035292E0D0A00494E464F202D204765748C
:1070A80020696E666F2061626F757420616E20655D
:1070B80078697374656E74206E6F6465206F6E20D6
:1070C800746865206275732028466F726D61743A22
:1070D80020696E666F206E69636B6E616D65292E1F
:1070E8000D0A0020202020202020466F726D617438
:1070F8003A206D61736B206D61736B6E6F2C7072CB
:10710800696F2C636C6173732C747970652C6E6F66
:107118006465696420286D61736B6E6F203D203053
:10712800206F722031292E0D0A0052524547202D1A
:10713800205265616420726567697374657228738B
:1071480029206F66206E6F64652028466F726D6116
:10715800743A2072726567205B706167653A5D7288
:107168006567205B636F756E745D292E0D0A002DAF
:107178002D2D2D2D2D2D2D2D2D2D2D2D2D2D2D2D37
:107188002D2D2D2D2D2D2D2D2D2D2D2D2D2D2D2D27
:107198002D2D2D2D2D2D2D2D2D2D2D2D2D2D2D2D17
:1071A8002D2D2D2D2D2D2D2D2D2D2D2D2D2D2D0D27
:1071B8000A0020202020525754494D454F5554204D
:1071C8002D20536574207265676973746572207227
:1071D8006561642F77726974652074696D656F7570
:1071E800742E2044656661756C743D3130206D7372
:1071F800202E0D0A0057524547202D2057726974DA
:1072080065207265676973746572206F66206E6F9A
:1072180064652028466F726D61743A2077726567DD
:10722800205B706167653A5D72656720636F6E7495
:10723800656E74292E0D0A002D4552524F52202D8D
:107248002046696C746572206E756D626572206384
:10725800616E206F6E6C792062652073657420748E
:107268006F20612076616C7565206265747765654D
:107278006E20302D31352E0D0A00202020204D4F54
:107288004445202D205365742061646170746572D3
:10729800206D6F646520746861742073686F756C05
:1072A800642062652075736564206F6E2073746155
:1072B800727475702E0D0A005472616E736D697464
:1072C80074657220696E204572726F722053746102
:1072D8007465205761726E696E67202831323820D4
:1072E8003E2054455252434E54203F203936290DF2
:1072F8000A005472616E736D697474657220696EE8
:10730800204572726F7220537461746520427573E0
:107318002050617373697665202854455252434E54
:1073280054203F20313238290D0A00202020202007
:10733800466F726D61743A207072696F7269747900
:107348002C636C6173732C747970652C6E6F646533
:1073580069642C636F756E742C646174612C2C2CB9
:107368000D0A00526563656976657220696E20456D
:1073780072726F72205374617465205761726E69FE
:107388006E672028313238203E2052455252434EF3
:1073980054203F203936290D0A002020202053543C
:1073A8004152544946202D2053657420696E7465F6
:1073B800726661636520737461746520746F2075EB
:1073C8007365206F6E20737461727475702E0D0A68
:1073D800005072657373202776272077697468696F
:1073E8006E207468726565207365636F6E647320C0
:1073F800746F20656E74657220766572626F73654E
:10740800206D6F64650D0A00526563656976657263
:1074180020696E204572726F722053746174652002
:1074280042757320506173736976652028524552FE
:1074380052434E54203F20313238290D0A002D4541
:1074480052524F52202D204F6E65206F72206D6F63
:107458007265207265676973746572287329206381
:107468006F756C64206E6F7420626520726561644C
:107478002E0D0A005472616E736D69747465722002
:10748800696E204572726F72205374617465204270
:107498007573204F4646202854455252434E542077
:1074A8003F20323536290D0A00436F7079726967BB
:1074B80068742028432920323031342D3230313558
:1074C8002047726F64616E732050617261646973E2
:1074D8002041422C2053776564656E0D0A00547272
:1074E800616E736D6974746572206F722052656382
:1074F800656976657220697320696E204572726FBE
:1075080072205374617465205761726E696E670DDD
:107518000A004C495354454E202D204F70656E206B
:1075280043414E20696E7465726661636520696EB9
:10753800206C697374656E206F6E6C79206D6F6452
:10754800652E0D0A002D4552524F52202D204D61B7
:10755800736B206E756D6265722063616E206F6E4D
:107568006C79206265207365742061732030206F08
:107578007220312E0D0A004C4F4F504241434B2090
:107588002D204F70656E2043414E20696E746572E0
:107598006661636520696E206C6F6F706261636BF2
:1075A800206D6F64652E0D0A0056455253494F4EA3
:1075B800202D20446973706C6179206669726D773B
:1075C8006172652076657273696F6E20696E666F89
:1075D800726D6174696F6E2E0D0A002020202020C4
:1075E8002020202020202020202020466F726D613E
:1075F800743A2073657420727774696D656F757459
:107608002074696D656F75742E0D0A002020202086
:10761800444543494D414C202D20446973706C61A9
:1076280079206E756D65726963616C7320696E206F
:10763800646563696D616C2E0D0A00202020204866
:107648004558202D20446973706C6179206E756DE2
:1076580065726963616C7320696E2068657861641E
:107668006563696D616C2E0D0A0046494E44202DF4
:107678002046696E6420617661696C61626C652080
:1076880043414E3456534350206E6F646573206FE8
:107698006E206275732E0D0A0053494C454E5420D6
:1076A8002D204F70656E2043414E20696E746572BF
:1076B8006661636520696E2073696C656E74206D00
:1076C8006F64652E0D0A0049464D4F4445202D2014
:1076D800446973706C61792073656C656374656463
:1076E80020696E74657266616365206D6F64652ECE
:1076F8000D0A004F50454E202D204F70656E2043D7
:10770800414E20696E7465726661636520696E20FA
:107718006E6F726D616C206D6F64652E0D0A002BA3
:107728004F4B202D204E756D65726963616C206F1B
:107738007574707574206E6F7720696E206865782F
:1077480061646563696D616C0D0A002D4552524F85
:1077580052202D2066696C74657220666F722070E5
:1077680072696F72697479206973206D69737369BE
:107778006E670D0A002D4552524F52202D20666922
:107788006C74657220666F72206E69646520696426
:10779800206973206D697373696E670D0A00484527
:1077A8004C50202D20446973706C6179207468698D
:1077B800732068656C7020696E666F726D6174699C
:1077C8006F6E2E0D0A002D4552524F52202D206DFE
:1077D80061736B20666F72207072696F7269747959
:1077E800206973206D697373696E670D0A002B4FEA
:1077F8004B202D204E756D65726963616C206F7525
:1078080074707574206E6F7720696E206465636983
:107818006D616C0D0A002D4552524F52202D204E9D
:107828006F2066696C746572206E756D6265722072
:107838007370656369666965642E0D0A0045525266
:10784800202D20446973706C61792043414E206576
:1078580072726F7220696E666F726D6174696F6E95
:107868002E0D0A0048656C7020666F72207468657A
:10787800204672616E6B667572742052532D3233D6
:1078880032206D6F64756C650D0A002D4552524F9C
:1078980052202D206D61736B20666F72206E6964B3
:1078A80065206964206973206D697373696E670D5B
:1078B8000A002D4552524F52202D2066696C74657E
:1078C8007220666F7220636C617373206973206D18
:1078D800697373696E670D0A00202020202020201C
