:020000040000FA
:04000000000E04D01A
:0800080004EF02F082AE0FD0FC
:08001000F66E040EF76E02D03B
:080018000CEF02F0000EF86E7F
:100020000900F53C00EF02F00900F53CFBD720EE9B
:1000300000F0700ED3129B8C82AEFED7900EAB6E8A
:10004000260EAC6EB886020ED56EAB98AE50AE5092
:10005000D76AD66AF2944DD8D58E4BD8D59EF2B4D5
:10006000F7D7D6CFAFFFD7CFB0FFAB88DAD80F0A1C
:10007000ECE10F0ED1D800EE04F0D3D80F0AF9E06E
:100080000250040A07E00250050A01E1CAD802C082
:10009000ECFFF3D710EE05F0006A016AEDCFF4FF34
:1000A000E6502FD8E250EA62FBD7E150E962F8D778
:1000B0000150F462CAD70050EF62C7D7006A016AE4
:1000C0000650F66EA96E0750F76E08C0F8FF00EEF6
:1000D0000BF00A0E0560B9D7F9500544F92627D070
:1000E0002FD039D04BD055D062D06AD074D09AD7A7
:1000F000FF000400F2B4120082BEFCD782AEFED72D
:100100001200011800C001F0006EE83A0F0B001A4F
:100110000038F00B011A0038E844011AE00B011A0C
:10012000001A120000030105FF8400000000240EE5
:10013000F66E010EF76E000EF86E0A0E0A6E0B6A6E
:100140000900F5505DD8DDDF0A06000E0B5A0A5093
:100150000B10F6E14ED00900F550D3DFF6503F0BFF
:10016000FAE1005000EC01F0015000EC01F00A0649
:10017000000E0B5A0A500B10EEE13FD0940EA66E03
:100180005ED8400EF65EE86AF75AF85A0A2EF6D79D
:100190002CD0840EA66EEECFF5FF0D00F6501F0B8F
:1001A000FAE10A004CD809000A2EF3D71ED0A66A3D
:1001B000A680A850A92A24D8A4DF0A2EF9D719D0DE
:1001C000040EA66EECCFA8FF3AD8A6B2FED7A92A95
:1001D0000A2EF8D70AD0C40EA66E0800EE50F562BB
:1001E0002CD80B000A2EFAD700D0A66A055008D8E2
:1001F00088DF005005D8015003D8040E0DD836D73B
:10020000036E0F0A06E00350040A03E00350050AD8
:1002100002E1050E01D8035004009EA8FED7AD6E82
:100220001200ABB2FF0004009EAAFDD7AE50026ED2
:100230001200FF00FF00FF00A66AF56E0C0004002C
:0E024000550EA76EAA0EA76EA6820000120031
:020000040030CA
:0100010006F8
:010002001FDE
:010003001EDE
:010005008278
:010006008178
:010008000FE8
:01000900C036
:01000A000FE6
:01000B00E014
:01000C000FE4
:01000D0040B2
:00000001FF
