:04040000BDEF03F059
:10041800D8CF16F0E8CF17F0E0CF18F0E1CF19F0F9
:10042800E2CF1AF0D9CF1BF0DACF1CF09EAA01D088
:1004380001D02CD061EC35F01D6E0001000E026E6B
:10044800F40E016E1D0E036E000E046E0F0E046E88
:100458005F0E0364046A010E056E000E066E000E40
:10046800076E000E086E96EC24F001040210D8B452
:1004780001D001D009D0010E0001E627000EE723C4
:10048800000EE823000EE9239E9A7DD0F2A401D045
:1004980001D079D0FB0E026E1D0E016EB5EC35F061
:1004A800010E0001E227000EE323000EE423000EF4
:1004B800E523010EDE27000EDF23000EE023000EE9
:1004C800E1232A4A2B2A3250020AD8A401D001D0AB
:1004D8000CD0E90E2A5C030E2B58D8A001D001D00D
:1004E80004D08B722A6A2B6A4DD03250030AD8A4E2
:1004F80001D001D009D0910E2A5C010E2B58D8A04A
:1005080001D001D001D0EDD73250040AD8A401D0CF
:1005180001D009D0650E2A5C000E2B58D8A001D056
:1005280001D001D0DED73250050AD8A401D001D0BD
:1005380009D0470E2A5C000E2B58D8A001D001D054
:1005480001D0CFD73250060AD8A401D001D009D0A3
:10055800290E2A5C000E2B58D8A001D001D001D05A
:10056800C0D73204D8A401D001D004D08B822A6A23
:100578002B6A08D0326601D001D004D08B922A6A47
:100588002B6A00D0F294A4AA01D001D02AD074AC6E
:1005980001D001D00AD0010E0001C627000EC723E2
:1005A800000EC823000EC923749C74AA01D001D080
:1005B80003D0060E326E14D074B801D001D004D026
:1005C80074A601D001D003D0050E326E09D074A0F4
:1005D80001D001D003D0040E326E02D0010E326E6B
:1005E800A49AA4A201D001D0B5D00201020E096ECE
:1005F800800E086E400E0A6E410E0B6E3C0E07EC24
:100608001EF00009D8B401D001D0A3D041A601D072
:1006180001D00ED041AA01D001D09BD0010E00011B
:10062800C627000EC723000EC823000EC92391D089
:1006380041BC01D001D08DD041AA01D001D089D0D0
:100648004050146E156A050E1426000E1522340E3D
:10065800016E000E026E0F0E026E5F0E0164026ADA
:1006680008EC2DF01450015C15500258D8A001D0A8
:1006780001D0D4D71E6A340E016E000E026E0F0E22
:10068800026E5F0E0164026A3C0E036E000E046E79
:100698000F0E046E5F0E0364046A040E056E000EEE
:1006A800066E000E076E000E086E96EC24F00150E0
:1006B800040A0210D8B401D001D002D0010E1E6E77
:1006C800340E016E000E026E0F0E026E5F0E016494
:1006D800026A400E036E000E046E0F0E046E5F0E6B
:1006E8000364046A010E056E000E066E000E076EA6
:1006F800000E086E96EC24F001040210D8B401D064
:1007080001D002D0010E1E6E340E016E000E026E74
:100718000F0E026E5F0E0164026A0201020E046E81
:10072800800E036E4050056E066A076A086A96ECEA
:1007380024F0405001180210D8B401D001D002D0E2
:10074800010E1E6E312A1E50D8B401D001D001D03E
:1007580065D7A4921CC0DAFF1BC0D9FF1AC0E2FFFC
:1007680019C0E1FF18C0E0FF17C0E8FF16C0D8FFA6
:10077800100093EF31F00101026702D076EC17F018
:10078800F29E000E206EF40E1F6E0201020E226E03
:10079800C30E216E246A010E236EA3EC29F01F04F8
:1007A800201002E025EF0FF0F28E010101510FE059
:1007B8000201C35187EC35F0ACA2FED70201C35148
:1007C8000D0A05E10A0E87EC35F0ACA2FED701014F
:1007D80098EC15F0C3C2DFFF032B4F0E036501D061
:1007E800036B0201C3510D0A02E025EF0FF001016E
:1007F80098EC15F0DF6A0001676F050E666F7F0ED3
:10080800696FC00E686F3EEC30F027EC0FF004E122
:10081800000166510101B31911E1790E216ECE0E66
:10082800206EDBEC32F0C2EC35F0206A1F6AFF0E56
:100838002168C1EC34F0FF001BEF0FF0D9EC0FF08A
:100848003EEC30F027EC0FF004E1000166510101A5
:10085800B3190CE1026B000E70EC35F07F0E216EBF
:100868006A0E206EDBEC32F01BEF0FF0010EE3ECAA
:100878000FF03EEC30F027EC0FF004E10001665178
:100888000101B3190DE1010E026F000E70EC35F095
:100898007F0E216E6A0E206EDBEC32F01BEF0FF03C
:1008A800010E0001ECEC0FF03EEC30F027EC0FF0FD
:1008B80004E1000166510101B3190DE1010E026F57
:1008C800800E70EC35F07F0E216E6A0E206EDBEC28
:1008D80032F01BEF0FF0010E00010CEC10F03EECB3
:1008E80030F027EC0FF004E1000166510101B31963
:1008F8000CE1026B400E70EC35F07F0E216E6A0E33
:10090800206EDBEC32F01BEF0FF0010E000104EC5F
:1009180010F03EEC30F027EC0FF004E100016651D6
:100928000101B3190CE1026B600E70EC35F07F0E1B
:10093800216E6A0E206EDBEC32F01BEF0FF0010E19
:100948000001676F050E666F7E0E696FF80E686F9F
:100958003EEC30F027EC0FF004E100016651010194
:10096800B3190AE136EC2FF07F0E216E6A0E206E65
:10097800DBEC32F01BEF0FF0010E0001676F050E84
:10098800666F7F0E696F330E686F3EEC30F027ECB0
:100998000FF004E1000166510101B31961E16F50E4
:1009A800E00B0201C96FC9670BD00101026708D0CB
:1009B8007D0E216E0D0E206EDBEC32F01BEF0FF07A
:1009C8000201C951010ED8A4000E0101021508E068
:1009D8007D0E216E210E206EDBEC32F01BEF0FF046
:1009E8000201C951200A08E17D0E216E5D0E206EBC
:1009F800DBEC32F01BEF0FF0C951400A08E17C0E26
:100A0800216E4F0E206EDBEC32F01BEF0FF0C95158
:100A1800600A08E17A0E216EE80E206EDBEC32F0F7
:100A28001BEF0FF0C951800A08E17C0E216EF90E08
:100A3800206EDBEC32F01BEF0FF0C951E00A08E141
:100A48007D0E216E700E206EDBEC32F01BEF0FF086
:100A58007B0E216E7B0E206EDBEC32F01BEF0FF06D
:100A6800010E0001676F050E666F7F0E696FEA0E53
:100A7800686F3EEC30F027EC0FF004E1000166519E
:100A88000101B31901E0D9D088EC0FF0EBEC2EF09E
:100A980064C0CAF265C0CBF2030E0101B06F020157
:100AA800CB51CA1109E0CAC262F0CBC263F0CAECEA
:100AB80026F062510101B06F0101AD6BAE6B31ECF4
:100AC8000FF0EBEC2EF064C0CAF265C0CBF2020165
:100AD800CB51CA110AE0CAC262F0CBC263F0CAECB9
:100AE80026F062C0ADF163C0AEF10101B26B31EC2A
:100AF8000FF0EBEC2EF064C0CAF265C0CBF2020135
:100B0800CB51CA1109E0CAC262F0CBC263F0CAEC89
:100B180026F062510101B26F0101AF6B31EC0FF0A9
:100B2800EBEC2EF064C0CAF265C0CBF20201CB51E7
:100B3800CA1109E0CAC262F0CBC263F0CAEC26F05F
:100B480062510101AF6F0101B16B31EC0FF0EBECB9
:100B58002EF064C0CAF265C0CBF20201CB51CA11B3
:100B680009E0CAC262F0CBC263F0CAEC26F0625157
:100B78000101B16F0101010E206EA50E1F6E226AE0
:100B8800216A246A080E236E0AEC35F00201B96B5B
:100B98001DD031EC0FF0EBEC2EF064C0CAF265C04A
:100BA800CBF20201CB51CA1116E0A50EB925D96EB8
:100BB800DA6A0101010EDA22CAC262F0CBC263F01E
:100BC800CAEC26F06251DF6E0201B92B0101B15166
:100BD8000201B95DDEE3ADC18FF0AEC190F0B2C1E4
:100BE80091F0AFC192F0B0C193F0B1C194F0010E91
:100BF8000001966FA50E956F03EC2CF0000915E027
:100C0800DA2B000EDB23DC23DD230101B1510001C7
:100C1800D627000ED723D823D9237F0E216E6A0E3C
:100C2800206EDBEC32F01BEF0FF0790E216E4B0ECD
:100C3800206EDBEC32F01BEF0FF0010E0001676F46
:100C4800050E666F7F0E696FE70E686F3EEC30F039
:100C580027EC0FF004E1000166510101B31914E11A
:100C680076EC17F0000908E07F0E216E6A0E206E00
:100C7800DBEC32F01BEF0FF07D0E216E820E206E42
:100C8800DBEC32F01BEF0FF0010E0001676F050E71
:100C9800666F7F0E696FBB0E686F3EEC30F027EC15
:100CA8000FF004E1000166510101B3190AE1F3EC08
:100CB80020F07F0E216E6A0E206EDBEC32F01BEF07
:100CC8000FF0010E0001676F050E666F7F0E696FEA
:100CD800D50E686F3EEC30F027EC0FF004E1000110
:100CE80066510101B3190AE125EC19F07F0E216E56
:100CF8006A0E206EDBEC32F01BEF0FF0010E0001E4
:100D0800676F050E666F7F0E696FB60E686F3EECF3
:100D180030F027EC0FF004E1000166510101B3192E
:100D28000AE185EC22F07F0E216E6A0E206EDBEC64
:100D380032F01BEF0FF0010E0001676F050E666FB2
:100D48007F0E696F930E686F3EEC30F027EC0FF062
:100D580004E1000166510101B3190AE1FCEC23F03A
:100D68007F0E216E6A0E206EDBEC32F01BEF0FF067
:100D7800010E0001676F050E666F7F0E696F980E92
:100D8800686F3EEC30F027EC0FF004E1000166518B
:100D98000101B31901E013D20201BF6B010EBB6F51
:100DA8006F50E00B12E0730E216E130E206EDBEC19
:100DB80032F00101010E206E050EE4EC2EF00AEC73
:100DC80035F00101036B26EF0FF0010140EC0FF045
:100DD800F3EC34F0010E92EC0FF0EBEC2EF064C063
:100DE800C5F265C0C6F20201C651C5110AE0C5C206
:100DF80062F0C6C263F0CAEC26F062510201BC6F11
:100E080007D07B0E216E630E206EDBEC32F0D1D75B
:100E180080EC0FF0EBEC2EF064C0C5F265C0C6F2B2
:100E28000201C651C51133E0C5C21FF0C6C220F089
:100E3800226A3A0E216E54EC32F01FC08CF220C0A8
:100E48008DF202018D518C1118E0C5C262F0C6C244
:100E580063F0CAEC26F062510201BF6F8C290101D0
:100E6800B36F000E02018D210101B46FB3C162F0AE
:100E7800B4C163F0CAEC26F006D0C5C262F0C6C29F
:100E880063F0CAEC26F062510201C06F07D0790EF8
:100E9800216E8D0E206EDBEC32F08BD780EC0FF0DC
:100EA800EBEC2EF064C0C5F265C0C6F20201C65173
:100EB800C5110DE0C5C262F0C6C263F0CAEC26F0E7
:100EC80062510201BB6FBB6702D0010EBB6F010EFE
:100ED800AF6FC16B5ED10001BFC2AFF0B06B020152
:100EE800C051C1250001B16F04C1B2F0B36B020E4D
:100EF800B56FC40EB46F0201BC514EEC27F0000967
:100F080001E1C7D07E0E216E180E206EDBEC32F0A8
:100F18000101006705D07F0E02019C6F700E04D09E
:100F28007E0E02019C6F6A0E9B6F010E00016E6FB0
:100F3800550E6D6F9BC26FF09CC270F0BCC271F011
:100F4800726B14EC10F00101010E216E550E206E2B
:100F5800DBEC32F07D0E216EFB0E206EDBEC32F006
:100F68000101006705D07F0E02019E6FED0E04D0CF
:100F78007F0E02019E6F4F0E9D6F010E00016E6F76
:100F8800550E6D6F9DC26FF09EC270F0BFC271F0BA
:100F9800726B14EC10F00101010E216E550E206EDB
:100FA800DBEC32F03A0E87EC35F0ACA2FED701014B
:100FB800006705D07F0E0201A06FED0E04D07F0EF2
:100FC8000201A06F4F0E9F6F010E00016E6F550E4C
:100FD8006D6F9FC26FF0A0C270F09BEC0FF014EC25
:100FE80010F00101010E216E550E206EDBEC32F07F
:100FF8007E0E216EDC0E206EDBEC32F00101006704
:1010080005D07F0E0201A26FED0E04D07F0E020103
:10101800A26F4F0EA16F010E00016E6F550E6D6F1E
:10102800A1C26FF0A2C270F0C4C271F0726B14EC6E
:1010380010F00101010E216E550E206EDBEC32F02E
:10104800ACA2FED77F0E216EE10E206EDBEC32F0F3
:10105800200E0201C46507D07F0EC46104D0C451BC
:1010680087EC35F003D02E0E87EC35F0ACA2FED716
:101078007F0E216EC50E206EDBEC32F00201C451EA
:101088002AEC33F0720E216EDA0E206EDBEC32F0B1
:101098007ED00201AF6B7D0E216EEA0E206EDBEC76
:1010A80032F00101006705D07F0E0201A46F700EB7
:1010B80004D07E0E0201A46F6A0EA36F010E000118
:1010C8006E6F550E6D6FA3C26FF0A4C270F0BCC2F4
:1010D80071F0726B14EC10F00101010E216E550EC7
:1010E800206EDBEC32F07B0E216E1A0E206EDBECEC
:1010F80032F0ACA2FED70101006705D07F0E0201D5
:10110800A66FED0E04D07F0E0201A66F4F0EA56FDD
:10111800010E00016E6F550E6D6FA5C26FF0A6C26D
:1011280070F0BFC271F0726B14EC10F00101010E87
:10113800216E550E206EDBEC32F03A0E87EC35F05E
:101148000101006705D07F0E0201A86FED0E04D0E3
:101158007F0E0201A86F4F0EA76F010E00016E6F80
:10116800550E6D6FA7C26FF0A8C270F09BEC0FF020
:1011780014EC10F00101010E216E550E206EDBEC0F
:1011880032F0720E216EDA0E206EDBEC32F00201C4
:10119800C12BBB51C15D01E29ED6AF5108E07F0E65
:1011A800216E6A0E206EDBEC32F01BEF0FF0720E30
:1011B800216EDD0E206EDBEC32F01BEF0FF0010E1E
:1011C8000001676F050E666F7F0E696F9D0E686F71
:1011D8003EEC30F027EC0FF004E10001665101010C
:1011E800B31901E0FED00201B06B6F50E00B07E0CD
:1011F800730E216E130E206EDBEC32F0DAD501018E
:1012080040EC0FF0F3EC34F0010E92EC0FF0EBEC45
:101218002EF064C0C7F265C0C8F20201C851C711F8
:101228000AE0C7C262F0C8C263F0CAEC26F0625195
:101238000201BD6F07D07B0E216E630E206EDBECC2
:1012480032F0B7D580EC0FF0EBEC2EF064C0C7F2AB
:1012580065C0C8F20201C851C71133E0C7C21FF008
:10126800C8C220F0226A3A0E216E54EC32F01FC038
:101278008EF220C08FF202018F518E1118E0C7C282
:1012880062F0C8C263F0CAEC26F062510201B06F86
:101298008E290101B36F000E02018F210101B46F85
:1012A800B3C162F0B4C163F0CAEC26F006D0C7C27D
:1012B80062F0C8C263F0CAEC26F062510201B16F55
:1012C80007D0790E216E8D0E206EDBEC32F071D5D1
:1012D80080EC0FF0EBEC2EF064C0C7F265C0C8F2EA
:1012E8000201C851C7110AE0C7C262F0C8C263F060
:1012F800CAEC26F062510201BA6F07D07B0E216E4C
:10130800930E206EDBEC32F054D50001B0C2AFF082
:10131800B06BB1C2B1F004C1B2F0B36B020EB56FDD
:10132800BA0EB46F0201BD5145EC26F0000930E059
:10133800770E216EE60E206EDBEC32F07E0E216E0B
:101348001E0E206EDBEC32F00101006705D07F0E27
:101358000201AA6FCD0E04D07E0E0201AA6FD00E34
:10136800A96F010E00016E6F550E6D6FA9C26FF067
:10137800AAC270F0BDC271F0726B14EC10F00101DA
:10138800010E216E550E206EDBEC32F01BEF0FF0D4
:10139800780E216E9F0E206EDBEC32F07E0E216EF1
:1013A8001E0E206EDBEC32F00101006705D07F0EC7
:1013B8000201AC6FCD0E04D07E0E0201AC6FD00ED0
:1013C800AB6F010E00016E6F550E6D6FABC26FF003
:1013D800ACC270F0BDC271F0726B14EC10F01BEF70
:1013E8000FF0010E0001676F050E666F7F0E696FC3
:1013F800AC0E686F3EEC30F027EC0FF004E1000112
:1014080066510101B31973E16F50E00B07E0730EE9
:10141800216E130E206EDBEC32F0CBD440EC0FF0D3
:10142800F3EC34F0010E0001636F050E626FCAEC35
:1014380026F062510201C26F7D0E216E350E206EBC
:10144800DBEC32F00101006705D07F0E0201AE6FC0
:10145800ED0E04D07F0E0201AE6F4F0EAD6F010E80
:1014680000016E6F550E6D6FADC26FF0AEC270F0B9
:10147800C2C271F0726B14EC10F00101010E216E02
:10148800550E206EDBEC32F0720E216EDA0E206EF5
:10149800DBEC32F00001B06BAF6BD00EB16F04C162
:1014A800B2F0B36B020EB56FB20EB46F0201C25147
:1014B8004EEC27F0000907E17A0E216E620E206ECD
:1014C800DBEC32F076D40201C25176EC2AF002014C
:1014D800C251CEEC27F00201C2519EEC2EF07F0ED5
:1014E800216E6A0E206EDBEC32F01BEF0FF0010E5E
:1014F8000001676F050E666F7F0E696F410E686F9A
:101508003EEC30F027EC0FF004E1000166510101D8
:10151800B31901E0F4D00201B36B72EC0FF0F3ECF5
:1015280034F088EC0FF0EBEC2EF064C0D2F265C01A
:10153800D3F20201D351D21113E0D2C262F0D3C266
:1015480063F0CAEC26F062510201B86F0F0EB8655D
:101558000ED0700E216E620E206EDBEC32F029D4B4
:10156800760E216ED60E206EDBEC32F022D431ECF2
:101578000FF0EBEC2EF064C0D2F265C0D3F202019A
:10158800D351D2110AE0D2C262F0D3C263F0CAECDE
:1015980026F062510201946F07D0750E216EE20E9B
:1015A800206EDBEC32F005D431EC0FF0EBEC2EF0D2
:1015B80064C0D2F265C0D3F20201D351D2110BE05C
:1015C800D2C262F0D3C263F0CAEC26F062C090F2D5
:1015D80063C091F208D0770E216E720E206EDBEC9C
:1015E80032F0DDEF06F039EC0FF0EBEC2EF064C0D2
:1015F800D2F265C0D3F20201D351D2110AE0D2C2AD
:1016080062F0D3C263F0CAEC26F062510201956F12
:1016180008D0770E216EC00E206EDBEC32F0DDEFC5
:1016280006F031EC0FF0EBEC2EF064C0D2F265C09E
:10163800D3F20201D351D2110AE0D2C262F0D3C26E
:1016480063F0CAEC26F062510201966F08D0760E5C
:10165800216E350E206EDBEC32F0DDEF06F0FDDB9F
:10166800EBEC2EF064C0D2F265C0D3F2D2C266F0C1
:10167800D3C267F07E0E696F540E686F3EEC30F08F
:101688006751661103E0010E0201B36F800E70EC22
:1016980035F095C2B3F1A9EC0FF090510101B76F85
:1016A80002019151CEEC0FF094C2BBF1F2DB9651DE
:1016B8000101C3110201886F0101C4510201896F40
:1016C8000101C55102018A6F0101C65102018B6FE8
:1016D80088C223F089C224F08AC225F08BC226F082
:1016E800B3C227F0B851CDEC1BF0000E70EC35F00A
:1016F8007F0E216E6A0E206EDBEC32F098D3010E5D
:101708000001676F050E666F7F0E696FA20E686F26
:101718003EEC30F098DB04E1000166510101B31999
:1017280001E0E6D0010E206E050E1F6E0D0EB36FA0
:10173800010EB46FB3C121F0B4C122F0F3EC34F060
:10174800E3DBEBEC2EF064C0D0F265C0D1F202010D
:10175800D151D01114E0D0C262F0D1C263F0CAEC0A
:1017680026F062510201BE6F010EBE6510D0730EE5
:10177800216EAE0E206EDBEC32F0DDEF06F0780E57
:10178800216E0C0E206EDBEC32F0DDEF06F065DB2F
:10179800EBEC2EF064C0D0F265C0D1F20201D15159
:1017A800D0110AE0D0C262F0D1C263F0CAEC26F0D0
:1017B80062510201976F08D0760E216E860E206E58
:1017C800DBEC32F0DDEF06F048DBEBEC2EF064C02A
:1017D800D0F265C0D1F20201D151D0110BE0D0C2D4
:1017E80062F0D1C263F0CAEC26F062C092F263C024
:1017F80093F208D0780E216E560E206EDBEC32F094
:10180800DDEF06F032DBEBEC2EF064C0D0F265C001
:10181800D1F20201D151D0110AE0D0C262F0D1C296
:1018280063F0CAEC26F062510201986F08D0780E76
:10183800216E7B0E206EDBEC32F0DDEF06F00DDB67
:10184800EBEC2EF064C0D0F265C0D1F20201D151A8
:10185800D0110AE0D0C262F0D1C263F0CAEC26F01F
:1018680062510201996F08D0770E216E4B0E206EDF
:10187800DBEC32F0DDEF06F098C2B3F166DB925193
:101888000101B76F0201935185DB97C2BBF101DB00
:1018980099510101C3110201CC6F0101C451020128
:1018A800CD6F0101C5510201CE6F0101C651020180
:1018B800CF6F800E70EC35F00201BE5108E00F01C9
:1018C8000F0E226E180E4EDBBBEC25F007D00F0171
:1018D8000F0E226E1C0E46DBBBEC25F0000E70ECE2
:1018E80035F07F0E216E6A0E206EDBEC32F09FD24F
:1018F800010E0001676F050E666F7F0E696F8E0E11
:10190800686F3EEC30F09FDA04E100016651010196
:10191800B31901E07CD2010E206E050E1F6E090E70
:10192800B36F010EB46FB3C121F0B4C122F0F3EC70
:1019380034F0010E0001676F050E666F7F0E696F48
:10194800D90E686F3EEC30F07EDA04E10001665192
:101958000101B31912E1010E006FC2EC35F0206AE3
:10196800060E1F6E010E216EC1EC34F0750E216E4D
:10197800B60E206EDBEC32F05AD2010E0001676F12
:10198800050E666F7E0E696FF00E686F3EEC30F0E4
:101998005ADA04E1000166510101B31911E1006B43
:1019A800C2EC35F0206A060E1F6E000E216AC1ECEB
:1019B80034F0760E216EAE0E206EDBEC32F037D2AC
:1019C800010E0001676F050E666F7E0E696F490E86
:1019D800686F3EEC30F06751661123E00101010E9B
:1019E800CDDAF3EC34F0010E0001636F050E626F7F
:1019F800CAEC26F062510101046F140E046101D093
:101A0800046FC2EC35F0206A090E1F6E04C121F084
:101A1800C1EC34F07F0E216E6A0E206EDBEC32F0E2
:101A280006D2010E0001676F050E666F7E0E696FA4
:101A38009C0E686F3EEC30F0675166115BE04EDA41
:101A4800F3EC34F0010E0001C3DA3EEC30F06751DC
:101A580066110AE0C2EC35F0206A070E1F6E000E10
:101A6800216AC1EC34F0E3D1A0DA3EEC30F06751E2
:101A780066110AE0C2EC35F0206A070E1F6E010EEF
:101A8800216EC1EC34F0D3D1010E99DA3EEC30F07E
:101A9800675166110AE0C2EC35F0206A070E1F6E26
:101AA800020E216EC1EC34F0C2D1010E0001A8DA99
:101AB8003EEC30F0675166110AE0C2EC35F0206A5E
:101AC800070E1F6E030E216EC1EC34F0B0D1010E6B
:101AD80000019EDA3EEC30F06751661101E1A7D1B2
:101AE800C2EC35F0206A070E1F6E040E216EC1ECA1
:101AF80034F09DD1010E0001676F050E666F7F0EF1
:101B0800696F760E686F3EEC30F06751661164E0DD
:101B18000101B2D9F3EC34F0010E0001676F050E34
:101B2800666F7E0E696FE80E686F3EEC30F06751A5
:101B3800661111E0F16BC2EC35F0206A030E1F6EDE
:101B4800000E216AC1EC34F07A0E216E460E206E2A
:101B5800DBEC32F06CD1010E0001676F050E666F89
:101B68007F0E696FB10E686F3EEC30F067516611F9
:101B780012E0010EF16FC2EC35F0206A030E1F6E01
:101B8800010E216EC1EC34F0790E216EAE0E206E7E
:101B9800DBEC32F04CD1010E0001676F050E666F69
:101BA8007F0E696F880E686F3EEC30F067516611E2
:101BB80001E13DD1020EF16FC2EC35F0206A030E4F
:101BC8001F6E020E216EC1EC34F07A0E216ECE0E1D
:101BD800206EDBEC32F02BD1010E0001676F050E91
:101BE800666F7F0E696F7C0E686F3EEC30F02BD904
:101BF80004E1000166510101B3193FE13DD9F3EC5D
:101C080034F0010E0001F4D93EEC30F06751661152
:101C180013E0010E0101016FC2EC35F0206A650E78
:101C28001F6E010E216EC1EC34F07C0E216E7B0E0E
:101C3800206EDBEC32F0FBD0010E0001D1D93EEC76
:101C480030F06751661112E00101016BC2EC35F00A
:101C5800206A650E1F6E000E216AC1EC34F07C0EFE
:101C6800216E0A0E206EDBEC32F0E1D0760E216E8A
:101C78000C0E206EDBEC32F0DAD0010E0001676F3B
:101C8800050E666F7E0E696F3E0E686F3EEC30F093
:101C9800DAD804E1000166510101B3193EE1010EF1
:101CA8006DD9F3EC34F0010E0001A2D93EEC30F00E
:101CB8006751661112E0010EF06FC2EC35F0206A30
:101CC800660E1F6E010E216EC1EC34F07C0E216E83
:101CD800A70E206EDBEC32F0AAD0010E000180D9ED
:101CE8003EEC30F06751661111E0F06BC2EC35F054
:101CF800206A660E1F6E000E216AC1EC34F07C0E5D
:101D0800216E650E206EDBEC32F091D0750E216EDF
:101D1800020E206EDBEC32F08AD0010E0001676FF4
:101D2800050E666F7E0E696F7E0E686F3EEC30F0B2
:101D38008AD804E1000166510101B3193AE1010EA4
:101D4800206E050E1F6E0E0EB36F010EB46FB3C179
:101D580021F0B4C122F0F3EC34F0010E0001636FFE
:101D6800050E626FCAEC26F062C0B4F2020163C0CD
:101D7800B5F2000EB5BFFF0EB66FB76F0D0EB45DAE
:101D8800000EB559000EB659000EB7590BE2780E81
:101D9800216EE60E206EDBEC32F00201B45100EC4D
:101DA80030F045D07A0E216E0C0E206EDBEC32F04E
:101DB8003ED0010E0001676F050E666F7E0E696FDB
:101DC800B70E686F3EEC30F03ED804E10001665172
:101DD8000101B31903E1BEEC35F029D0010E000171
:101DE800676F050E666F7F0E696FFC0E686F3EECBD
:101DF80030F029D804E1000166510101B31917E058
:101E0800790E216E6C0E206EDBEC32F010D005518D
:101E18000D0A07E17F0E216E6A0E206EDBEC32F0B0
:101E280006D07A0E216E980E206EDBEC32F001019E
:101E3800010E206E050EE4EC2EF00AEC35F00101DF
:101E4800036BF28E1200050E0101B36F010EB46F21
:101E5800000167510101B41912000001656B646B40
:101E68007F0E676FF40E666F1200656B646B7F0EF2
:101E7800676FF40E666F1200010E206E050E1F6E5E
:101E88000A0EB36F010EB46FB3C121F0B4C122F0D2
:101E98001200BC6BBD6BBE6B1A0ED890BB37BC373B
:101EA800BD37BE37E82EF9D7B751BB11BF6FB85150
:101EB800BC11C06FB951BD11C16FBA51BE11C26F0B
:101EC800B351BF11C36FB451C011C46FB551C11123
:101ED800C56FB651C211C66F020112000101010E91
:101EE800206E050E1F6E0D0EB36F010EB46FB3C1D9
:101EF80021F0B4C122F012000001656B646B7E0E04
:101F0800676F720E666F1200010E0001656F050E95
:101F1800646F7F0E676FF40E666F12000001656FC5
:101F2800050E646F7E0E676F720E666F12000201F7
:101F3800C151C0C2B3F10101B46BB327000EB42381
:101F4800B3510001716F726B12000101B46BB56B74
:101F5800B66BB5C1B6F1B4C1B5F1B3C1B4F1B36BE9
:101F680002011200216ECCC223F0CDC224F0CEC2F1
:101F780025F0CFC226F0010E276E010C206E050E4B
:101F88001F6E0F0EB36F010EB46FB3C121F0B4C151
:101F980022F012000101B86FB96BBA6BB8C1BAF17F
:101FA800B7C1B9F1B86BB76B1200010E0001676FCA
:101FB800050E666F7F0E696FA70E686F120000012D
:101FC800676F050E666F7F0E696F480E686F1200A7
:101FD800676F050E666F7F0E696F820E686F12005D
:101FE800676F050E666F7F0E696FD10E686F1200FE
:101FF800676F050E666F7E0E696FFD0E686F1200C3
:10200800676F050E666F7F0E696F3A0E686F120074
:10201800676F050E666F7E0E696FAE0E686F1200F1
:10202800710E7F6F30D38851250A09E06DC0D9FF42
:102038006EC0DAFF88C0DFFF6D4B6E2B24D3826B36
:10204800836B896B8A6B09D0898705D0898103D016
:102058008A8701D089856F4B702B6FC0F6FF70C0DF
:10206800F7FF0800F550200AF1E0030AF1E00E0A34
:10207800EBE01D0AEFE089B789956FC0F6FF70C0E5
:10208800F7FF0800F55043EC35F026E30001826BBA
:10209800836B82C023F083C024F0266A0A0E256E63
:1020A8004FEC34F023C082F024C083F06FC0F6FFF9
:1020B80070C0F7FF0800F5CF75F0D00E7525766F64
:1020C800776BFF0E7723765182277751832339DB8D
:1020D80043EC35F015E3DDD700016FC0F6FF70C0A3
:1020E800F7FF0800F5502A0A0BE17F51D96EDA6A2A
:1020F800DECF82F0DDCF83F0020E7F276F4B702B8F
:1021080000016FC0F6FF70C0F7FF0800F5502E0AF7
:1021180037E18A8D16DB2A0A0CE17F51D96EDA6A1B
:10212800DECF80F0DDCF81F0020E7F276F4B702B62
:1021380088D0806B816B1AD080C023F081C024F0D6
:10214800266A0A0E256E4FEC34F06FC0F6FF70C099
:10215800F7FF0800F5502326000E2422D00E232472
:10216800806FFF0E2420816F6F4B702B6FC0F6FFBE
:1021780070C0F7FF0800F55043EC35F062E3DCD798
:10218800806B816B5ED089895CD0898D70D0898B9A
:10219800898F6DD08151801109E08551805D86510C
:1021A800815904E280C085F081C086F08251855D46
:1021B8008351865907E220EE85F0DE50825FDD50BC
:1021C800835B02D0826B836B89A704D015D0A8DA11
:1021D8006D4B6E2B8207C3DAD8B483290DE0F7D78D
:1021E8008451D96EDA6A6DC0E1FF6EC0E2FFDFCFBD
:1021F800E7FF842B6D4B6E2B8507D8A0860700015F
:102208008529D8B48629ECE189B704D03CD288DA8C
:102218006D4B6E2B8207A3DAD8B4832901E133D240
:10222800F6D77F51D96EDA6ADF50886F020E7F27A2
:10223800880E846F866B010E856FACD7C00E89132C
:1022480016D0000174DA885101E121D2580A9FE0C2
:102258003B0AE7E0070A0BE00D0A09E0050A93E0EC
:10226800030A93E01A0AEAE00D0A92E0E1D78951DD
:10227800C00B20E189A903D07F5147DA0DD07F51E7
:10228800D96EDA6ADECF84F0DDCF85F0000E85BF27
:10229800FF0E866F876F020E7F2787AF1FD0030E52
:1022A8008913871F861F851F846D000E852386234B
:1022B800872314D089A903D07F5127DA0ED07F5104
:1022C800D96EDA6ADECF75F0DDCF76F075C084F0AE
:1022D80076C085F0866B876B020E7F27815180114F
:1022E8005CE1875184118511861157E1804B812B60
:1022F80054D0010E886F88510A0A58E08851040D9D
:102308001C0EF324F66E6E0EF420F76E0900F550DD
:10231800845D0900F55085590900F5508659090072
:10232800F550875943E3882BE6D7010E886F88510B
:10233800080A3CE08851040D440EF324F66E6E0E34
:10234800F420F76E0900F550845D0900F5508559B1
:102358000900F55086590900F550875927E3882B5D
:10236800E6D7010E886F88510C0A20E08851040DC9
:10237800EC0EF324F66E6D0EF420F76E0900F5509E
:10238800845D0900F55085590900F5508659090002
:10239800F55087590BE3882BE6D78951C00BA9E084
:1023A800400ADFE0C00AC1E0400AA3E0800E88BF0F
:1023B8007F0E756F8051885D8151800A755903E2DF
:1023C80080C088F00FD08151800A756F8851805D78
:1023D800800E88BF7F0E755905E28851806F816B2A
:1023E80080BF81078351821106E08951030B03E006
:1023F8008207D8A083078AAD10D08151800A756FF3
:102408008251805D8351800A755905E28051825F4F
:102418008151835B02D0826B836BC40E4ED9400E10
:10242800D8B4751907E18351821118E08207D8A042
:10243800830714D0C00E41D9800ED8B475190EE1A7
:102448008351800A800F030ED8B4825D05E3FE0E27
:102458008227FF0E832302D0826B836B800E88BF96
:102468007F0E756F8251885D8351800A755907E226
:102478008851825F000E88BFFF0E835B02D0826B9B
:10248800836B89A53CD08951030B09E06DC0D9FF46
:102498006EC0DAFF2D0EDF6E6D4B6E2B22D089A138
:1024A80006D06DC0D9FF6EC0DAFF200EF4D7C00E7B
:1024B80004D9800ED8B4751914E16DC0D9FF4AD972
:1024C8006D4B6E2B89BB03D07A6B780E02D07A6B7A
:1024D800580E796F6DC0D9FF6EC0DAFF79C0DFFF83
:1024E800DBD78351821101E1B9D06DC0D9FF32D950
:1024F8006D4B6E2B8207D8A083070001F2D783515A
:102508008211D8A489B704D06DC0D9FFF1D8FCE1F5
:102518008951030B09E06DC0D9FF6EC0DAFF2D0E9B
:10252800DF6E6D4B6E2B08D089A106D06DC0D9FF28
:102538006EC0DAFF200EF4D7C00EBFD8400ED8B454
:10254800751906E16DC0D9FF05D96D4B6E2B86D084
:10255800C00EB3D8800ED8B4751901E07FD06DC015
:10256800D9FFF8D86D4B6E2B89BB03D07C6B780EE6
:1025780002D07C6B580E7B6F6DC0D9FF6EC0DAFF3E
:102588007BC0DFFFE2D780C075F081C076F0D890BD
:1025980075377637D890753776371C0E7525F66EF1
:1025A8006E0E7CD884C01FF085C020F086C021F054
:1025B80087C022F07BEC30F022C068F021C067F0C1
:1025C80020C066F01FC065F00A0E696F000E6A6BC6
:1025D8006B6B6C6BC4EC31F065512DD076D8440E22
:1025E8007525F66E6E0E5AD87BEC30F01F500F0B27
:1025F800786F89BB04D07D0E7E6FB70E03D07D0E39
:102608007E6FA60E7D6F78517D25756F000E7E2139
:10261800766F75C0F6FF76C0F7FF0800F5CF88F033
:1026280016D053D8EC0E7525F66E6D0E37D87BECA8
:1026380030F01F50070B300F886F09D08951C00B3D
:10264800A2E0400AEEE0C00AC9E0400A9CE06DC082
:10265800D9FF6EC0DAFF88C0DFFF77D78007D8A020
:10266800810700018029D8B48129E8E189A70BD026
:102678008351800A800F010ED8B4825D04E36DC0D7
:10268800D9FF36D8FCE153D800018867CCD46DC097
:10269800D9FF6EC0DAFF000EDF6E000C7621F76EF0
:1026A8000900F5CF23F00900F5CF24F00900F5CF94
:1026B80025F00A00F5CF26F012008915756F080E6F
:1026C8008A15766F7651080A120084C01FF085C0FB
:1026D80020F086C021F087C022F080C075F081C04C
:1026E80076F0D89075377637D890753776371200E8
:1026F8006EC0DAFF200EDF6E6D4B6E2B8207D8A0FE
:1027080083070001835182111200D96EDA6ADECF85
:1027180084F0DECF85F0DECF86F0DECF87F0040CC4
:102728006DC0D9FF6EC0DAFF200EDF6E200C6FC0BF
:10273800F6FF70C0F7FF6F4B702B0800F5CF88F0DD
:1027480012006F4B702B6FC0F6FF70C0F7FF0800C8
:10275800F55012006EC0DAFF300EDF6E300CD8A0D4
:1027680083070001822912009C6BBFEC21F0F29EC6
:102778000001000E206EF40E1F6E000E226E9B0EDE
:10278800216E246A010E236EA3EC29F01F04201089
:1027980001E0C8D1F28E9B510D0A01E17CD1010103
:1027A800C3D99BC0DFFF032BBED10101010E206EF0
:1027B800050E1F6E31EC34F01F04201001E098D193
:1027C8007C0E216EE50E206EDBEC32F017D1010194
:1027D800010E206E050E1F6E31EC34F01F04201020
:1027E80001E086D17E0E216EC00E206EDBEC32F049
:1027F80005D10101010E206E050E1F6E31EC34F07B
:102808001F04201001E074D17E0E216EC80E206EC8
:10281800DBEC32F0F3D0010EEE6FF2D0EF6703D0AD
:10282800010EEE6F9C6F0101010E206E050E1F6EEA
:1028380031EC34F01F04201001E05AD10001EF6799
:1028480057D1EE5101E154D1000E70EC35F0010E74
:102858000001EF6FD3D00101010E206E050E1F6E2F
:1028680031EC34F01F04201001E042D10001EF5197
:1028780001E1C4D0200E70EC35F00001EF6BBED042
:10288800EF5101E135D10101010E206E050E1F6ED9
:1028980031EC34F00A0E1F5C000E205801E228D1FA
:1028A8000101010E246E550E236E500E256E010E89
:1028B800276E050E266E50EC2EF08F6F050E8F5D7D
:1028C80001E216D158C18FF0080E8F2757C190F03A
:1028D800100E902756C191F0180E912755C192F00D
:1028E8000001936B946B956B912B01D024D9912F98
:1028F800FDD7902B01D01FD9902FFDD78F2B01D05A
:102908001AD98F2FFDD795C099F094C098F093C02D
:1029180097F092C096F0A9C19AF0080E9A6501D076
:10292800E7D0D8909A358F6F906B90370A0E8F2723
:10293800000E90230101010E206E050E1F6E31EC72
:1029480034F000018F511F5C9051205801E2D0D023
:10295800010E206EA50E1F6EAA0E8F6F010E906FCE
:102968008FC021F090C022F09AC023F0246A93EC23
:1029780033F096C088F097C089F098C08AF099C063
:102988008BF09AC08CF0010E00018E6FA50E8D6F32
:1029980089EC34F035D0EF5101E1AAD00101010EE4
:1029A800206E050E1F6E31EC34F01F04201001E07C
:1029B8009FD07F0E216E640E206EDBEC32F098D033
:1029C8000101010E206E050E1F6E31EC34F01F5010
:1029D800020A201001E08CD00001EF6789D00101C4
:1029E8000651300A0FE10001F26BC2EC35F0206AA3
:1029F800050E1F6E000E216AC1EC34F0010E0001B5
:102A08009C6F76D00651310A0DE1010E0001F26F7C
:102A1800C2EC35F0206A050E1F6E010E216EC1EC66
:102A280034F0ECD700019C6B63D0C2EC35F0206A1F
:102A3800010E1F6EFF0E2168C1EC34F0FF0058D064
:102A480001010651760A0DE10751730A0AE108519E
:102A5800630A07E10951700A04E1010E0001F16FF0
:102A680047D00651760A44E10751650A41E1085109
:102A7800720A3EE10951620A3BE10001F16B38D06C
:102A88000101010E206E050E1F6E31EC34F020504E
:102A98001F10B4E02DD09B51400AD2E0020AC5E0D5
:102AA800010A01E1D8D6050A01E175D70C0A01E14E
:102AB8007CD6070AA3E0030A01E19BD6010A01E1DB
:102AC800B2D61D0A15E0010A01E1A5D6070A01E1FF
:102AD800D7D6020A01E17BD60C0A01E171D7370A81
:102AE8008DE01F0A05E0010A01E198D6070AC8E14E
:102AF80000019C5107E07F0E216EF20E206EDBEC88
:102B080032F006D07F0E216EF00E206EDBEC32F034
:102B18000101010E206E050EE4EC2EF00AEC35F0F2
:102B28000101036BF28E1200050E0325D96EDA6AD5
:102B3800010EDA221200D8909237933794379537DE
:102B48001200000120EEFDF0010EDF6403D0FDEC61
:102B58001CF002D00DEC1FF0F29E0001000E206E5A
:102B6800F40E1F6E000E226EB60E216E246A010E40
:102B7800236EA3EC29F01F04201001E062D1F28E2D
:102B88004F0E0101036503D0036B306A336A336665
:102B98000FD030500AE0306A0001B651020A29E12C
:102BA800010E336E0101036B24D0010E306E4AD141
:102BB80033041FE1305018E0306A0001B651030AAF
:102BC80003E1020E336E15D0B651100A12E101016D
:102BD80098EC15F0B6C0DFFF032B4F0E036532D11A
:102BE800306A036B336A2ED10001B651100ADDE05A
:102BF800EED73350020A01E024D1336A010E0001F6
:102C0800646F050E636F03C165F0DBEC34F00009F7
:102C180003E0AEEC2DF016D10101056703D05CECA2
:102C28002DF00CD1050503E1AEEC2DF007D10551CF
:102C3800020A05E14DEC28F00009F1E1F5D705514C
:102C4800060A03E1C6EC35F0F7D70551060AECE0B1
:102C58000551030A5AE10A6701D0E1D70A051BE1C9
:102C680009C1B0F035D901D02FD9B02FFDD7B15156
:102C7800020AB211D9E1040E01010B61D5D70BC1CB
:102C8800F1F0C2EC35F0206A030E1F6E0BC121F083
:102C9800C1EC34F0C4D70A51020A1EE109C1B0F0F0
:102CA80017D901D011D9B02FFDD7B151020AB211ED
:102CB800BBE101010B5104E0010E0001F06F02D0ED
:102CC8000001F06BC2EC35F0206A660E1F6E0BC176
:102CD80021F0C1EC34F0A3D70A51030AA5E109C1D8
:102CE800B0F0F6D801D0F0D8B02FFDD7B151020A14
:102CF800B2119AE10D0E01010B6196D75CEC2DF033
:102D080001010B5100EC30F099D00551040A8CE018
:102D18000551080A07E10AC1FCF00BC1FDF0A2EC5D
:102D28002BF08CD0052901E086D00A6706D0000E6A
:102D38000001666B36EC29F081D00A050AE1000E25
:102D480070EC35F0010E0001666F000E36EC29F0CC
:102D580075D00A51020A0AE1400E70EC35F0020EF5
:102D68000001666F000E36EC29F068D00A51030A9C
:102D78000AE1600E70EC35F0030E0001666F000E7C
:102D880036EC29F05BD00A51040A0AE1200E70ECF7
:102D980035F0040E0001666F000E36EC29F04ED0B7
:102DA8000A51050A22E172D8D8B4B15D0BE2100EBF
:102DB80001010B6107D0050E0001666F010E36ECAC
:102DC80029F03CD0800E70EC35F03DD8B46FB4518A
:102DD80072D8CDEC1BF0000E70EC35F0050E00013A
:102DE800666F000E36EC29F029D00A51060A01E078
:102DF8001BD74CD8D8B4B15D0BE2020E01010B61B0
:102E080007D0050E0001666F010E36EC29F016D0CA
:102E1800800E70EC35F017D8B56FB5514CD8CDECA5
:102E28001BF0000E70EC35F0050E0001666F010E08
:102E380036EC29F003D0020E40EC2BF00101036BB5
:102E4800336AF28E12000FC1B0F0080E0001B027ED
:102E58000EC1B1F0100EB1270DC1B2F0180EB22795
:102E68000CC1B3F0B22B02D0D890B337B22FFCD735
:102E7800B12B02D0D890B337B12FFCD7B02B02D0EA
:102E8800D890B337B02FFCD7B351120008C1B0F0B7
:102E9800080E0001B027010108510001B16FB26BA3
:102EA800B02B03D0D890B137B237B02FFBD7B2517F
:102EB800800A800F060C236E246A256A266A10C1D0
:102EC80027F001010B511200D890B137B237120028
:102ED800080E0001B027010108510001B16FB26B63
:102EE800B02B1200010E00016D6FAD0E6C6F010E5C
:102EF8006F6FB20E6E6F010E716FAF0E706F010EB5
:102F0800736FB00E726F010E756FB10E746F010E94
:102F1800776FA50E766F7DEC2FF0000901E18FD158
:102F2800D22B000ED323D423D5230101B1510001A4
:102F3800CE27000ECF23D023D1237F0E216E2C0E57
:102F4800206EDBEC32F00101006705D07F0E000136
:102F5800956FED0E04D07F0E0001956F4F0E946FA4
:102F6800010E00016E6F550E6D6F94C06FF095C025
:102F780070F0B0C171F0726B14EC10F00101010E29
:102F8800216E550E206EDBEC32F00001F05152E05C
:102F98007E0E216E260E206EDBEC32F001010067FA
:102FA80005D07F0E0001976FDD0E04D07F0E000163
:102FB800976F000E966F91EC35F01FC023F020C07C
:102FC80024F0266A0A0E256E4FEC34F0E2C08BF02E
:102FD800E3C08CF0E4C08DF0E5C08EF08CC08EF0BC
:102FE8008BC08DF08C6B8B6B23518B11906F2451A0
:102FF8008C11916F000E8D11926F000E8E11936FD0
:10300800010E00016E6F550E6D6F96C06FF097C080
:1030180070F090C071F091C072F092C073F093C0DC
:1030280074F014EC10F00101010E216E550E206EA3
:10303800DBEC32F07E0E216EE00E206EDBEC32F01F
:103048000101006705D07F0E0001996FED0E04D0D5
:103058007F0E0001996F560E986F010E00016E6F7A
:10306800550E6D6F98C06FF099C070F0ADC171F0DA
:10307800AEC172F014EC10F00101010E216E550E74
:10308800206EDBEC32F07F0E216E1E0E206EDBEC24
:1030980032F00101006705D07F0E00019B6FED0E35
:1030A80004D07F0E00019B6F4F0E9A6F010E000136
:1030B8006E6F550E6D6F9AC06FF09BC070F0B2C105
:1030C80071F0726B14EC10F00101010E216E550EB7
:1030D800206EDBEC32F07E0E216EA50E206EDBEC4E
:1030E80032F00101006705D07F0E00019D6FED0EE3
:1030F80004D07F0E00019D6F4F0E9C6F010E0001E2
:103108006E6F550E6D6F9CC06FF09DC070F0AFC1B3
:1031180071F0726B14EC10F00101010E216E550E66
:10312800206EDBEC32F07F0E216E250E206EDBEC7C
:1031380032F00101006705D07F0E00019F6FED0E90
:1031480004D07F0E00019F6F4F0E9E6F010E00018D
:103158006E6F550E6D6F9EC06FF09FC070F0B1C15D
:1031680071F0726B14EC10F00101010E216E550E16
:10317800206EDBEC32F00101B15153E07F0E216E7D
:10318800170E206EDBEC32F00001A26B44D0010177
:10319800006705D07F0E0001A16FED0E04D07F0EF1
:1031A8000001A16F4F0EA06F010E00016E6F550E4A
:1031B8006D6FA0C06FF0A1C070F0A50EA225D96EEA
:1031C800DA6A010EDA22DF50716F726B14EC10F0BC
:1031D8000101010E216E550E206EDBEC32F0FF0E60
:1031E8000101B12500018B6F8C6BFF0E8C23A2515E
:1031F8008D6F8E6B8E51800A8F6F8B518D5D8C51C8
:10320800800A8F5906E27F0E216EF40E206EDBECE9
:1032180032F00001A22B0101B1510001A25D07E2C9
:10322800B6D77E0E216E5F0E206EDBEC32F07F0E7D
:10323800216EC90E206EDBEC32F0010E01D0000EBB
:1032480012007C0E216E210E206EDBEC32F00101A3
:10325800006705D07F0E00018C6FDD0E04D07F0E55
:1032680000018C6F000E8B6F010E00016E6F550E02
:103278006D6F8BC06FF08CC070F0C6C071F0C7C0A6
:1032880072F0C8C073F0C9C074F014EC10F00101FA
:10329800010E216E550E206EDBEC32F0720E216E9F
:1032A800DA0E206EDBEC32F07B0E216EDB0E206E28
:1032B800DBEC32F00101006705D07F0E00018E6F54
:1032C800DD0E04D07F0E00018E6F000E8D6F010E93
:1032D80000016E6F550E6D6F8DC06FF08EC070F06F
:1032E800CAC071F0CBC072F0CCC073F0CDC074F01E
:1032F80014EC10F00101010E216E550E206EDBEC6E
:1033080032F0720E216EDA0E206EDBEC32F07B0E9C
:10331800216EC30E206EDBEC32F00101006705D090
:103328007F0E0001906FDD0E04D07F0E0001906FBC
:10333800000E8F6F010E00016E6F550E6D6F8FC0FE
:103348006FF090C070F0E6C071F0E7C072F0E8C0AE
:1033580073F0E9C074F014EC10F00101010E216E55
:10336800550E206EDBEC32F0720E216EDA0E206EF6
:10337800DBEC32F07B0E216EC30E206EDBEC32F0FC
:103388000101006705D07F0E0001926FDD0E04D0A9
:103398007F0E0001926F000E916F010E00016E6F9B
:1033A800550E6D6F91C06FF092C070F0EAC071F069
:1033B800EBC072F0ECC073F0EDC074F014EC10F0D8
:1033C8000101010E216E550E206EDBEC32F0720EFB
:1033D800216EDA0E206EDBEC32F074A006D0730E8C
:1033E800216E470E206EDBEC32F07B0E216E010E53
:1033F800206EDBEC32F00101006705D07F0E000182
:10340800946FED0E04D07F0E0001946F4F0E936FF2
:10341800010E00016E6F550E6D6F93C06FF094C072
:1034280070F076CF71F0726B14EC10F00101010EA0
:10343800216E550E206EDBEC32F0720E216EDA0E24
:10344800206EDBEC32F074A406D0700E216EE20E12
:10345800206EDBEC32F074AA06D0720E216EA70E35
:10346800206EDBEC32F074A806D0710E216E1D0EB2
:10347800206EDBEC32F07B0E216EAB0E206EDBECA7
:1034880032F00101006705D07F0E0001966FED0E46
:1034980004D07F0E0001966F4F0E956F010E00014C
:1034A8006E6F550E6D6F95C06FF096C070F075CF4A
:1034B80071F0726B14EC10F00101010E216E550EC3
:1034C800206EDBEC32F0720E216EDA0E206EDBEC31
:1034D80032F074A606D0720E216E020E206EDBEC5E
:1034E80032F074A206D0710E216E910E206EDBECC4
:1034F80032F012000001C66BC76BC86BC96BCA6B90
:10350800CB6BCC6BCD6BE66BE76BE86BE96BEA6B6F
:10351800EB6BEC6BED6BE26BE36BE46BE56B206ADA
:10352800060E1F6EA3EC35F00101006F206A030E32
:103538001F6EA3EC35F00001F16F206A650E1F6E57
:10354800A3EC35F00101016F206A660E1F6EA3EC33
:1035580035F00001F06F206A090E1F6EA3EC35F0FC
:103568000101046F800E70EC35F00001846B84510A
:103578006B6F6C6BD8906B376C37D8906B376C3738
:10358800220E6B251F6E000E6C21206EA3EC35F009
:1035980000016D6F6DC06EF06F6B706B716B70C0FA
:1035A80071F06FC070F06EC06FF06E6B8451040DD7
:1035B800210EF3241F6E000EF420206EA3EC35F0CC
:1035C8000001726F72C073F0746B756B766B74C0A8
:1035D80076F073C075F0746B736B8451040D200E14
:1035E800F3241F6E000EF420206EA3EC35F00001CA
:1035F800776F77C078F0796B7A6B7B6B78C07BF0EC
:103608007A6B796B786B735178257C6F745179215B
:103618007D6F75517A217E6F76517B217F6F6E5158
:103628007C25806F6F517D21816F70517E21826F63
:1036380071517F21836F8451040D230EF3241F6E73
:10364800000EF420206EA3EC35F000018025236ED7
:10365800000E8121246E000E8221256E000E83212A
:10366800266E276A8451CDEC1BF00001842B0E0EC8
:1036780084657DD70F010F0E226E180E216E206A09
:10368800620E1F6EA3EC35F056D8610E1F6EA3ECC8
:1036980035F070D8600E1F6EA3EC35F026D8630E97
:1036A8001F6EA3EC35F057D8BBEC25F00F010F0EB9
:1036B800226E1C0E216E206A660E1F6EA3EC35F07A
:1036C8003AD8650E1F6EA3EC35F054D8640E1F6E01
:1036D800A3EC35F00AD8670E1F6EA3EC35F03BD883
:1036E800BBEC25F0200E70EF35F00001756F75C04A
:1036F80076F0776B786B796B76C079F0786B776B4F
:10370800766B715176257A6F725177217B6F735181
:1037180078217C6F745179217D6F6C517A257E6F89
:103728006D517B217F6F6E517C21806F6F517D21A0
:10373800816F206A120000016B6F6BC06CF06D6BBB
:103748006E6B6F6B6EC06FF06DC06EF06CC06DF01D
:103758006C6B206A120000017E25236E000E7F210B
:10376800246E000E8021256E000E8121266E010E2A
:10377800276E010C0001706F70C071F0726B736B73
:10378800746B72C074F071C073F0726B716B206AE5
:103798001200E8CF66F0150E0001606F23C061F0DB
:1037A80024C062F025C063F026C064F0606701D0D1
:1037B80007D064356433633362336133602FF6D7DF
:1037C8006151676F23C060F0030E60170D0E616FC3
:1037D80023C062F024C063F025C064F026C065F001
:1037E800616701D007D0653565336433633362336D
:1037F800612FF6D76251E00B60110809686F24C089
:1038080069F023C06AF090D067C000FF68C001FF6C
:1038180069C002FF6AC003FFAAD067C004FF68C07E
:1038280005FF69C006FF6AC007FFA1D067C008FF8F
:1038380068C009FF69C00AFF6AC00BFF98D067C05B
:103848000CFF68C00DFF69C00EFF6AC00FFF8FD064
:1038580067C010FF68C011FF69C012FF6AC013FF7C
:1038680086D067C014FF68C015FF69C016FF6AC01C
:1038780017FF7DD067C060FD68C061FD69C062FD4B
:103888006AC063FD74D067C064FD68C065FD69C027
:1038980066FD6AC067FD6BD067C068FD68C069FDDA
:1038A80069C06AFD6AC06BFD62D067C070FD68C000
:1038B80071FD69C072FD6AC073FD59D067C074FD9F
:1038C80068C075FD69C076FD6AC077FD50D067C0D5
:1038D80078FD68C079FD69C07AFD6AC07BFD47D074
:1038E80067C080FD68C081FD69C082FD6AC083FD34
:1038F8003ED067C084FD68C085FD69C086FD6AC08A
:1039080087FD35D067C088FD68C089FD69C08AFD1C
:103918006AC08BFD2CD067C090FD68C091FD69C05E
:1039280092FD6AC093FD23D0665101E16DD7010A6B
:1039380001E173D7030A01E179D7010A80E0070A98
:1039480087E0010A8EE0030A95E0010A9CE00F0A6D
:10395800A3E0010AAAE0030AB1E0010AB8E0070AF5
:10396800BFE0010AC6E0030ACDE0010AD4E027500F
:1039780034E0C2EC35F032D8200E60251F6E000E00
:103988006121206E3FC021F0C1EC34F0C2EC35F06B
:1039980025D8210E60251F6E000E6121206E3EC0C5
:1039A80021F0C1EC34F0C2EC35F018D8220E6025B5
:1039B8001F6E000E6121206E3DC021F0C1EC34F075
:1039C800C2EC35F00BD8230E60251F6E000E612166
:1039D800206E3CC021F0C1EC34F0120000016651A9
:1039E800606F616BD89060376137D8906037613706
:1039F8001200846B786B000EFDD85EEC2CF0000989
:103A080001E1E7D0836BD22B000ED323D423D52337
:103A18008251CE27000ECF23D023D123ACA2FED7CC
:103A2800100E87EC35F0ACA2FED7020E87EC35F00D
:103A3800ACA2FED70001F0510DE00C0E87EC35F07A
:103A48000001000E616F830E606F0C0E626F6DECEB
:103A580034F00CD0060E87EC35F00001000E616FD3
:103A6800830E606F060E626F6DEC34F0ACA2FED769
:103A7800000E87EC35F00001000E616F830E606F59
:103A8800000E626B6DEC34F00001000E646F830E63
:103A9800636FF351F5EC31F00001F32BA3D881C02B
:103AA800DFFF98D880C0DFFF95D87FC0DFFF92D8AE
:103AB8007EC0DFFF842BF05132E091EC35F01FC05F
:103AC80023F020C024F0266A0A0E256E4FEC34F04D
:103AD800E2C06CF0E3C06DF0E4C06EF0E5C06FF0DA
:103AE8006DC06FF06CC06EF06D6B6C6B23516C1118
:103AF800796F24516D117A6F000E6E117B6F000E75
:103B08006F117C6F6FD87CC0DFFF64D87BC0DFFF8C
:103B180061D87AC0DFFF5ED879C0DFFF842B62D816
:103B280082C0DFFF842B7D6B0FD07D51700FD96E63
:103B3800DA6A550E00018425E16EE26A010EE2227E
:103B4800DFCFE7FF842B7D2B82517D5DEEE3782B61
:103B5800FD51786109D0050E786106D0000E4AD86B
:103B68005EEC2CF000099AE1000E646F830E636F1F
:103B7800000EF5EC31F00001000E646F830E636FE8
:103B88008451F5EC31F000017D6B11D0000E646FAB
:103B9800830E636F550E00017D25D96EDA6A010127
:103BA800010EDA22DF50F5EC31F000017D2B845153
:103BB8007D5DECE3646B636B8351F5EC31F0ACA293
:103BC800FED7100E87EC35F0ACA2FED7030E87ECBB
:103BD80035F01200842B550E8425D96EDA6A010E51
:103BE800DA221200550E00018425D96EDA6A010E18
:103BF800DA221200696F820E686F000E6B6F700E0A
:103C08006A6F7E0E1200E8CF0EF02F6A7750C00B55
:103C1800106E106632D060AE12D0A49074AE06D08A
:103C28000B50D96EDA6A000EDB86749E60A002D053
:103C38002F8001D02F900F0E136E600E1AD00F0137
:103C480050AF19D0A49274AC06D00B50D96EDA6A72
:103C5800000EDB86749C5051070B2F6E020E2F60EE
:103C680005D00B50D96EDA6A000EDB8E0F0E136E7C
:103C7800500E126E65D0000EC4D01050400A46E1B6
:103C880060AE04D00F0E136E600E3ED00F0150AF21
:103C980004D00F0E136E500E37D00D01F8B507D0B3
:103CA8000E0120AF04D00E0E136E200E2DD00D0184
:103CB800F8B707D00E0130AF04D00E0E136E300ED9
:103CC80023D00D01F8B907D00E0140AF04D00E0E75
:103CD800136E400E19D00D01F8BB05D00E0150AF80
:103CE80002D00E0ED7D70D01F8BD05D00E0160AF7A
:103CF80002D00E0EC8D70D01F8BFBDD70E0170AFA8
:103D0800BAD70E0E136E700E126E0AD074AEB3D7F9
:103D18006F50070BB6EC30F001C012F002C013F080
:103D280012C0D9FF13C0DAFFDF501F0B2F6EA49209
:103D380074AC06D00B50D96EDA6A000EDB86749C20
:103D480012C00CF013C00DF00B50D96EDA6ADF6A9E
:103D580020EE05F057D80A50D96EDA6A11500F0BC9
:103D6800DF6E11AC05D00B50D96EDA6A000EDB8C11
:103D780020EE02F047D811A608D00B50D96EDA6AA7
:103D8800000EDB8A010E116E01D0116A1228016E35
:103D9800000E1320026E0EC003F011C004F02CECCC
:103DA80025F0060E1226000E13220A50D96EDA6A82
:103DB800DF50116E0F6A0FD012C0D9FF13C0DAFF9F
:103DC80008C0E1FF09C0E2FFDFCFE7FF124A132A6C
:103DD800084A092A0F2A11500F5CEEE3A4AE06D058
:103DE8000B50D96EDA6A000EDB88A49E0CC0D9FF8E
:103DF8000DC0DAFF7F0EDF161050800AD8B4749E0B
:103E0800010E12001250D9261350DA22DF50116E1B
:103E18001200000E696F810E686F000E6B6F700ED6
:103E28006A6F7D0E5EEC2CF0000901E1E4D0826B34
:103E3800D22B000ED323D423D5238151CE27000EB5
:103E4800CF23D023D123ACA2FED7100E87EC35F0B8
:103E5800ACA2FED7020E87EC35F0ACA2FED700016B
:103E6800F0510DE00B0E87EC35F00001000E616F8C
:103E7800820E606F0B0E626F6DEC34F00CD0020E88
:103E880087EC35F00001000E616F820E606F020E44
:103E9800626F6DEC34F0ACA2FED7000E87EC35F003
:103EA8000001000E616F820E606F000E626B6DEC98
:103EB80034F00001000E646F820E636FF351F5EC6D
:103EC80031F00001F32B000E646F820E636F000E59
:103ED800F5EC31F091D8050FF5EC31F00001000E4A
:103EE800646F820E636F8051F5EC31F00001000EB3
:103EF800646F820E636F7F51F5EC31F00001000EA4
:103F0800646F820E636F7E51F5EC31F00001000E94
:103F1800646F820E636F7D51F5EC31F00001F05152
:103F280045E091EC35F01FC023F020C024F0266A4C
:103F38000A0E256E4FEC34F0E2C06CF0E3C06DF071
:103F4800E4C06EF0E5C06FF06DC06FF06CC06EF04D
:103F58006D6B6C6B23516C11796F24516D117A6FF5
:103F6800000E6E117B6F000E6F117C6F000E646F78
:103F7800820E636F00017C51F5EC31F00001000EF8
:103F8800646F820E636F7B51F5EC31F00001000E17
:103F9800646F820E636F7A51F5EC31F00001000E08
:103FA800646F820E636F7951F5EC31F025D8F5EC2A
:103FB80031F00001786B0DD0000E646F820E636FD4
:103FC8007851700FD96EDA6ADF50F5EC31F00001E4
:103FD800782B8151785DF0E3646B636B8251F5EC6B
:103FE80031F0ACA2FED7100E87EC35F0ACA2FED7AC
:103FF800030E87EC35F012000001000E646F820E8C
:10400800636F81511200010E0001FC6FFD6F000EFD
:10401800206EF40E1F6E0201020E226E000E216E3B
:10402800246A800E236EB4EC33F0340E1F6E000E3B
:10403800206E0F0E206E5F0E1F64206A040E226E23
:10404800000E216E010E246EEE0E236EB4EC33F0DA
:104058002AEC31F0206A010E1F6EA3EC35F0550AE8
:1040680007E1206A020E1F6EA3EC35F0AA0AD8A455
:10407800BEEC35F025EC32F0820E0001C46FDD0E87
:10408800E82EFED7C42FFCD700D0780E216E310E53
:10409800206EDBEC32F0710E216E570E206EDBECD9
:1040A80032F0780E216EC30E206EDBEC32F036EC67
:1040B8002FF0F1EC30F00001F15137E0720E216E73
:1040C800700E206EDBEC32F00001DE6BDF6BE06B14
:1040D800E16B060E326E20D00400F29E0001000E45
:1040E800206EF40E1F6E000E226EC50E216E246A1D
:1040F800010E236EA3EC29F01F0420100CE1F28EB0
:10410800C551760A08E1F16B7A0E216E290E206EF0
:10411800DBEC32F00AD0F28EB80EDE5D0B0EDF5902
:10412800000EE059000EE159D7E3010E326E1DD0A2
:104138000101026B000E70EC35F025D0010E010173
:10414800026F000E70EC35F01ED00101026B600E9C
:1041580070EC35F018D00101026B400E70EC35F0B0
:1041680012D0200E70EC35F00ED0206A070E1F6EAC
:10417800A3EC35F0010ADCE0030AE0E0010AE5E01F
:10418800070AE9E0EED70400ABA202D0AB98AB88EF
:10419800F29E0001000E206EF40E1F6EB4EC2CF09F
:1041A800640E1F5C000E205802E2829801D08288BB
:1041B800F28EF16703D0BFEC03F0E5D7F10503E118
:1041C800A5EC15F0E0D7F151020A03E1B8EC13F0C1
:1041D800DAD7F151030AF4E1C5EC35F0D4D77D0EF6
:1041E800216E940E206EDBEC32F00101006705D0E1
:1041F8007F0E00018C6FDD0E04D07F0E00018C6FE6
:104208005D0E8B6F010E00016E6F550E6D6F8BC0CA
:104218006FF08CC070F0DAC071F0DBC072F0DCC0F7
:1042280073F0DDC074F014EC10F00101010E216E82
:10423800550E206EDBEC32F0720E216EDA0E206E17
:10424800DBEC32F07D0E216ED90E206EDBEC32F005
:104258000101006705D07F0E00018E6FDD0E04D0CE
:104268007F0E00018E6F5D0E8D6F010E00016E6F67
:10427800550E6D6F8DC06FF08EC070F0D6C071F0A6
:10428800D7C072F0D8C073F0D9C074F014EC10F035
:104298000101010E216E550E206EDBEC32F0720E1C
:1042A800216EDA0E206EDBEC32F07C0E216E910E60
:1042B800206EDBEC32F00101006705D07F0E0001B3
:1042C800906FDD0E04D07F0E0001906F5D0E8F6F32
:1042D800010E00016E6F550E6D6F8FC06FF090C0AC
:1042E80070F0D2C071F0D3C072F0D4C073F0D5C0F2
:1042F80074F014EC10F00101010E216E550E206EC1
:10430800DBEC32F0720E216EDA0E206EDBEC32F04E
:104318007C0E216EBC0E206EDBEC32F001010067D2
:1043280005D07F0E0001926FDD0E04D07F0E0001D4
:10433800926F5D0E916F010E00016E6F550E6D6FDD
:1043480091C06FF092C070F0CEC071F0CFC072F023
:10435800D0C073F0D1C074F014EC10F00101010E5C
:10436800216E550E206EDBEC32F0720E216EDA0EE5
:10437800206EDBEF32F0000E696F810E686F010E60
:1043880000016B6FA50E6A6F7D0E5EEC2CF00009C4
:1043980001E1AFD0D22B000ED323D423D5238151F2
:1043A800CE27000ECF23D023D123ACA2FED7540EA4
:1043B80087EC35F0010E00016E6F550E6D6F7DC0F4
:1043C8006FF07EC070F07FC071F080C072F0746BC7
:1043D800100E736FC3EC28F0826B836BACA2FED710
:1043E800300E87EC35F086D8D8B4825DF7E301014A
:1043F800010E216E550E206EDBEC32F0010E00012D
:104408006A6F550E696F81C06BF06C6B6E6B100E26
:104418006D6FA5EC34F0ACA2FED70101555187ECC5
:1044280035F00001826B836B2DD0010E00016A6F9D
:10443800550E696FA50E8225D96E010E8321DA6E9D
:10444800DF506B6F6C6B6E6B100E6D6FA5EC34F0FC
:104458000101010E206E550E1F6E31EC34F01F5015
:10446800020A201005E0ACA2FED7300E87EC35F02A
:104478000101010E216E550E206EDBEC32F00001B9
:10448800824B832B81517A6F7B6B8351800A7C6FBF
:104498007A51825D7B51800A7C59C7E3F25124E04E
:1044A800010E00016E6F550E6D6FE2C06FF0E3C034
:1044B80070F0E4C071F0E5C072F0746B100E736FA9
:1044C800C3EC28F0826B836BACA2FED7300E87EC6E
:1044D80035F010D8D8B4825DF7E30101010E216EE2
:1044E800550E206EDBEC32F0ACA2FED70D0E87EC39
:1044F80035F012000001824B832B8351800A800F14
:10450800B80C770E216E240E206EDBEC32F06F0EA5
:10451800216EF80E206EDBEC32F07A0E216E7D0EE5
:10452800206EDBEC32F0750E216E8A0E206EDBEC0D
:1045380032F0750E216E300E206EDBEC32F0730E09
:10454800216E7B0E206EDBEC32F0730E216EE00ED6
:10455800206EDBEC32F0790E216EED0E206EDBEC76
:1045680032F0740E216E120E206EDBEC32F0750EF6
:10457800216E5E0E206EDBEC32F07B0E216E330E68
:10458800206EDBEC32F0710E216ECA0E206EDBEC71
:1045980032F07B0E216EF30E206EDBEC32F0790EDA
:1045A800216E2A0E206EDBEC32F0760E216EFD0EA7
:1045B800206EDBEC32F0760E216E5E0E206EDBECA8
:1045C80032F0740E216ED30E206EDBEC32F06E0EDC
:1045D800216EFF0E206EDBEC32F06F0E216E4B0E5B
:1045E800206EDBEC32F06E0E216EB20E206EDBEC2C
:1045F80032F07B0E216E4B0E206EDBEC32F06E0E2D
:10460800216E640E206EDBEC32F07C0E216ED10E32
:10461800206EDBEC32F06F0E216E950E206EDBEC17
:1046280032F0790E216E080E206EDBEC32F0740E3B
:10463800216EA40E206EDBEC32F0740E216E750E26
:10464800206EDBEC32F0700E216E1F0E206EDBEC5C
:1046580032F0740E216E440E206EDBEC32F0720ED6
:10466800216E390E206EDBEC32F0700E216EA40E36
:10467800206EDBEC32F0770E216E990E206EDBEFA8
:1046880032F00F0E00016D6F400E6C6F0F0E6F6FE2
:10469800300E6E6F0F0E716F200E706F0E0E736FEF
:1046A800200E726F0E0E756F300E746F0E0E776FD0
:1046B800400E766F0E0E796F500E786F0E0E7B6F70
:1046C800600E7A6F0E0E7D6F700E7C6F7750C00B88
:1046D8007E6F7E6702D0020E01D0080E7F6F0D013B
:1046E800D890F8310001816F856B7DD08551020D1E
:1046F800F3506C0FD96EDA6ADECF86F0DDCF87F023
:1047080086C082F087C083F0020E856504D0D890F9
:10471800813381A167D086C0D9FF87C0DAFFDF5017
:104728006B6F6BB75FD086C0D9FF87C0DAFFFC0E0E
:10473800DF166AC06BF0030E6B1786C0D9FF87C0FF
:10474800DAFF6B51DF126AAD04D069514009846FFA
:1047580002D069C084F020EE05F08651D926875131
:10476800DA2284C0DFFF6AAB03D0010E846F01D068
:10477800846B8629216E000E8721226E63C023F088
:1047880064C024F065C025F066C026F084C027F018
:10479800BBEC25F0060E8627000E8723806B0FD012
:1047A80067C0D9FF68C0DAFF86C0E1FF87C0E2FFB3
:1047B800DFCFE7FF674B682B864B872B802B695130
:1047C800805DEEE382C0D9FF83C0DAFFDF506B6FF4
:1047D8006BB506D082C0D9FF83C0DAFF000EDB8636
:1047E800010E05D0852B7F51855D80E3000E1200F8
:1047F8000001C06BC26B6F50E00B07E0730E216EB7
:10480800130E206EDBEC32F08CD06F0E216EDC0EB6
:10481800206EDBEC32F0010E0001C36F0400E00EE5
:104828000001AF6F04C1B0F0B16BC10EB26FC351DC
:104838000DEC2AF000094AE00001C25106E0720EB0
:10484800216EDA0E206EDBEC32F07A0E216EB30E9A
:10485800206EDBEC32F00101006704D00001BF6B71
:104868000A0E03D00001BF6B100EBE6F010E0001CF
:104878006A6F550E696FAFC16BF06C6BBEC06DF09F
:10488800BFC06EF0A5EC34F00101010E216E550E8B
:10489800206EDBEC32F0720E216EDA0E206EDBEC4D
:1048A80032F00001C35176EC2AF00001C351CEEC7E
:1048B80027F00001C3519EEC2EF06F0E216EDC0E26
:1048C800206EDBEC32F00001C02B07D0010E000196
:1048D800C26F2E0E87EC35F0AC500001C32BC367B6
:1048E8009DD7720E216EDA0E206EDBEC32F0010ECF
:1048F80000016A6F550E696FC0C06BF06C6B6E6B10
:104908000A0E6D6FA5EC34F00101010E216E550EF3
:10491800206EDBEC32F07D0E216EC80E206EDBECD3
:1049280032F0120003C00DF004C00EF00F6A106AD6
:10493800116A126A68D020EE04F0015072D802E1C0
:1049480009500B1811E020EE06F001506AD802E178
:1049580009500B180EE120EE04F00150D926025040
:10496800DA22DE50DD1005E10FC001F010C002F0C0
:1049780057D00DC0D9FF0EC0DAFF10EE02F001507B
:10498800E1260250E222E6CF09F0E5CF0AF001C0A5
:10499800E1FF02C0E2FFE6CF0BF0E5CF0CF00950D3
:1049A8000B24E16E0A500C20E26EDFCFE7FF0D4AC0
:1049B8000E2A20EE02F00150D9260250DA22DE2A11
:1049C800000EDD2220EE06F00150D9260250DA2230
:1049D80010EE02F00150E1260250E222E652DE52C9
:1049E800DD50E55C02E1DF50E75C08E320EE02F011
:1049F8000150D9260250DA22DE6ADD6A0F2A000E3B
:104A080010221122122205500F5C06501058075030
:104A18001158085012588FE305C001F006C002F083
:104A28001200D9260250DA22DECF09F0DDCF0AF0D3
:104A380020EE02F00150D9260250DA22DECF0BF028
:104A4800DDCF0CF00B2A000E0C220A500C181200B5
:104A580003C007F004662BD00750D96E6CD8053612
:104A6800D8900536D8900534DF6E0750D96EDA6ACB
:104A7800D92ADA6A73D8D8900532062EFCD70550A1
:104A880063D8050E066ED8900532062EFCD707505F
:104A9800D96EDA6A0550DF123DD8DF6A0750D96E41
:104AA800DA6A030ED926DA6A000EDF6E32D032D8FF
:104AB80055D8D8900536062EFCD70550DF6E07501E
:104AC800D96EDA6A030ED92636D80532D89005325F
:104AD800D890053039D8030E05161CD80550DF12BA
:104AE80001C0D9FF02C0DAFFDF50056ED890053249
:104AF800D8900532D89005321C0E05160BD80550F3
:104B0800DF120FD8E12AE26ADFCFE7FF0AD8DFCF4A
:104B1800E7FF12000750D96EDA6A020ED926DA6A60
:104B28001200014A022A01C0D9FF02C0DAFF075069
:104B3800E16EE26A1200DA6A01C0E1FF02C0E2FF38
:104B4800E750056ED8901200DF6E014A022A01C0B4
:104B5800D9FF02C0DAFFDF50056E120001C0E1FF85
:104B680002C0E2FFE750056E050E066E050C230E27
:104B78000001626F276622D06251D96EDA6ADF506F
:104B8800606FD8906033D8906033D890603158D82F
:104B9800D92ADA6A71D8D8906037612FFCD721C03A
:104BA800D9FF44D869D8D8906037612FFCD76051B5
:104BB80021C0D9FF22C0DAFFDF6E37D054D8050EE6
:104BC800616FD8906033612FFCD7605139D8030EDC
:104BD80040D8603721C0D9FF29D8020E3AD86035AD
:104BE800E00B21C0D9FF22C0DAFFDF6E21C0D9FF58
:104BF80022C0DAFF000EDB8636D8030E601721C00C
:104C0800D9FF14D8D92ADA6A21C0E1FF22C0E2FF0D
:104C1800DFCFE7FF214A222A6251D96EDA6A21C022
:104C2800E1FF22C0E2FFDFCFE7FF120022C0DAFF78
:104C38006051DF12214A222A6251D96EDA6A1200C3
:104C480021C0D9FF22C0DAFFDF6E6251D96EDA6A5D
:104C58001200D926DA6ADF50606FD8906037D89092
:104C68006037D89012006251D96EDA6A020ED926DE
:104C7800DA6ADF50606F1200DF50606F050E616FF7
:104C8800050CE8CFBAF0BAC0A5F10001B051010196
:104C9800A66FAFC0A7F1B1C0A8F1B4C0D9FFB5C025
:104CA800DAFFDF50A96F0001906B8F6B260E916FB2
:104CB800926B936B050E946F010E966FA50E956F10
:104CC80003EC2CF0000960E0DE6BDF6BE06BE16B5E
:104CD8004BD0040034EC35F0010E00016D6FAD0EC1
:104CE8006C6F010E6F6FB20E6E6F010E716FAF0EAB
:104CF800706F010E736FB00E726F010E756FB10E8B
:104D0800746F010E776FA50E766F7DEC2FF000099A
:104D18002BE00101AF510001BA6326D00101B15166
:104D2800050A22E1A56720D00001B0510101A619AA
:104D38001BE10001AF5121EEA7F0DF6215D0B151A0
:104D4800010121EEA8F0DF620FD0A951B4C0D9FF4C
:104D5800B5C0DAFFDF6208D0B4C0D9FFB5C0DAFF4A
:104D6800A6C1DFFF010E11D00001B251B66FB351D9
:104D7800B76FB86BB96BB651DE5DB751DF59B85133
:104D8800E059B951E159A5E3000E120003D0000122
:104D9800624B632B000177D8EA6403D0EA6EEF50C8
:104DA80003D0F76E0800F550200AF1E000016BD837
:104DB800EA6403D0EA6EEF5003D0F76E0800F550AE
:104DC800090AE5E00001676B686B666B5CD8EA640A
:104DD80003D0EA6EEF5003D0F76E0800F5502D0AA5
:104DE80003E10001662B0DD000014DD8EA6403D021
:104DF800EA6EEF5003D0F76E0800F5502B0A21E158
:104E08000001624B632B1DD067C023F068C024F0FB
:104E1800266A0A0E256E4FEC34F035D8EA6403D0C2
:104E2800EA6EEF5003D0F76E0800F5502326000E07
:104E38002422D00E23240001676FFF0E2420686F00
:104E4800DFD7000120D8EA6403D0EA6EEF5003D020
:104E5800F76E0800F55043EC35F0D6E200016651D4
:104E68000DE067C064F068C065F0641F651F644B9F
:104E7800652B64C062F065C063F004D067C062F05F
:104E880068C063F012006251F66EE96E050EEA6EB4
:104E980063511200E8CFBAF0BAC0A5F10001B051D1
:104EA8000101A66FAFC0A7F1B1C0A8F1010EA96FAB
:104EB8000001906B8F6B250E916F926B936B050EB3
:104EC800946F010E966FA50E956F03EC2CF00009F8
:104ED8005FE0DE6BDF6BE06BE16B4AD0040034EC23
:104EE80035F0010E00016D6FAD0E6C6F010E6F6F26
:104EF800B20E6E6F010E716FAF0E706F010E736F91
:104F0800B00E726F010E756FB10E746F010E776F70
:104F1800A50E766F7DEC2FF000092AE00101AF5154
:104F28000001BA6325D00101AE51AD1121E1B251A2
:104F3800270A1EE1B151050A1BE1A56719D0000136
:104F4800B0510101A61914E10001AF5121EEA7F0FB
:104F5800DF620ED0B151010121EEA8F0DF6208D066
:104F6800B4C0D9FFB5C0DAFFA9C1DFFF010E11D067
:104F78000001B251B66FB351B76FB86BB96BB65188
:104F8800DE5DB751DF59B851E059B951E159A6E38F
:104F9800000E1200E8CFB8F00101010E206E550E88
:104FA800E4EC2EF00AEC35F07E0E216ED80E206E61
:104FB800DBEC32F00001BD6BBD51D00FAF6F0001CB
:104FC80004C1B0F0B16BBC0EB26FB8510DEC2AF051
:104FD800000929E00001000E6A6FB90E696FBCC0B4
:104FE8006BF06C6B6E6B100E6D6FA5EC34F0000EF1
:104FF800206EB90E1F6E31EC34F01F0420100FE143
:105008000101010E206E550E1F6E7F0E226EF80EE6
:10501800216EB0EC32F033D8B0EC32F00FD02FD88C
:10502800B0EC32F00BD00101010E206E550E1F6E50
:105038007F0E226EE40E216EB0EC32F00F0E0001EE
:10504800BD610BD00101010E206E550E1F6E7F0E43
:10505800226EFA0E216EB0EC32F00001BD2B0F0E5D
:10506800BD65AAD70101010E216E550E206EDBEC3D
:1050780032F0720E216EDA0E206EDBEF32F0010E86
:10508800206E550E1F6E0001000E226EB90E216EA5
:1050980012000CC18FF00001906B916B926B91C064
:1050A80092F090C091F08FC090F08F6B0BC193F08D
:1050B800946B956B966B94C096F093C095F0946B37
:1050C800936B0AC197F0986B996B9A6B1A0ED890EC
:1050D8009737983799379A37E82EF9D79351971118
:1050E8009B6F945198119C6F955199119D6F965192
:1050F8009A119E6F8F519B119F6F90519C11A06FB9
:1051080091519D11A16F92519E11A26F01010D51F4
:1051180000019F11AB6FA051AC6FA151AD6FA251AF
:10512800AE6F01010951FC0F070B0001AF6F080EAC
:10513800AF6502D0000E22D0000E206EA30E1F6EA7
:105148000E0E8F6F010E906F8FC021F090C022F06D
:10515800AFC023F0246A93EC33F0ABC088F0ACC046
:1051680089F0ADC08AF0AEC08BF0AFC08CF0000102
:10517800000E8E6FA30E8D6F89EC34F012006FC095
:1051880075F070C076F071C077F072C078F075C0B5
:105198001FF076C020F077C021F078C022F058D8F0
:1051A8007BEC30F022C078F021C077F020C076F098
:1051B8001FC075F06D4B6E2B7851751176117711F4
:1051C800E6E16DC0D9FF6EC0DAFFDF6A6D07D8A0CF
:1051D8006E076FC065F070C066F071C067F072C08E
:1051E80068F073C069F074C06AF0000E6ABFFF0E01
:1051F8006B6F6C6FC4EC31F06551796F6FC01FF045
:1052080070C020F071C021F072C022F021D87BEC70
:1052180030F022C072F021C071F020C070F01FC0C1
:105228006FF0090E796502D0070E7927300E7927BD
:105238006DC0D9FF6EC0DAFF79C0DFFF6D07D8A057
:105248006E0772516F1170117111D8B41200C1D765
:1052580073C023F074C024F0000E24BEFF0E256E28
:10526800266E1200E8CF67F0686BACA2FED7100E6E
:1052780087EC35F0ACA2FED7020E87EC35F0ACA275
:10528800FED7FE0E87EC35F00001000E616F680E48
:10529800606FFE0E626F6DEC34F0ACA2FED7000EAC
:1052A80087EC35F045D86DEC34F00001000E646FE2
:1052B800680E636F01010751F5EC31F0ACA2FED71F
:1052C800000E87EC35F034D86DEC34F0ACA2FED784
:1052D800020E87EC35F00001000E616F680E606FFA
:1052E800020E626F6DEC34F0ACA2FED70001000E26
:1052F800646F680E636F6751F5EC31F0ACA2FED7AE
:105308000001000E646F680E636F6651F5EC31F0B2
:105318000001646B636B6851F5EC31F0ACA2FED709
:10532800100E87EC35F0ACA2FED7030E87EF35F0F0
:105338000001000E616F680E606F626B000C21C087
:1053480064F022C065F00001666B676B4AD020EEFE
:1053580002F051D8E518DFCFE8FFD8B4E7183AE0F3
:1053680020EE04F01F50D9262050DA22DECF60F05C
:10537800DDCF61F01FC0D9FF20C0DAFFDECF62F0B9
:10538800DDCF63F060516225D96E61516321DA6E19
:1053980064C0E1FF65C0E2FFDFCFE7FF644B652B28
:1053A80020EE04F01F50D9262050DA22DE2A000E03
:1053B800DD2220EE06F01FD8E55C02E1DF50E75C55
:1053C8000EE320EE04F01F50D9262050DA22DE6AC0
:1053D800DD6A05D066C01FF067C020F00BD0664BB1
:1053E800672B2350665D24506759B1E323C01FF033
:1053F80024C020F012001F50D9262050DA2210EEC7
:1054080004F01F50E1262050E222E652DE52DD5021
:105418001200E8CFB7F0B7C0A5F1AFC0A6F1906B06
:105428008F6B090E916F926B936B020E946F010E46
:105438000001966FA50E956F03EC2CF0000950E063
:10544800DE6BDF6BE06BE16B3BD0040034EC35F0D6
:10545800010E00016D6FAD0E6C6F010E6F6FB20E15
:105468006E6F010E716FAF0E706F010E736FB00E1D
:10547800726F010E756FB10E746F010E776FA50E06
:10548800766F7DEC2FF000091BE00101AF510001A0
:10549800B76316D00101AE51AD1112E1B2510A0A3B
:1054A8000FE1B151020A0CE1A5510001AF6308D028
:1054B800B251D96EDA6A0101A6C1DFFF010E11D01F
:1054C8000001B051B36FB151B46FB56BB66BB35146
:1054D800DE5DB451DF59B551E059B651E159B5E334
:1054E800000E1200E8CFB8F00101010E206E550E33
:1054F800E4EC2EF00AEC35F07D0E216E490E206E9C
:10550800DBEC32F00001BD6BBD51940FAF6F0001B1
:1055180004C1B0F0B16BBC0EB26FB8510DEC2AF0FB
:10552800000919E00001000E6A6FB90E696FBCC06E
:105538006BF06C6B6E6B100E6D6FA5EC34F0010E9A
:10554800206E550E1F6E0001000E226EB90E216EE0
:10555800B0EC32F00BD00101010E206E550E1F6E1B
:105568007F0E226EFC0E216EB0EC32F0020E0001AE
:10557800BD610BD00101010E206E550E1F6E7F0E0E
:10558800226EF60E216EB0EC32F00001BD2B020E39
:10559800BD65BAD70101010E216E550E206EDBECF8
:1055A80032F0720E216EDA0E206EDBEF32F0C2ECB2
:1055B80035F0206A010E1F6E550E216EC1EC34F0D5
:1055C800C2EC35F0206A020E1F6EAA0E216EC1ECE5
:1055D80034F0C2EC35F0206A030E1F6E000E216A0B
:1055E800C1EC34F0C2EC35F0206A050E1F6E000ED7
:1055F800216AC1EC34F0C2EC35F0206A060E1F6E49
:10560800000E216AC1EC34F0C2EC35F0206A090EB4
:105618001F6E140E216EC1EC34F0200E236EC2EC06
:1056280035F0206A200E1F6EFF0E2168C1EC34F0A1
:10563800232A5F0E2364F3D7600E236EC2EC35F085
:10564800206A600E1F6E000E216AC1EC34F0232A16
:10565800670E2364F3D7C2EC35F0206A650E1F6E1F
:10566800000E216AC1EC34F0C2EC35F0206A660EF7
:105678001F6E216AC1EF34F0E8CF66F00001676B56
:10568800ACA2FED7100E87EC35F0ACA2FED7020E06
:1056980087EC35F0ACA2FED7FD0E87EC35F00001A3
:1056A800000E616F670E606FFD0E626F6DEC34F077
:1056B800ACA2FED7000E87EC35F039D86DEC34F08B
:1056C8000001000E646F670E636F01010751F5EC6E
:1056D80031F0ACA2FED7000E87EC35F028D86DEC7F
:1056E80034F0ACA2FED7010E87EC35F00001000EB5
:1056F800616F670E606F010E626F6DEC34F0000130
:10570800000E646F670E636F6651F5EC31F00001AF
:10571800646B636B6751F5EC31F0ACA2FED7100EE9
:1057280087EC35F0ACA2FED7030E87EF35F0000109
:10573800000E616F670E606F626B000C0001666B94
:10574800ACA2FED7100E87EC35F0ACA2FED7020E45
:1057580087EC35F0ACA2FED7090E87EC35F00001D6
:10576800000E616F660E606F090E626F6DEC34F0AB
:10577800ACA2FED7000E87EC35F00001000E616F79
:10578800660E606F000E626B6DEC34F00001000E67
:10579800646F660E636FF351F5EC31F00001F32B83
:1057A800000E646F660E636F000EF5EC31F00001B9
:1057B800000E646F660E636F020EF5EC31F00001A7
:1057C800000E646F660E636F010EF5EC31F0000198
:1057D800000E646F660E636F000EF5EC31F0000189
:1057E800646B636B6651F5EC31F0ACA2FED7100E1A
:1057F80087EC35F0ACA2FED7030E87EF35F091C0E9
:1058080097F0986B996B9A6B99C09AF098C099F039
:1058180097C098F0976B8F519B6F90519C6F9D6BC1
:105828009E6B9CC09EF09BC09DF09C6B9B6B93C035
:105838009FF0A06BA16BA26B1A0ED8909F37A03770
:10584800A137A237E82EF9D79B519F11A36F9C511E
:10585800A011A46F9D51A111A56F9E51A211A66F11
:105868009751A311A76F9851A411A86F9951A51129
:10587800A96F9A51A611AA6F9251A711AB6FA8519F
:10588800AC6FA951AD6FAA51AE6FABC088F0ACC078
:1058980089F0ADC08AF0AEC08BF094C08CF095C092
:1058A8008DF096C08EF089EC34F00009000ED8A473
:1058B800010E1200E8CF25F0315011E0F29E48D8D1
:1058C8001F64206A25C021F0226A246A040E236E10
:1058D800A3EC29F01F50040A201003E0F28E000EFA
:1058E80036D036D81F64206A68C021F069C022F01B
:1058F800246A010E236EA3EC29F01F042010EEE1A8
:1059080068C0D9FF69C0DAFF080EDF6405D068C037
:10591800D9FF69C0DAFFDF6A1BD81F64206A6AC032
:1059280021F06BC022F068C0D9FF69C0DAFFDF50F0
:10593800236E246AA3EC29F068C0D9FF69C0DAFF96
:10594800DF501F182010CAE13106F28E010E120036
:10595800340E1F6E000E206E0F0E206E5F0E1200AA
:1059680020EE04F01F50D9262050DA2210EE02F063
:105978001F50E1262050E222E652DE52DD50E55C5F
:1059880002E1DF50E75C13E220EE02F034D820EEAB
:1059980004F01F50D9262050DA22DECF62F0DDCF86
:1059A80063F06051625D1F6E6151635922D020EE31
:1059B80004F021D820EE02F01F50D9262050DA2218
:1059C800DECF62F0DDCF63F020EE06F01F50D9265F
:1059D8002050DA22DECF64F0DDCF65F06251645DDD
:1059E800666F63516559676F605166251F6E615117
:1059F8006721206E12001F50D9262050DA22DECFF0
:105A080060F0DDCF61F0120020EE04F00150D926DD
:105A18000250DA2210EE02F00150E1260250E22292
:105A2800E652DE52DD50E55C02E1DF50E75C13E24E
:105A380020EE02F034D820EE04F00150D9260250AE
:105A4800DA22DECF05F0DDCF06F00350055C016EEB
:105A58000450065822D020EE04F021D820EE02F09F
:105A68000150D9260250DA22DECF05F0DDCF06F04C
:105A780020EE06F00150D9260250DA22DECF07F0D8
:105A8800DDCF08F00550075C096E065008580A6E0D
:105A980003500924016E04500A20026E12000150BE
:105AA800D9260250DA22DECF03F0DDCF04F012004F
:105AB8000001666BACA2FED7100E87EC35F0ACA2E5
:105AC800FED7020E87EC35F0ACA2FED7FB0E87ECB2
:105AD80035F00001000E616F660E606FFB0E626F9D
:105AE8006DEC34F0ACA2FED7000E87EC35F02BD865
:105AF8006DEC34F00001000E646F660E636F0101F7
:105B08000751F5EC31F0ACA2FED7000E87EC35F06A
:105B18001AD86DEC34F0ACA2FED7000E87EC35F045
:105B280012D86DEC34F00001646B636B6651F5ECD0
:105B380031F0ACA2FED7100E87EC35F0ACA2FED740
:105B4800030E87EF35F00001000E616F660E606F7F
:105B5800626B000C0001666BACA2FED7100E87ECDE
:105B680035F0ACA2FED7020E87EC35F0ACA2FED71A
:105B7800FC0E87EC35F00001000E616F660E606F59
:105B8800FC0E626F6DEC34F0ACA2FED7000E87EC11
:105B980035F02BD86DEC34F00001000E646F660E02
:105BA800636F01010751F5EC31F0ACA2FED7000E8E
:105BB80087EC35F01AD86DEC34F0ACA2FED7000EA5
:105BC80087EC35F012D86DEC34F00001646B636B30
:105BD8006651F5EC31F0ACA2FED7100E87EC35F02B
:105BE800ACA2FED7030E87EF35F00001000E616FFF
:105BF800660E606F626B000C62C066F063C067F08F
:105C080066C01FF067C020F064C021F065C022F0B4
:105C180005EC33F01FC066F020C067F0604B612BC5
:105C280067516611EDE160C0D9FF61C0DAFF000E6F
:105C3800DF6A6007D8A0610762C01FF063C020F068
:105C480064C021F065C022F012EC34F01F50686F78
:105C580062C01FF063C020F064C021F065C022F06C
:105C680005EC33F01FC062F020C063F0090E6865D0
:105C780002D0070E6827300E682760C0D9FF61C0C0
:105C8800DAFF68C0DFFF6007D8A0610763516211BF
:105C9800D3E1604B612B120026C01FF027C020F013
:105CA80031EC34F0D89020300001646F1F30636FFE
:105CB8002550606F616B6151800A626F6351605D4E
:105CC8006451800A625902E2000E33D0676B686B38
:105CD80026C065F027C066F022D067512324D96E0C
:105CE80068512420DA6E10EE01F06551E126665104
:105CF800E222E750D4EC33F0606F65C0E1FF66C084
:105D0800E2FFE750D4EC33F0616F6139F00B6011BA
:105D1800DF6E020E6527000E6623674B682B6851FD
:105D2800800A606F6351675D6451800A6059D5E3EA
:105D380067511200E8CFB8F0010E0001BB6F550E95
:105D4800BA6F0101010E206E550E3AD80AEC35F0F3
:105D58007E0E216E0A0E206EDBEC32F00001BC6B69
:105D6800BC51E00FAF6F000104C1B0F0B16BB90EC8
:105D7800B26FB8510DEC2AF000090AE0BAC0D9FF99
:105D8800BBC0DAFFB9C0DFFF0001BA4BBB2B07D09D
:105D9800BAC0D9FFBBC0DAFF3F0EDF6EF5D7BC2B08
:105DA8001F0EBC65DDD70101010E216E550E206E58
:105DB800DBEC32F0720E216EDA0E206EDBEF32F081
:105DC8001F6E226A216A246A500E236E500C655198
:105DD800641104E12CC064F02DC065F065516411B4
:105DE80017E064C060F065C061F066C062F067C02B
:105DF80063F070EC33F00001605164276151652352
:105E080064C0D9FF65C0DAFFDF5005E12C6A2D6A4E
:105E1800646B656B26D064C060F065C061F066C0D5
:105E280062F067C063F04DEC33F000016051642507
:105E38002C6E615165212D6E2CC0D9FF2DC0DAFF63
:105E4800DF5009E02CC0D9FF2DC0DAFF000EDF6E4D
:105E58002C4A2D2A02D02C6A2D6A64C064F065C0D1
:105E680065F012007E0E216E740E206EDBEC32F0AF
:105E7800000134D8A5EC34F0000E216E6F0E206EB0
:105E8800DBEC32F0ACA2FED72E0E87EC35F0000129
:105E980025D8A5EC34F0000E216E6F0E206EDBECD9
:105EA80032F0ACA2FED72E0E87EC35F00001000EC2
:105EB8006A6F6F0E696F6C6B6B6B6E6B0A0E6D6F32
:105EC800A5EC34F0000E216E6F0E206EDBEC32F084
:105ED800720E216EDA0E206EDBEF32F0000E6A6F62
:105EE8006F0E696F6C6B010E6B6F6E6B0A0E6D6FC8
