:0404000034EF03F0E2
:10041800D8CF15F0E8CF16F0E0CF17F0E1CF18F0FD
:10042800E2CF19F0D9CF1AF0DACF1BF09EAA01D08B
:1004380001D020D09EEC2DF0246E240E016E010E0A
:10044800026E000E036E000E046E000E056E480E5E
:10045800EBEC1DF001040210D8B401D001D008D093
:10046800010E2F26000E3022000E3122000E3222FD
:100478009E9A7DD0F2A401D001D079D0FB0E026EF5
:100488001D0E016EE1EC2DF0010E0001E927000EB2
:10049800EA23000EEB23000EEC23010EE527000EE5
:1004A800E623000EE723000EE823394A3A2A3F5094
:1004B800020AD8A401D001D00CD0E90E395C030E91
:1004C8003A58D8A001D001D004D08B72396A3A6A60
:1004D8004DD03F50030AD8A401D001D009D0910EC5
:1004E800395C010E3A58D8A001D001D001D0EDD71F
:1004F8003F50040AD8A401D001D009D0650E395C58
:10050800000E3A58D8A001D001D001D0DED73F5014
:10051800050AD8A401D001D009D0470E395C000ED5
:100528003A58D8A001D001D001D0CFD73F50060A01
:10053800D8A401D001D009D0290E395C000E3A5850
:10054800D8A001D001D001D0C0D73F04D8A401D091
:1005580001D004D08B82396A3A6A08D03F6601D04C
:1005680001D004D08B92396A3A6A00D0F294A4AED2
:1005780001D001D001D0A49EA4A201D001D061D0A5
:100588001C0E086E250E096E2A0E0A6E260E4BECFE
:1005980015F00009D8B401D001D052D02AA601D054
:1005A80001D00ED02AAA01D001D04AD0010E0001F4
:1005B800D127000ED223000ED323000ED42340D01F
:1005C8002ABC01D001D03CD02AAA01D001D038D011
:1005D8002550136E146A050E1326000E1422400EC1
:1005E80008EC26F01350015C14500258D8A001D032
:1005F80001D0DCD7260E016E040E026E000E036ECB
:10060800000E046E000E056E400EEBEC1DF0250E7C
:10061800016E010E026E000E036E000E046E000ED7
:10062800056E400EEBEC1DF01C0E016E2550026E9F
:10063800036A046A056A400EEBEC1DF00001F02B1A
:10064800A4921BC0DAFF1AC0D9FF19C0E2FF18C074
:10065800E1FF17C0E0FF16C0E8FF15C0D8FF100083
:10066800D9EF29F00101016702D0EAEC13F0F29EFC
:10067800020E0001616FAC0E606F636B010E626F5A
:10068800480E9CEC23F06005611102E07EEF0CF04F
:10069800F28EF3EC18F0ACC2DFFF022B7F0E02657E
:1006A80001D0026B0201AC510D0A02E07EEF0CF0A2
:1006B800F3EC18F0DF6A00016E6F040E6D6F7F0EA9
:1006C800706FCF0E6F6F48EC28F080EC0CF004E1EF
:1006D80000016D510101B21911E17A0E0001626F3A
:1006E800EC0E616FF6EC2AF00001616B606BFF0E97
:1006F80062696CEC2DF0FF0070EF0CF0010E000148
:100708006E6F040E6D6F7F0E706FB60E6F6F48ECD4
:1007180028F080EC0CF004E100016D510101B219E0
:100728000CE1016B000EADEC2DF07F0E626F7F0EB9
:10073800616FF6EC2AF070EF0CF0010E00016E6F9D
:10074800040E6D6F7F0E706F5D0E6F6F48EC28F0B2
:1007580080EC0CF004E100016D510101B2190DE1CA
:10076800010E016F000EADEC2DF07F0E626F7F0E53
:10077800616FF6EC2AF070EF0CF0010E00016E6F5D
:10078800040E6D6F7F0E706F910E6F6F48EC28F03E
:1007980080EC0CF004E100016D510101B2190DE18A
:1007A800010E016F200EADEC2DF07F0E626F7F0EF3
:1007B800616FF6EC2AF070EF0CF0010E00016E6F1D
:1007C800040E6D6F7E0E706FCC0E6F6F48EC28F0C4
:1007D80080EC0CF004E100016D510101B2190CE14B
:1007E800016B400EADEC2DF07F0E626F7F0E616FD6
:1007F800F6EC2AF070EF0CF0010E00016E6F040E9B
:100808006D6F7F0E706F4F0E6F6F48EC28F080ECA5
:100818000CF004E100016D510101B2190CE1016B0A
:10082800600EADEC2DF07F0E626F7F0E616FF6ECFF
:100838002AF070EF0CF0010E00016E6F040E6D6F60
:100848007F0E706F0D0E6F6F48EC28F080EC0CF087
:1008580004E100016D510101B2190BE139EC27F0F7
:100868007F0E0001626F7F0E616FF6EC2AF070EF69
:100878000CF0010E00016E6F040E6D6F7F0E706F2D
:10088800480E6F6F48EC28F080EC0CF004E1000192
:100898006D510101B21969E16F50E00B0201B66FA9
:1008A800B6670CD00101016709D07D0E0001626FA7
:1008B800820E616FF6EC2AF070EF0CF00201B6516F
:1008C800010ED8A4000E0101011509E07D0E0001FA
:1008D800626F960E616FF6EC2AF070EF0CF0020171
:1008E800B651200A09E17D0E0001626FD20E616FD8
:1008F800F6EC2AF070EF0CF0B651400A09E17D0ED3
:100908000001626F050E616FF6EC2AF070EF0CF0D3
:10091800B651600A09E17B0E0001626FCE0E616F6D
:10092800F6EC2AF070EF0CF0B651800A09E17D0E62
:100938000001626F6E0E616FF6EC2AF070EF0CF03A
:10094800B651E00A09E17D0E0001626FE50E616FA4
:10095800F6EC2AF070EF0CF07C0E0001626F480E86
:10096800616FF6EC2AF070EF0CF0010E00016E6F6B
:10097800040E6D6F7F0E706FEA0E6F6F48EC28F0F3
:1009880080EC0CF004E100016D510101B21901E0A5
:10099800D9D0E3EC0CF0F0EC26F06CC0B7F26DC0E7
:1009A800B8F2030E0101AF6F0201B851B71109E0A7
:1009B800B7C266F0B8C267F086EC1FF06651010155
:1009C800AF6F0101AC6BAD6B99EC0CF0F0EC26F05D
:1009D8006CC0B7F26DC0B8F20201B851B7110AE0A5
:1009E800B7C266F0B8C267F086EC1FF066C0ACF11B
:1009F80067C0ADF10101B16B99EC0CF0F0EC26F099
:100A08006CC0B7F26DC0B8F20201B851B71109E075
:100A1800B7C266F0B8C267F086EC1FF066510101F4
:100A2800B16F0101AE6B99EC0CF0F0EC26F06CC0E4
:100A3800B7F26DC0B8F20201B851B71109E0B7C2F8
:100A480066F0B8C267F086EC1FF066510101AE6F20
:100A58000101B06B99EC0CF0F0EC26F06CC0B7F229
:100A68006DC0B8F20201B851B71109E0B7C266F01B
:100A7800B8C267F086EC1FF066510101B06F010E35
:100A88000001616FA40E606F636B626B656B080E8B
:100A9800646F55EC2DF00201AA6B1DD099EC0CF097
:100AA800F0EC26F06CC0B7F26DC0B8F20201B85194
:100AB800B71116E0A40EAA25D96EDA6A0101010E53
:100AC800DA22B7C266F0B8C267F086EC1FF066514A
:100AD800DF6E0201AA2B0101B0510201AA5DDEE31B
:100AE800ACC196F0ADC197F0B1C198F0AEC199F024
:100AF800AFC19AF0B0C19BF0010E00019D6FA40E2A
:100B08009C6FBDEC24F0000915E0E12B000EE223F8
:100B1800E323E4230101B0510001DD27000EDE23A9
:100B2800DF23E0237F0E626F7F0E616FF6EC2AF001
:100B380070EF0CF07A0E626F480E616FF6EC2AF0D7
:100B480070EF0CF0010E00016E6F040E6D6F7F0EDA
:100B5800706FE70E6F6F48EC28F080EC0CF004E142
:100B680000016D510101B21916E1EAEC13F0000918
:100B780009E07F0E0001626F7F0E616FF6EC2AF0CC
:100B880070EF0CF07D0E0001626FF70E616FF6ECEE
:100B98002AF070EF0CF0010E00016E6F040E6D6FFD
:100BA8007F0E706FCA0E6F6F48EC28F080EC0CF067
:100BB80004E100016D510101B2190BE1FBEC18F0E1
:100BC8007F0E0001626F7F0E616FF6EC2AF070EF06
:100BD8000CF0010E00016E6F040E6D6F7F0E706FCA
:100BE800D80E6F6F48EC28F080EC0CF004E100019F
:100BF8006D510101B2190BE17FEC12F07F0E00017B
:100C0800626F7F0E616FF6EC2AF070EF0CF0010E48
:100C180000016E6F040E6D6F7F0E706FC50E6F6FE3
:100C280048EC28F080EC0CF004E100016D51010162
:100C3800B2190BE13EEC17F07F0E0001626F7F0ED8
:100C4800616FF6EC2AF070EF0CF0010E00016E6F88
:100C5800040E6D6F7F0E706FA20E6F6F48EC28F058
:100C680080EC0CF004E100016D510101B2190BE1B7
:100C780009EC21F07F0E0001626F7F0E616FF6ECC8
:100C88002AF070EF0CF0010E00016E6F040E6D6F0C
:100C98007F0E706FA70E6F6F48EC28F080EC0CF099
:100CA80004E100016D510101B21901E0B4D1020162
:100CB800AD6B010EAB6F8AEC0CF026EC2DF0010E3B
:100CC800EDEC0CF0F0EC26F06CC0B2F26DC0B3F2B3
:100CD8000201B351B2110AE0B2C266F0B3C267F0C2
:100CE80086EC1FF0665102018C6F09D07C0E000162
:100CF800626F300E616FF6EC2AF07FEF0CF0DBECE0
:100D08000CF0F0EC26F06CC0B2F26DC0B3F2020148
:100D1800B351B21134E0B2C260F0B3C261F0000165
:100D2800636B3A0E626F0AEC2AF060C084F261C00D
:100D380085F202018551841118E0B2C266F0B3C28F
:100D480067F086EC1FF066510201AD6F842901013E
:100D5800B26F000E020185210101B36FB2C166F0C6
:100D6800B3C167F086EC1FF006D0B2C266F0B3C21A
:100D780067F086EC1FF066510201AE6F09D07A0E5B
:100D88000001626FAB0E616FF6EC2AF07FEF0CF09A
:100D9800DBEC0CF0F0EC26F06CC0B2F26DC0B3F2F4
:100DA8000201B351B2110DE0B2C266F0B3C267F0EE
:100DB80086EC1FF066510201AB6FAB6702D0010EE3
:100DC800AB6F010EA06FB06B0ED10001ADC2B6F0D3
:100DD800B76B0201AE51B0250001B86F03C1B9F07D
:100DE800BA6B020EBC6FB10EBB6F02018C518BEC5B
:100DF80020F0000901E19DD07E0E0001626F5D0EBA
:100E0800616FF6EC2AF00101006705D07F0E020140
:100E1800956FED0E04D07F0E0201956F640E946FEE
:100E2800010E0001776F540E766F94C278F095C268
:100E380079F0ADC27AF07B6B28EC0DF0010E000161
:100E4800626F540E616FF6EC2AF0ACA2FED73A0E30
:100E5800C5EC2DF00101006705D07F0E0201976FE8
:100E6800ED0E04D07F0E0201976F640E966F010E8F
:100E78000001776F540E766F96C278F097C279F0BA
:100E8800F6EC0CF028EC0DF0010E0001626F540E28
:100E9800616FF6EC2AF07E0E0001626FE90E616F59
:100EA800F6EC2AF00101006705D07F0E0201996F68
:100EB800ED0E04D07F0E0201996F640E986F010E3B
:100EC8000001776F540E766F98C278F099C279F066
:100ED800B1C27AF07B6B28EC0DF0010E0001626F55
:100EE800540E616FF6EC2AF0ACA2FED7200EC5ECCA
:100EF8002DF0ACA2FED7200E0201B16507D07F0EFF
:100F0800B16104D0B151C5EC2DF003D02E0EC5EC63
:100F18002DF0ACA2FED7200EC5EC2DF00201B15188
:100F280049EC2BF0740E626F8A0E616FF6EC2AF0B2
:100F380058D00201A06B7A0E0001626F050E616F36
:100F4800F6EC2AF00101006705D07F0E02019B6FC5
:100F5800ED0E04D07F0E02019B6F640E9A6F010E96
:100F68000001776F540E766F9AC278F09BC279F0C1
:100F7800ADC27AF07B6B28EC0DF0010E0001626FB8
:100F8800540E616FF6EC2AF0ACA2FED73A0EC5EC0F
:100F98002DF00101006705D07F0E02019D6FED0E57
:100FA80004D07F0E02019D6F640E9C6F010E00013C
:100FB800776F540E766F9CC278F09DC279F0F6EC8C
:100FC8000CF028EC0DF0010E0001626F540E616FF9
:100FD800F6EC2AF0740E0001626F8A0E616FF6EC6F
:100FE8002AF00201B02BAB51B05D01E2EED6A05160
:100FF80009E07F0E0001626F7F0E616FF6EC2AF048
:1010080070EF0CF0740E0001626F220E616FF6EC47
:101018002AF070EF0CF0010E00016E6F040E6D6F78
:101028007F0E706FAC0E6F6F48EC28F080EC0CF000
:1010380004E100016D510101B21901E0AFD00201D4
:10104800A16B8AEC0CF026EC2DF0010EEDEC0CF007
:10105800F0EC26F06CC0B4F26DC0B5F20201B551E7
:10106800B4110AE0B4C266F0B5C267F086EC1FF0AE
:10107800665102018D6F09D07C0E0001626F300E3F
:10108800616FF6EC2AF07FEF0CF0DBEC0CF0F0EC83
:1010980026F06CC0B4F26DC0B5F20201B551B411BE
:1010A80034E0B4C260F0B5C261F00001636B3A0E7F
:1010B800626F0AEC2AF060C086F261C087F2020112
:1010C8008751861118E0B4C266F0B5C267F086ECA5
:1010D8001FF066510201A16F86290101B26F000E4F
:1010E800020187210101B36FB2C166F0B3C167F095
:1010F80086EC1FF006D0B4C266F0B5C267F086EC85
:101108001FF066510201A26F08D07A0E0001626FCB
:10111800AB0E616FF6EC2AF0EED3DBEC0CF0F0ECE2
:1011280026F06CC0B4F26DC0B5F20201B551B4112D
:101138000AE0B4C266F0B5C267F086EC1FF06651EB
:101148000201A96F08D07C0E0001626F600E616F0A
:10115800F6EC2AF0D0D30001A1C2B6F0B76BA2C258
:10116800B8F003C1B9F0BA6B020EBC6FA90EBB6F21
:1011780002018D5103EC1FF0000908E0790E00010F
:10118800626FC00E616FF6EC2AF0A6D37A0E0001EA
:10119800626F8A0E616FF6EC2AF09ED3010E000191
:1011A8006E6F040E6D6F7F0E706FBB0E6F6F48EC25
:1011B80028F0A2DB04E100016D510101B21951E1EF
:1011C800A5DB26EC2DF0010E0001676F040E666F9B
:1011D80086EC1FF066510201AF6F7D0E0001626F51
:1011E800AA0E616FF6EC2AF00101006705D07F0EA8
:1011F80002019F6FED0E04D07F0E02019F6F640EF7
:101208009E6F010E0001776F540E766F9EC278F0C4
:101218009FC279F0AFC27AF07B6B28EC0DF0010E1B
:101228000001626F540E616FF6EC2AF0740E000133
:10123800626F8A0E616FF6EC2AF00201AF51CDECB5
:1012480022F00201AF5109EC20F00201AF51A5ECE8
:1012580026F07F0E0001626F7F0E616FF6EC2AF0B8
:101268003BD3010E00016E6F040E6D6F7F0E706F21
:10127800560E6F6F48EC28F03FDB04E100016D511A
:101288000101B21901E0D2D0010E57DB26EC2DF096
:1012980096DBF0EC26F06CC0B9F26DC0BAF2020130
:1012A800BA51B91114E0B9C266F0BAC267F086EC57
:1012B8001FF066510201A76F0F0EA76510D0720EBE
:1012C8000001626F1C0E616FF6EC2AF014D3770EE2
:1012D8000001626FFA0E616FF6EC2AF00CD325DB81
:1012E800F0EC26F06CC0B9F26DC0BAF20201BA5146
:1012F800B9110AE0B9C266F0BAC267F086EC1FF00D
:10130800665102018E6F08D0770E0001626F2F0EB2
:10131800616FF6EC2AF0EFD208DBF0EC26F06CC037
:10132800B9F26DC0BAF20201BA51B9110BE0B9C2F3
:1013380066F0BAC267F086EC1FF066C088F267C034
:1013480089F208D0780E0001626F960E616FF6EC94
:101358002AF0D1D200DBF0EC26F06CC0B9F26DC0F7
:10136800BAF20201BA51B9110AE0B9C266F0BAC2BA
:1013780067F086EC1FF0665102018F6F08D0780E77
:101388000001626FE40E616FF6EC2AF0B4D2CDDA98
:10139800F0EC26F06CC0B9F26DC0BAF20201BA5195
:1013A800B9110AE0B9C266F0BAC267F086EC1FF05C
:1013B80066510201906F08D0770E0001626F590ED6
:1013C800616FF6EC2AF097D2800EADEC2DF08FC24B
:1013D800B2F116DB88510101B66F0201895129DB90
:1013E8008EC2BAF1BFDA90510101C2110201806FB9
:1013F8000101C3510201816F0101C4510201826FD1
:101408000101C5510201836F80C260F081C261F0A1
:1014180082C262F083C263F0A7514FEC16F07F0ED0
:10142800626F7F0E616FF6EC2AF056D2010E000152
:101438006E6F040E6D6F7F0E706FB10E6F6F48EC9C
:1014480028F05ADA04E100016D510101B21901E0F6
:10145800D9D0010E72DA26EC2DF0B1DAF0EC26F0D4
:101468006CC0BBF26DC0BCF20201BC51BB1114E0F0
:10147800BBC266F0BCC267F086EC1FF06651020181
:10148800A86F010EA86510D0750E0001626F290EB5
:10149800616FF6EC2AF02FD2790E0001626F0A0E06
:1014A800616FF6EC2AF027D240DAF0EC26F06CC037
:1014B800BBF26DC0BCF20201BC51BB110AE0BBC259
:1014C80066F0BCC267F086EC1FF066510201916FAE
:1014D80008D0770E0001626FAA0E616FF6EC2AF051
:1014E8000AD223DAF0EC26F06CC0BBF26DC0BCF275
:1014F8000201BC51BB110BE0BBC266F0BCC267F075
:1015080086EC1FF066C08AF267C08BF208D0790EAD
:101518000001626F540E616FF6EC2AF0ECD11BDA11
:10152800F0EC26F06CC0BBF26DC0BCF20201BC51FD
:10153800BB110AE0BBC266F0BCC267F086EC1FF0C4
:1015480066510201926F08D0790E0001626F790E20
:10155800616FF6EC2AF0CFD1E8D9F0EC26F06CC038
:10156800BBF26DC0BCF20201BC51BB110AE0BBC2A8
:1015780066F0BCC267F086EC1FF066510201936FFB
:1015880008D0780E0001626F6F0E616FF6EC2AF0DA
:10159800B2D192C2B2F134DA8A510101B66F0201B6
:1015A8008B5147DA91C2BAF1DDD993510101C211C9
:1015B8000201A36F0101C3510201A46F0101C451CB
:1015C8000201A56F0101C5510201A66F800EADECA5
:1015D8002DF00201A85108E00F0E0001616F180EEE
:1015E8001CDA79EC1EF007D00F0E0001616F1C0E9B
:1015F80014DA79EC1EF07F0E626F7F0E616FF6ECE5
:101608002AF06AD1010E00016E6F040E6D6F7F0E15
:10161800706F9D0E6F6F48EC28F06ED904E10001E1
:101628006D510101B21901E045D1010E0001616F50
:10163800040E606F080E0101B26F010EB36FB2C1E4
:1016480062F0B3C163F026EC2DF0010E00016E6F5D
:10165800040E6D6F7F0E706FDC0E6F6F48EC28F014
:101668004BD904E100016D510101B21911E1010EDC
:10167800006F0001616B060E606F010E626F6CEC0B
:101688002DF0770E626F030E616FF6EC2AF024D10D
:10169800010E00016E6F040E6D6F7F0E706F050EE8
:1016A8006F6F48EC28F028D904E100016D51010161
:1016B800B21910E1006B0001616B060E606F000E3D
:1016C800626B6CEC2DF0770E626FD20E616FF6ECE8
:1016D8002AF002D1010E00016E6F040E6D6F7E0EAE
:1016E800706F860E6F6F48EC28F06E516D112DE00B
:1016F800010E0001616F040E606F0E0E0101B26FE2
:10170800010EB36FB2C162F0B3C163F026EC2DF0E5
:10171800010E0001676F040E666F86EC1FF06651BC
:101728000101036F0A0E036101D0036F0001616BB1
:10173800090E606F03C162F06CEC2DF07F0E626FD2
:101748007F0E616FF6EC2AF0C7D0010E00016E6FB4
:10175800040E6D6F7E0E706FBA0E6F6F48EC28F036
:101768006E516D1105E0010EE8D826EC2DF0B4D0CD
:10177800010E00016E6F040E6D6F7F0E706F850E87
:101788006F6F48EC28F06E516D115CE0BFD826EC05
:101798002DF0010E00016E6F040E6D6F7E0E706FDE
:1017A800FD0E6F6F48EC28F06E516D110FE0F16B74
:1017B800616B030E606F000E626B6CEC2DF07B0E9C
:1017C800626F470E616FF6EC2AF086D0010E0001B9
:1017D8006E6F040E6D6F7F0E706FC00E6F6F48ECEA
:1017E80028F06E516D1110E0010EF16F616B030E60
:1017F800606F010E626F6CEC2DF07A0E626FCC0E8A
:10180800616FF6EC2AF068D0010E00016E6F040ECD
:101818006D6F7F0E706F970E6F6F48EC28F06E51EA
:101828006D115AE0020EF16F616B030E606F020ECC
:10183800626F6CEC2DF07B0E626FB40E616FF6EC8C
:101848002AF04AD0010E00016E6F040E6D6F7E0EF5
:10185800706FED0E6F6F48EC28F06E516D1111E04E
:10186800010E0001616F040E606F0B0E0101B26F73
:10187800010EB36FB2C162F0B3C163F026EC2DF074
:101888002BD0010E00016E6F040E6D6F7F0E706F0E
:101898008B0E6F6F48EC28F06E516D1104E036D84E
:1018A80026EC2DF019D07A0E626F690E616FF6EC96
:1018B8002AF012D004510D0A08E17F0E0001626F70
:1018C8007F0E616FF6EC2AF007D07B0E0001626F85
:1018D8007E0E616FF6EC2AF0010E0001616F040EB6
:1018E800606F636B626B656B500E646F55EC2DF027
:1018F8000101026BF28E1200040E0101B26F010E9B
:10190800B36F00016E510101B3191200010E0001FD
:10191800616F040E606F090E0101B26F010EB36FA3
:10192800B2C162F0B3C163F0120000016D6B6C6B61
:101938007F0E6F6FF40E6E6F12000001616F040E60
:10194800606F0C0E0101B26F010EB36FB2C162F08D
:10195800B3C163F012006D6B6C6B7F0E6F6FF40E8A
:101968006E6F1200BB6BBC6BBD6B1A0ED890BA378A
:10197800BB37BC37BD37E82EF9D7B651BA11BE6FA1
:10198800B751BB11BF6FB851BC11C06FB951BD1170
:10199800C16FB251BE11C26FB351BF11C36FB45101
:1019A800C011C46FB551C111C56F02011200000109
:1019B8006D6B6C6B7F0E6F6F2A0E6E6F1200010ECF
:1019C80000016D6F040E6C6F7F0E6F6FF40E6E6FFB
:1019D800120000016D6F040E6C6F7F0E6F6F2A0E80
:1019E8006E6F12000201B051AEC2B2F10101B36BC9
:1019F800B227000EB323B25100017A6F7B6B12003D
:101A08000101B36BB46BB56BB4C1B5F1B3C1B4F13B
:101A1800B2C1B3F1B26B02011200606FA3C262F0EF
:101A2800A4C263F0A5C264F0A6C265F0010E666F99
:101A3800010C0101B76FB86BB96BB7C1B9F1B6C189
:101A4800B8F1B76BB66B12007A0E886F2CD3915130
:101A5800250A09E076C0D9FF77C0DAFF91C0DFFF19
:101A6800764B772B20D38B6B8C6B926B936B09D057
:101A7800928705D0928103D0938701D09285784BC5
:101A8800792B78C0F6FF79C0F7FF0800F550200AD7
:101A9800F1E0030AF1E00E0AEBE01D0AEFE092B76D
:101AA800929578C0F6FF79C0F7FF0800F5507FECF3
:101AB8002DF025E38B6B8C6B8BC060F08CC061F0D4
:101AC800636B0A0E626F0DEC2DF060C08BF061C085
:101AD8008CF078C0F6FF79C0F7FF0800F5CF7EF0EC
:101AE800D00E7E257F6F806BFF0E80237F518B2762
:101AF80080518C2336DB7FEC2DF014E3DDD778C0E2
:101B0800F6FF79C0F7FF0800F5502A0A0BE1885163
:101B1800D96EDA6ADECF8BF0DDCF8CF0020E882723
:101B2800784B792B78C0F6FF79C0F7FF0800F5509D
:101B38002E0A37E1938D15DB2A0A0CE18851D96EFC
:101B4800DA6ADECF89F0DDCF8AF0020E8827784B7B
:101B5800792B88D0896B8A6B1AD089C060F08AC0CB
:101B680061F0636B0A0E626F0DEC2DF078C0F6FF22
:101B780079C0F7FF0800F5506027000E6123D00EEA
:101B88006025896FFF0E61218A6F784B792B78C0A9
:101B9800F6FF79C0F7FF0800F5507FEC2DF062E3FF
:101BA800DCD7896B8A6B5ED092895CD0928D6FD0BE
:101BB800928B928F6CD08A51891109E08E51895D80
:101BC8008F518A5904E289C08EF08AC08FF08B51F8
:101BD8008E5D8C518F5907E220EE8EF0DE508B5FC0
:101BE800DD508C5B02D08B6B8C6B92A704D015D028
:101BF800B1DA764B772B8B07C2DAD8B48C290DE093
:101C0800F7D78D51D96EDA6A76C0E1FF77C0E2FF67
:101C1800DFCFE7FF8D2B764B772B8E07D8A08F076A
:101C280000018E29D8B48F29ECE192B704D03BD2B9
:101C380091DA764B772B8B07A2DAD8B48C2901E19D
:101C480032D2F6D78851D96EDA6ADF50916F020E18
:101C58008827910E8D6F8F6B010E8E6FACD7C00EDB
:101C6800921315D06CDA915101E120D2580AA0E004
:101C78003B0AE8E0070A0BE00D0A09E0050A94E0D0
:101C8800030A94E01A0AEBE00D0A93E0E2D79251B6
:101C9800C00B20E192A903D0885146DA0DD08851B3
:101CA800D96EDA6ADECF8DF0DDCF8EF0000E8EBFF2
:101CB800FF0E8F6F906F020E882790AF1FD0030E14
:101CC8009213901F8F1F8E1F8D6D000E8E238F23F2
:101CD800902314D092A903D0885126DA0ED08851C7
:101CE800D96EDA6ADECF7EF0DDCF7FF07EC08DF070
:101CF8007FC08EF08F6B906B020E88278A518911F6
:101D08005CE190518D118E118F1157E1894B8A2B0F
:101D180054D0010E916F91510A0A58E09151040D67
:101D2800E40EF324F66E6F0EF420F76E0900F550FA
:101D38008D5D0900F5508E590900F5508F5909003D
:101D4800F550905943E3912BE6D7010E916F9151CD
:101D5800080A3CE09151040D0C0EF324F66E700E47
:101D6800F420F76E0900F5508D5D0900F5508E5985
:101D78000900F5508F590900F550905927E3912B28
:101D8800E6D7010E916F91510C0A20E09151040D94
:101D9800B40EF324F66E6F0EF420F76E0900F550BA
:101DA8008D5D0900F5508E590900F5508F590900CD
:101DB800F55090590BE3912BE6D79251C00BA9E04F
:101DC800400ADFE0C00AC1E0400AA3E0800E91BFEC
:101DD8007F0E7E6F8951915D8A51800A7E5903E298
:101DE80089C091F00FD08A51800A7E6F9151895D28
:101DF800800E91BF7F0E7E5905E29151896F8A6BE3
:101E080089BF8A078C518B1106E09251030B03E0BE
:101E18008B07D8A08C0793AD10D08A51800A7E6FAB
:101E28008B51895D8C51800A7E5905E289518B5FFF
:101E38008A518C5B02D08B6B8C6BC40E4DD9400ED3
:101E4800D8B47E1907E18C518B1118E08B07D8A004
:101E58008C0714D0C00E40D9800ED8B47E190EE17C
:101E68008C51800A800F030ED8B48B5D05E3FE0EFB
:101E78008B27FF0E8C2302D08B6B8C6B800E91BF4F
:101E88007F0E7E6F8B51915D8C51800A7E5907E2DF
:101E980091518B5F000E91BFFF0E8C5B02D08B6B54
:101EA8008C6B92A53CD09251030B09E076C0D9FF08
:101EB80077C0DAFF2D0EDF6E764B772B22D092A1FA
:101EC80006D076C0D9FF77C0DAFF200EF4D7C00E4F
:101ED80003D9800ED8B47E1914E176C0D9FF4AD947
:101EE800764B772B92BB03D0836B780E02D0836B33
:101EF800580E826F76C0D9FF77C0DAFF82C0DFFF45
:101F0800DBD78C518B1101E1B9D076C0D9FF32D91A
:101F1800764B772B8B07D8A08C070001F2D78C5112
:101F28008B11D8A492B704D076C0D9FFF0D8FCE1C1
:101F38009251030B09E076C0D9FF77C0DAFF2D0E66
:101F4800DF6E764B772B08D092A106D076C0D9FFEA
:101F580077C0DAFF200EF4D7C00EBED8400ED8B432
:101F68007E1906E176C0D9FF05D9764B772B86D046
:101F7800C00EB2D8800ED8B47E1901E07FD076C0EA
:101F8800D9FFF8D8764B772B92BB03D0856B780EA8
:101F980002D0856B580E846F76C0D9FF77C0DAFF00
:101FA80084C0DFFFE2D789C07EF08AC07FF0D89076
:101FB8007E377F37D8907E377F37E40E7E25F66EE2
:101FC8006F0E7BD88DC060F08EC061F08FC062F05C
:101FD80090C063F0C0EC28F063C070F062C06FF08E
:101FE80061C06EF060C06DF00A0E716F000E726B0A
:101FF800736B746B3BEC2AF06D512DD075D80C0EB9
:102008007E25F66E700E59D8C0EC28F060510F0B83
:10201800816F92BB04D07E0E876F2C0E03D07E0E8C
:10202800876F1B0E866F815186257E6F000E872174
:102038007F6F7EC0F6FF7FC0F7FF0800F5CF91F0F5
:1020480016D052D8B40E7E25F66E6F0E36D8C0EC78
:1020580028F06051070B300F916F09D09251C00BD7
:10206800A2E0400AEEE0C00AC9E0400A9CE076C05F
:10207800D9FF77C0DAFF91C0DFFF77D78907D8A0EB
:102088008A0700018929D8B48A29E8E192A70BD0E8
:102098008C51800A800F010ED8B48B5D04E376C0A2
:1020A800D9FF35D8FCE14BD89167D1D476C0D9FF98
:1020B80077C0DAFF000EDF6E000C7F21F76E090093
:1020C800F5CF64F00900F5CF65F00900F5CF66F0AB
:1020D8000A00F5CF67F0120092157E6F080E93156F
:1020E8007F6F7F51080A12008DC060F08EC061F0CA
:1020F8008FC062F090C063F089C07EF08AC07FF024
:10210800D8907E377F37D8907E377F37120077C0D8
:10211800DAFF200EDF6E764B772B8B07D8A08C0763
:1021280000018C518B111200D96EDA6ADECF8DF066
:10213800DECF8EF0DECF8FF0DECF90F0040C78C0CB
:10214800F6FF79C0F7FF784B792B0800F5CF91F0AF
:102158000001120076C0D9FF77C0DAFF200EDF6ECB
:10216800200C784B792B78C0F6FF79C0F7FF080070
:10217800F550120077C0DAFF300EDF6E300CD8A0B1
:102188008C0700018B291200A36BCFEC19F0F29E8B
:102198000001000E616FA20E606F636B010E626F2B
:1021A800480E9CEC23F06005611101E09CD1F28E91
:1021B800A2510D0A01E14ED1F3EC18F0A2C0DFFFE5
:1021C800022B92D1010E0001616F040E606F1DECAD
:1021D8002CF06005611101E068D17D0E626F5A0E26
:1021E800616FF6EC2AF0010E0001DED0010E00014D
:1021F800616F040E606F1DEC2CF06005611101E049
:1022080054D17E0E626FD50E616FF6EC2AF0EBD7D3
:10221800010E0001616F040E606F1DEC2CF060056B
:10222800611101E042D17E0E626FDD0E616FF6EC46
:102238002AF0D9D7010EEE6FB7D0EF6703D0010EA1
:10224800EE6FA36F010E0001616F040E606F1DEC4D
:102258002CF06005611101E028D1EF6726D1EE511D
:1022680001E123D1000EADEC2DF0010EEF6FBBD7CD
:10227800010E0001616F040E606F1DEC2CF060050B
:10228800611101E012D1EF51AEE0200EADEC2DF05E
:10229800EF6BA9D7EF5101E108D1010E0001616F81
:1022A800040E606F1DEC2CF00A0E605D000E615983
:1022B80001E2FBD0010E0001656F540E646F500EF1
:1022C800666F010E686F040E676F58EC26F0966F04
:1022D800050E965D01E2E9D057C196F0080E9627E3
:1022E80056C197F0100E972755C198F0180E9827E9
:1022F80054C199F000019A6B9B6B9C6B982B01D091
:10230800F4D8982FFDD7972B01D0EFD8972FFDD76A
:10231800962B01D0EAD8962FFDD79CC0A0F09BC081
:102328009FF09AC09EF099C09DF0A8C1A1F0080E38
:10233800A16501D0BAD0D890A135966F976B973721
:102348000A0E9627000E9723010E0001616F040EF6
:10235800606F1DEC2CF09651605D9751615901E258
:10236800A4D0010E0001616FA40E606FA90E966FD4
:10237800010E976F96C062F097C063F0A1C064F039
:10238800656BFCEC2BF09DC08FF09EC090F09FC059
:1023980091F0A0C092F0A1C093F0010E0001956FDA
:1023A800A40E946FBAEC2CF0A36F7FD0EF517DE0B0
:1023B800010E0001616F040E606F1DEC2CF06005CA
:1023C800611173E17F0E626F790E616FF6EC2AF08E
:1023D8006CD0010E0001616F040E606F1DEC2CF0D3
:1023E8006051020A611161E1EF675FD00101055197
:1023F800300A0AE10001F26B616B050E606F000E96
:10240800626B6CEC2DF0EFD60551310A0BE1010E31
:102418000001F26F616B050E606F010E626F6CEC6C
:102428002DF0E1D60001A36B40D0616B010E606F07
:10243800FF0E62696CEC2DF0FF0037D0010E000131
:10244800616F040E606F1DEC2CF06151601101E1A9
:10245800CAD62BD0A251420AE8E0010A01E108D706
:10246800050AA4E00C0A01E1ADD6070A01E1BBD6D2
:10247800030A01E1CDD6010A01E1E4D61D0A15E0FF
:10248800010A01E1D7D6070A01E104D7020A01E1EE
:10249800ADD60C0A9EE0370A01E1A5D61F0A05E071
:1024A800010A01E1CAD6070AC9E10001A35107E000
:1024B8007F0E626FF20E616FF6EC2AF006D07F0E87
:1024C800626FF00E616FF6EC2AF0010E0001616F89
:1024D800040E606F636B626B656B500E646F55EC36
:1024E8002DF00101026BF28E1200D89099379A37BD
:1024F8009B379C3712007C0E0001626FD70E616F0C
:10250800F6EC2AF00101006705D07F0E0001956FF7
:10251800E00E04D07F0E0001956F150E946F010E2A
:102528000001776F540E766F94C078F095C079F0FB
:10253800D1C07AF0D2C07BF0D3C07CF0D4C07DF09B
:1025480028EC0DF0010E0001626F540E616FF6EC7D
:102558002AF0740E0001626F8A0E616FF6EC2AF0A1
:102568007C0E0001626FA80E616FF6EC2AF0010183
:10257800006705D07F0E0001976FE00E04D07F0E34
:102588000001976F150E966F010E0001776F540EBC
:10259800766F96C078F097C079F02BC07AF02CC08F
:1025A8007BF02DC07CF02EC07DF028EC0DF0010EE4
:1025B8000001626F540E616FF6EC2AF0740E000190
:1025C800626F8A0E616FF6EC2AF07C0E0001626F72
:1025D800900E616FF6EC2AF00101006705D07F0EBE
:1025E8000001996FE00E04D07F0E0001996F150E5F
:1025F800986F010E0001776F540E766F98C078F0CF
:1026080099C079F02FC07AF030C07BF031C07CF0EF
:1026180032C07DF028EC0DF0010E0001626F540EFF
:10262800616FF6EC2AF0740E0001626F8A0E616F1A
:10263800F6EC2AF07C0E0001626F900E616FF6ECEA
:102648002AF00101006705D07F0E00019B6FE00EA4
:1026580004D07F0E00019B6F150E9A6F010E0001CA
:10266800776F540E766F9AC078F09BC079F033C0BC
:102678007AF034C07BF035C07CF036C07DF028ECB1
:102688000DF0010E0001626F540E616FF6EC2AF036
:10269800740E0001626F8A0E616FF6EC2AF07B0EF1
:1026A8000001626FE70E616FF6EC2AF00101006726
:1026B80005D07F0E00019D6FED0E04D07F0E000146
:1026C8009D6F640E9C6F010E0001776F540E766F3C
:1026D8009CC078F09DC079F076CF7AF07B6B28ECBF
:1026E8000DF0010E0001626F540E616FF6EC2AF0D6
:1026F800740E0001626F8A0E616FF6EC2AF074A402
:1027080007D0720E0001626F9C0E616FF6EC2AF022
:1027180074AA07D0740E0001626F580E616FF6EC50
:102728002AF074A807D0720E0001626FD60E616F8E
:10273800F6EC2AF07C0E0001626F780E616FF6EC01
:102748002AF00101006705D07F0E00019F6FED0E92
:1027580004D07F0E00019F6F640E9E6F010E000172
:10276800776F540E766F9EC078F09FC079F075CF62
:102778007AF07B6B28EC0DF0010E0001626F540EAD
:10278800616FF6EC2AF0740E0001626F8A0E616FB9
:10279800F6EC2AF074A207D0730E0001626F470EA0
:1027A800616FF6EC2AF074A607D0730E0001626F11
:1027B800EC0E616FF6EC2AF074A007D0740E0001DD
:1027C800626FC20E616FF6EC2AF01200010E000172
:1027D800736FAC0E726F010E756FB10E746F010ED0
:1027E800776FAE0E766F010E796FAF0E786F010EB0
:1027F8007B6FB00E7A6F010E7D6FA40E7C6FC5ECF7
:1028080027F0000901E141D1D92B000EDA23DB239F
:10281800DC230101B0510001D527000ED623D723B0
:10282800D8237F0E626F410E616FF6EC2AF001012A
:10283800006705D07F0E00019A6FED0E04D07F0E61
:1028480000019A6F640E996F010E0001776F540EA4
:10285800766F99C078F09AC079F0AFC17AF07B6B47
:1028680028EC0DF0010E0001626F540E616FF6EC5A
:102878002AF07E0E0001626FF50E616FF6EC2AF009
:102888000101006705D07F0E00019C6FED0E04D09A
:102898007F0E00019C6F6B0E9B6F010E0001776F1E
:1028A800540E766F9BC078F09CC079F0ACC17AF07A
:1028B800ADC17BF028EC0DF0010E0001626F540EE3
:1028C800616FF6EC2AF07F0E0001626F330E616FC4
:1028D800F6EC2AF00101006705D07F0E00019E6F1B
:1028E800ED0E04D07F0E00019E6F640E9D6F010EE9
:1028F8000001776F540E766F9DC078F09EC079F016
:10290800B1C17AF07B6B28EC0DF0010E0001626F0B
:10291800540E616FF6EC2AF07E0E0001626FC30E52
:10292800616FF6EC2AF00101006705D07F0E000107
:10293800A06FED0E04D07F0E0001A06F640E9F6F94
:10294800010E0001776F540E766F9FC078F0A0C01B
:1029580079F0AEC17AF07B6B28EC0DF0010E000126
:10296800626F540E616FF6EC2AF07F0E0001626F01
:102978003A0E616FF6EC2AF00101006705D07F0E70
:102988000001A26FED0E04D07F0E0001A26F640E4D
:10299800A16F010E0001776F540E766FA1C078F019
:1029A800A2C079F0B0C17AF07B6B28EC0DF0010E73
:1029B8000001626F540E616FF6EC2AF00101B0510C
:1029C80054E07F0E0001626F2C0E616FF6EC2AF066
:1029D8000001A56B44D00101006705D07F0E0001FE
:1029E800A46FED0E04D07F0E0001A46F640EA36FD8
:1029F800010E0001776F540E766FA3C078F0A4C063
:102A080079F0A40EA525D96EDA6A010EDA22DF5014
:102A18007A6F7B6B28EC0DF0010E0001626F540E8B
:102A2800616FF6EC2AF0FF0E0101B0250001946FEA
:102A3800956BFF0E9523A551966F976B9751800A5A
:102A4800986F9451965D9551800A985906E27F0EC9
:102A5800626FF40E616FF6EC2AF00001A52B0101FC
:102A6800B0510001A55D08E2B6D77E0E0001626F85
:102A7800910E616FF6EC2AF07F0E0001626FD40EA2
:102A8800616FF6EC2AF0010E01D0000E1200E8CFBB
:102A98000DF03E6A7750C00B0F6E0F6632D060AEF5
:102AA80012D0A49074AE06D00A50D96EDA6A000E1D
:102AB800DB86749E60A002D03E8001D03E900F0E4F
:102AC800126E600E1AD00F0150AF19D0A49274ACD8
:102AD80006D00A50D96EDA6A000EDB86749C505113
:102AE800070B3E6E020E3E6005D00A50D96EDA6AB8
:102AF800000EDB8E0F0E126E500E116E65D0000E9A
:102B0800C2D00F50400A46E160AE04D00F0E126EDC
:102B1800600E3ED00F0150AF04D00F0E126E500E53
:102B280037D00D01F8B507D00E0120AF04D00E0E36
:102B3800126E200E2DD00D01F8B707D00E0130AF60
:102B480004D00E0E126E300E23D00D01F8B907D046
:102B58000E0140AF04D00E0E126E400E19D00D01BA
:102B6800F8BB05D00E0150AF02D00E0ED7D70D011D
:102B7800F8BD05D00E0160AF02D00E0EC8D70D010A
:102B8800F8BFBDD70E0170AFBAD70E0E126E700E19
:102B9800116E0AD074AEB3D76F50070B36EC29F01C
:102BA80001C011F002C012F011C0D9FF12C0DAFF43
:102BB800DF501F0B3E6EA49274AC06D00A50D96E3B
:102BC800DA6A000EDB86749C11C00BF012C00CF0A0
:102BD8000A50D96EDA6ADF6A20EE05F055D8095036
:102BE800D96EDA6A10500F0BDF6E10AC05D00A50A0
:102BF800D96EDA6A000EDB8C20EE02F045D810A6FA
:102C080008D00A50D96EDA6A000EDB8A010E106EFF
:102C180001D0106A1128016E000E1220026E0DC03C
:102C280003F010C004F05CEC1DF0060E1126000E37
:102C380012220950D96EDA6ADF50106E0E6A0DD072
:102C480011C0D9FF12C0DAFF0850E16EE26ADFCF87
:102C5800E7FF114A122A082A0E2A10500E5CF0E3E8
:102C6800A4AE06D00A50D96EDA6A000EDB88A49E9C
:102C78000BC0D9FF0CC0DAFF7F0EDF160F50800A99
:102C8800D8B4749E010E12001150D9261250DA22BF
:102C9800DF50106E1200E8CF6AF0150E0001646F65
:102CA80060C065F061C066F062C067F063C068F03C
:102CB800646701D007D06835683367336633653396
:102CC800642FF6D765516B6F60C064F0030E64170C
:102CD8000D0E656F60C066F061C067F062C068F095
:102CE80063C069F0656701D007D069356933683317
:102CF80067336633652FF6D76651E00B6411080910
:102D08006C6F61C06DF060C06EF090D06BC000FF5A
:102D18006CC001FF6DC002FF6EC003FFAAD06BC07C
:102D280004FF6CC005FF6DC006FF6EC007FFA1D091
:102D38006BC008FF6CC009FF6DC00AFF6EC00BFFB7
:102D480098D06BC00CFF6CC00DFF6DC00EFF6EC03D
:102D58000FFF8FD06BC010FF6CC011FF6DC012FF4A
:102D68006EC013FF86D06BC014FF6CC015FF6DC01A
:102D780016FF6EC017FF7DD06BC060FD6CC061FD93
:102D88006DC062FD6EC063FD74D06BC064FD6CC025
:102D980065FD6DC066FD6EC067FD6BD06BC068FDDC
:102DA8006CC069FD6DC06AFD6EC06BFD62D06BC002
:102DB80070FD6CC071FD6DC072FD6EC073FD59D0A1
:102DC8006BC074FD6CC075FD6DC076FD6EC077FD7F
:102DD80050D06BC078FD6CC079FD6DC07AFD6EC0B7
:102DE8007BFD47D06BC080FD6CC081FD6DC082FD4E
:102DF8006EC083FD3ED06BC084FD6CC085FD6DC088
:102E080086FD6EC087FD35D06BC088FD6CC089FD1E
:102E18006DC08AFD6EC08BFD2CD06BC090FD6CC060
:102E280091FD6DC092FD6EC093FD23D06A5101E102
:102E38006DD7010A01E173D7030A01E179D7010AC5
:102E480080E0070A87E0010A8EE0030A95E0010A9C
:102E58009CE00F0AA3E0010AAAE0030AB1E0010A14
:102E6800B8E0070ABFE0010AC6E0030ACDE0010A9C
:102E7800D4E01200780E0001626F480E616FF6EC24
:102E88002AF0710E0001626F6F0E616FF6EC2AF086
:102E98007B0E0001626F630E616FF6EC2AF0760E0E
:102EA8000001626FD70E616FF6EC2AF0760E000112
:102EB800626F7D0E616FF6EC2AF0740E0001626F8E
:102EC800F60E616FF6EC2AF0750E0001626F5B0E6C
:102ED800616FF6EC2AF07B0E0001626F0B0E616FDA
:102EE800F6EC2AF0750E0001626F8D0E616FF6EC3C
:102EF8002AF0760E0001626FAB0E616FF6EC2AF0D5
:102F08007C0E0001626F000E616FF6EC2AF0730E02
:102F18000001626F0F0E616FF6EC2AF07C0E000163
:102F2800626FC00E616FF6EC2AF07A0E0001626FD4
:102F3800270E616FF6EC2AF0780E0001626F210E01
:102F4800616FF6EC2AF0770E0001626F820E616FF6
:102F5800F6EC2AF0760E0001626F4E0E616FF6EC09
:102F68002AF0710E0001626F0E0E616FF6EC2AF006
:102F7800710E0001626FD90E616FF6EC2AF0700EC7
:102F88000001626F7A0E616FF6EC2AF07C0E000188
:102F9800626F180E616FF6EC2AF0700E0001626F16
:102FA8002C0E616FF6EC2AF07D0E0001626F460E62
:102FB800616FF6EC2AF0700E0001626FC70E616F48
:102FC800F6EC2AF0790E0001626FE30E616FF6EC01
:102FD8002AF0760E0001626F1F0E616FF6EC2AF080
:102FE800750E0001626FF00E616FF6EC2AF0710E3B
:102FF8000001626F960E616FF6EC2AF0750E000103
:10300800626FBF0E616FF6EC2AF0730E0001626FFB
:103018007E0E616FF6EC2AF0720E0001626F5E0E92
:10302800616FF6EC2AF0780E0001626FBD0E616FD9
:10303800F6EF2AF020EEF6F0010EDF6403D093ECF1
:103048001AF002D0BEEC1CF0F29E0001000E616F77
:10305800B70E606F636B010E626F480E9CEC23F035
:103068006005611101E0B9D0F28EF4670ED0ED5120
:1030780009E0ED6BB751020A29E1010EF46F010175
:10308800026B24D0010EED6FA9D0F4051FE1ED51BC
:103098000FE0ED6BB751030A03E1020EF46F16D08F
:1030A800B751100A13E19BD8B7C0DFFF022B96D0A7
:1030B800B751100AE7E093D8B7C0DFFF022B7F0EA5
:1030C80002658CD0026B0001F46B88D00001F451CA
:1030D800020A01E082D0F46B010E6D6F040E6C6F72
:1030E80002C16EF03EEC2DF0000903E0010E03EC86
:1030F80024F00101046703D068EC25F06AD00405C8
:1031080068E00451020A07E1F6EC21F00009F4E155
:1031180018EC25F05ED00451060A03E1EFEC2DF01F
:10312800F5D70451060AF4E00451030AF1E004510A
:10313800040AEEE00451080A07E109C1F5F00AC1E2
:10314800F6F062EC24F045D0042940E1096706D086
:10315800000E00016F6B64EC22F03BD0090509E119
:10316800000EADEC2DF0010E6F6F000E64EC22F036
:1031780030D00951020A09E1400EADEC2DF0020EE3
:103188006F6F000E64EC22F024D00951030A09E1A4
:10319800600EADEC2DF0030E6F6F000E64EC22F0A4
:1031A80018D00951040A09E1200EADEC2DF0040EE7
:1031B8006F6F000E64EC22F00CD00951050A09E18A
:1031C800000E00016F6B64EC22F003D0020E03ECDA
:1031D80024F00101026B0001F46BF28E1200010170
:1031E800040E0225D96EDA6A010EDA2212007E0E6A
:1031F8000001626F090E616FF6EC2AF001010067A9
:1032080005D07F0E0001956FE00E04D07F0E0001FF
:10321800956F720E946F010E0001776F540E766FE2
:1032280094C078F095C079F0E1C07AF0E2C07BF004
:10323800E3C07CF0E4C07DF028EC0DF0010E000145
:10324800626F540E616FF6EC2AF0740E0001626F23
:103258008A0E616FF6EC2AF07E0E0001626F3D0E59
:10326800616FF6EC2AF00101006705D07F0E0001BE
:10327800976FE00E04D07F0E0001976F720E966F65
:10328800010E0001776F540E766F96C078F097C0E4
:1032980079F0DDC07AF0DEC07BF0DFC07CF0E0C002
:1032A8007DF028EC0DF0010E0001626F540E616F85
:1032B800F6EC2AF0740E0001626F8A0E616FF6EC6C
:1032C8002AF07D0E0001626F1B0E616FF6EC2AF08A
:1032D8000101006705D07F0E0001996FE00E04D050
:1032E8007F0E0001996F720E986F010E0001776FC3
:1032F800540E766F98C078F099C079F0D9C07AF0FA
:10330800DAC07BF0DBC07CF0DCC07DF028EC0DF08F
:10331800010E0001626F540E616FF6EC2AF0740E14
:103328000001626F8A0E616FF6EC2AF07D0E0001D3
:10333800626F310E616FF6EC2AF00101006705D06B
:103348007F0E00019B6FE00E04D07F0E00019B6F83
:10335800720E9A6F010E0001776F540E766F9AC045
:1033680078F09BC079F0D5C07AF0D6C07BF0D7C092
:103378007CF0D8C07DF028EC0DF0010E0001626FE2
:10338800540E616FF6EC2AF0740E0001626F8A0E1B
:10339800616FF6EF2AF0000E6E6F8A0E6D6F010EE8
:1033A8000001706FA40E6F6F860E84EC28F0000980
:1033B80001E1ADD0D92B000EDA23DB23DC238A51BF
:1033C800D527000ED623D723D823ACA2FED7540E78
:1033D800C5EC2DF0010E0001776F540E766F86C094
:1033E80078F087C079F088C07AF089C07BF07D6B6F
:1033F800100E7C6F83EC21F08B6B8C6BACA2FED72C
:10340800300EC5EC2DF084D8D8B48B5DF7E3010EEF
:10341800626F540E616FF6EC2AF0010E0001716FB5
:10342800540E706F8AC072F0736B756B100E746FE8
:10343800D6EC2CF0ACA2FED701015451C5EC2DF00E
:1034480000018B6B8C6B2DD0010E0001716F540E37
:10345800706FA40E8B25D96E010E8C21DA6EDF50A9
:10346800726F736B756B100E746FD6EC2CF0010EC7
:103478000001616F540E606F1DEC2CF06051020A60
:10348800611105E0ACA2FED7300EC5EC2DF0010E9F
:103498000001626F540E616FF6EC2AF000018B4B4D
:1034A8008C2B8A51836F846B8C51800A856F835172
:1034B8008B5D8451800A8559C7E3F25123E0010EE0
:1034C8000001776F540E766FE9C078F0EAC079F0A2
:1034D800EBC07AF0ECC07BF07D6B100E7C6F83EC58
:1034E80021F08B6B8C6BACA2FED7300EC5EC2DF0A7
:1034F8000FD8D8B48B5DF7E3010E626F540E616F7D
:10350800F6EC2AF0ACA2FED70D0EC5EC2DF0120099
:1035180000018B4B8C2B8C51800A800FB80C826B6E
:103528007A6B000EB1D884EC28F0000901E1A3D031
:10353800816BD92B000EDA23DB23DC237C51D527C2
:10354800000ED623D723D823ACA2FED7100EC5EC85
:103558002DF0ACA2FED7020EC5EC2DF0ACA2FED722
:10356800060EC5EC2DF00001000E686F810E676F26
:10357800060E696FF2EC2CF0ACA2FED7000EC5EC7B
:103588002DF00001000E686F810E676F000E696BE9
:10359800F2EC2CF0000E6D6F810E6C6FF3516CEC39
:1035A8002AF0F32B540E00018225D96EDA6A010E37
:1035B800DA2280C0DFFF60D87FC0DFFF5DD87EC021
:1035C800DFFF5AD87DC0DFFF57D87CC0DFFF822BD2
:1035D8007B6B0FD07B51720FD96EDA6A540E0001E3
:1035E8008225E16EE26A010EE222DFCFE7FF822B3D
:1035F8007B2B7C517B5DEEE37A2BF6517A6109D007
:10360800050E7A6106D0000E3FD884EC28F0000938
:10361800C9E1000E6D6F810E6C6F000E6CEC2AF024
:10362800000E6D6F810E6C6F82516CEC2AF07B6B13
:1036380010D0000E6D6F810E6C6F540E00017B254B
:10364800D96EDA6A0101010EDA22DF506CEC2AF039
:103658007B2B82517B5DEDE36D6B6C6B81516CEC68
:103668002AF0ACA2FED7100EC5EC2DF0ACA2FED706
:10367800030EC5EC2DF01200822B540E8225D96E54
:10368800DA6A010EDA2212006E6F7C0E6D6F000E80
:10369800706F720E6F6F7D0E12000F0E0001746F47
:1036A800400E736F0F0E766F300E756F0F0E786FBA
:1036B800200E776F0E0E7A6F200E796F0E0E7C6FCC
:1036C800300E7B6F0E0E7E6F400E7D6F0E0E806F7C
:1036D800500E7F6F0E0E826F600E816F0E0E846F1C
:1036E800700E836F7750C00B856F856702D0020E0E
:1036F80001D0080E866F0D01D890F8310001886F4F
:103708008C6B7DD08C51020DF350730FD96EDA6A31
:10371800DECF8DF0DDCF8EF08DC089F08EC08AF0BF
:10372800020E8C6504D0D890883388A167D08DC0EC
:10373800D9FF8EC0DAFFDF50726F72B75FD08DC0CD
:10374800D9FF8EC0DAFFFC0EDF1671C072F0030ECF
:1037580072178DC0D9FF8EC0DAFF7251DF1271ADBA
:1037680004D0705140098B6F02D070C08BF020EEEE
:1037780005F08D51D9268E51DA228BC0DFFF71AB4F
:1037880003D0010E8B6F01D08B6B8D29606F000EFB
:103798008E21616F6AC062F06BC063F06CC064F028
:1037A8006DC065F08BC066F079EC1EF0060E8D27B3
:1037B800000E8E23876B0FD06EC0D9FF6FC0DAFF63
:1037C8008DC0E1FF8EC0E2FFDFCFE7FF6E4B6F2BAE
:1037D8008D4B8E2B872B7051875DEEE389C0D9FF07
:1037E8008AC0DAFFDF50726F72B506D089C0D9FF80
:1037F8008AC0DAFF000EDB86010E05D08C2B8651BD
:103808008C5D80E3000E1200010E0001F56FF66F6B
:10381800020E616F000E606F636B800E626F480E60
:103828003DEC2CF0040E616F000E606F010E636FAB
:10383800EE0E626F400E3DEC2CF071EC29F0616BDE
:10384800010E606FD8EC2DF0550A07E1616B020E8E
:10385800606FD8EC2DF0AA0AD8A4EAEC2DF093EC0E
:103868002BF0820ECF6FDD0EE82EFED7CF2FFCD7C0
:1038780000D0790E0001626F2F0E616FF6EC2AF00E
:10388800740E0001626F8D0E616FF6EC2AF0790EEE
:103898000001626F9D0E616FF6EC2AF039EC27F09B
:1038A800FBEC28F00001F15134E0730E626FB50EA5
:1038B800616FF6EC2AF00001E56BE66BE76BE86BED
:1038C800060E3F6E1DD00400F29E0001000E616FCF
:1038D800D00E606F636B010E626F480E9CEC23F094
:1038E800600561110CE1F28ED051760A08E1F16BA6
:1038F8007B0E626F2A0E616FF6EC2AF00AD0F28E08
:10390800B80EE55D0B0EE659000EE759000EE859B2
:10391800DAE3010E3F6E040074AA02D0060E09D045
:1039280074B802D074A602D0050E03D0040E74A099
:10393800010E3F6E74AC07D00001D12B000ED223CC
:10394800D323D423749C0001F16703D036EC03F031
:10395800E2D7F10503E11EEC18F0DDD7F151020AB8
:1039680003E1C8EC10F0D7D7F151030AEFE1EEEC10
:103978002DF0D1D7000E6E6F7F0E6D6F000E706F39
:10398800720E6F6F7B0E84EC28F0000901E18FD076
:10399800806BD92B000EDA23DB23DC237F51D5275C
:1039A800000ED623D723D823ACA2FED7100EC5EC21
:1039B8002DF0ACA2FED7020EC5EC2DF0ACA2FED7BE
:1039C800020EC5EC2DF00001000E686F800E676FC7
:1039D800020E696FF2EC2CF0ACA2FED7000EC5EC1B
:1039E8002DF00001000E686F800E676F000E696B86
:1039F800F2EC2CF0000E6D6F800E6C6FF3516CECD6
:103A08002AF0F32B000E6D6F800E6C6F000E6CECBD
:103A18002AF0000E6D6F800E6C6F7F51050F6CECF5
:103A28002AF0000E6D6F800E6C6F00017E516CECF9
:103A38002AF0000E6D6F800E6C6F00017D516CECEA
:103A48002AF0000E6D6F800E6C6F00017C516CECDB
:103A58002AF0000E6D6F800E6C6F7B516CEC2AF0B3
:103A6800000E6D6F800E6C6F7F516CEC2AF07A6BD4
:103A78000CD0000E6D6F800E6C6F7A51720FD96E7C
:103A8800DA6ADF506CEC2AF07A2B7F517A5DF1E329
:103A98006D6B6C6B80516CEC2AF0ACA2FED7100EEB
:103AA800C5EC2DF0ACA2FED7030EC5EC2DF012002C
:103AB80003C007F004662BD00750D96E62D80536CC
:103AC800D8900536D8900534DF6E0750D96EDA6A7B
:103AD800D92ADA6A73D8D8900532062EFCD7055051
:103AE80059D8050E066ED8900532062EFCD7075019
:103AF800D96EDA6A0550DF123DD8DF6A0750D96EF1
:103B0800DA6A030ED926DA6A000EDF6E32D032D8AE
:103B180055D8D8900536062EFCD70550DF6E0750CD
:103B2800D96EDA6A030ED9262CD80532D890053218
:103B3800D89005302FD8030E05161CD80550DF1273
:103B480001C0D9FF02C0DAFFDF50056ED8900532F8
:103B5800D8900532D89005321C0E05160BD80550A2
:103B6800DF1222D8E12AE26ADFCFE7FF1DD8DFCFD4
:103B7800E7FF12000750D96EDA6A020ED926DA6A10
:103B88001200DA6A01C0E1FF02C0E2FFE750056EE9
:103B9800D8901200DF6E014A022A01C0D9FF02C084
:103BA800DAFFDF50056E1200014A022A01C0D9FF70
:103BB80002C0DAFF0750E16EE26A120001C0E1FFBD
:103BC80002C0E2FFE750056E050E066E050CE8CF51
:103BD8000FF001C00AF00B6A0C6A0D6A0E6A52D027
:103BE8000F50D96EDA6A040E5BD802E10650081845
:103BF80012E00F50D96EDA6A060E52D802E106506A
:103C080008180EE10F50D96EDA6A040ED926DA6A5E
:103C1800DE50DD1005E10BC001F00CC002F03FD012
:103C28000A50D96E5AD8E6CF06F0E5CF07F00F5004
:103C3800E16EE26AE6CF08F0E5CF09F00650082405
:103C4800E16E07500920E26EDFCFE7FF0A2A3ED86F
:103C5800DE2A000EDD220F50D96EDA6A060ED9264A
:103C68003CD8E652DE52DD50E518DFCFE8FFD8B485
:103C7800E71803E12BD8DE6ADD6A0B2A000E0C2256
:103C88000D220E2202500B5C03500C5804500D58A4
:103C980005500E58A5E302C001F003C002F012005F
:103CA800D926DA6ADECF06F0DDCF07F00F50D96EDD
:103CB800DA6A020ED926DA6ADECF08F0DDCF09F01B
:103CC800082A000E09220750091812000F50D96E51
:103CD800DA6A020ED926DA6A1200DA6A0F50E16E41
:103CE800E26A020EE126E26A1200620E696F6667F6
:103CF80022D06951D96EDA6ADF50676FD89067337E
:103D0800D8906733D890673162D8D92ADA6A72D8DE
:103D1800D8906737682FFCD760C0D9FF46D86AD8D3
:103D2800D8906737682FFCD7675160C0D9FF61C04A
:103D3800DAFFDF6E39D0695142D8050E686FD89026
:103D48006733682FFCD7675142D8030E49D86737C5
:103D580060C0D9FF2AD8020E43D86735E00B60C08F
:103D6800D9FF61C0DAFFDF6E60C0D9FF61C0DAFF3A
:103D7800000EDB86695123D8030E671760C0D9FF90
:103D880014D8D92ADA6A60C0E1FF61C0E2FFDFCF48
:103D9800E7FF604B612B6951D96EDA6A60C0E1FFB9
:103DA80061C0E2FFDFCFE7FF120061C0DAFF6751B1
:103DB800DF12604B612B6951D96EDA6A1200D96E35
:103DC800DA6A020ED926DA6ADF50676F120060C01D
:103DD800D9FF61C0DAFFDF6E6951D96EDA6A120065
:103DE800D926DA6ADF50676FD8906737D890673777
:103DF800D8901200DF50676F050E686F050CE8CF8A
:103E0800C1F0C1C0A4F10001B7510101A56FB6C04E
:103E1800A6F1B8C0A7F1BBC0D9FFBCC0DAFFDF501C
:103E2800A86F0001976B966B260E986F996B9A6B2B
:103E3800050E9B6F010E9D6FA40E9C6FBDEC24F0C8
:103E480000095EE0E56BE66BE76BE86B49D00400C0
:103E5800010E0001736FAC0E726F010E756FB10E1B
:103E6800746F010E776FAE0E766F010E796FAF0E1D
:103E7800786F010E7B6FB00E7A6F010E7D6FA40E06
:103E88007C6FC5EC27F000092BE00101AE51000161
:103E9800C16326D00101B051050A22E1A46720D0F0
:103EA8000001B7510101A5191BE10001B65121EE2E
:103EB800A6F0DF6215D0B851010121EEA7F0DF624C
:103EC8000FD0A851BBC0D9FFBCC0DAFFDF6208D051
:103ED800BBC0D9FFBCC0DAFFA5C1DFFF010E11D0FE
:103EE8000001B951BD6FBA51BE6FBF6BC06BBD51F8
:103EF800E55DBE51E659BF51E759C051E859A7E3FE
:103F0800000E120003D00001664B672B000176D823
:103F1800EA6403D0EA6EEF5003D0F76E0800F5505C
:103F2800200AF1E000016AD8EA6403D0EA6EEF5093
:103F380003D0F76E0800F550090AE5E000016B6B45
:103F48006C6B6A6B5BD8EA6403D0EA6EEF5003D0FF
:103F5800F76E0800F5502D0A03E100016A2B0DD019
:103F680000014CD8EA6403D0EA6EEF5003D0F76E34
:103F78000800F5502B0A21E10001664B672B1DD084
:103F88006BC060F06CC061F0636B0A0E626F0DEC81
:103F98002DF034D8EA6403D0EA6EEF5003D0F76E00
:103FA8000800F55000016027000E6123D00E60253F
:103FB8006B6FFF0E61216C6FDFD700011FD8EA64B9
:103FC80003D0EA6EEF5003D0F76E0800F5507FEC8F
:103FD8002DF0D6E26A510DE06BC068F06CC069F054
:103FE800681F691F684B692B68C066F069C067F075
:103FF80004D06BC066F06CC067F012006651F66EB4
:10400800E96E050EEA6E67511200E8CFBFF0010EA7
:104018000001616F540E606F636B626B656B500ECD
:10402800646F55EC2DF07E0E626FE50E616FF6EC55
:104038002AF00001C46BC451D00FB66F000103C150
:10404800B7F0B86BC30EB96FBF5135EC23F0000958
:1040580029E00001000E716FC00E706FC3C072F0CE
:10406800736B756B100E746FD6EC2CF0000E616FCD
:10407800C00E606F1DEC2CF0600561110FE1010EA0
:104088000001616F540E606F7F0E636FF80E626FF0
:10409800CAEC2AF032D8CAEC2AF00FD02ED8CAECD3
:1040A8002AF00BD0010E0001616F540E606F7F0E75
:1040B800636FE40E626FCAEC2AF00F0E0001C46150
:1040C8000AD0010E616F540E606F7F0E636FFA0E97
:1040D800626FCAEC2AF00001C42B0F0EC465ABD77F
:1040E800010E626F540E616FF6EC2AF0740E000137
:1040F800626F8A0E616FF6EF2AF0010E0001616FA0
:10410800540E606F000E636FC00E626F1200E8CF2E
:10411800C1F0C1C0A4F10001B7510101A56FB6C03B
:10412800A6F1B8C0A7F1010EA86F0001976B966BB6
:10413800250E986F996B9A6B050E9B6F010E9D6FFC
:10414800A40E9C6FBDEC24F000095DE0E56BE66B06
:10415800E76BE86B48D00400010E0001736FAC0EEA
:10416800726F010E756FB10E746F010E776FAE0E20
:10417800766F010E796FAF0E786F010E7B6FB00E00
:104188007A6F010E7D6FA40E7C6FC5EC27F00009D5
:104198002AE00101AE510001C16325D00101AD51F2
:1041A800AC1121E1B151270A1EE1B051050A1BE10A
:1041B800A46719D00001B7510101A51914E1000144
:1041C800B65121EEA6F0DF620ED0B851010121EE02
:1041D800A7F0DF6208D0BBC0D9FFBCC0DAFFA8C116
:1041E800DFFF010E11D00001B951BD6FBA51BE6F8A
:1041F800BF6BC06BBD51E55DBE51E659BF51E75974
:10420800C051E859A8E3000E12000001C76B710EF7
:10421800626F530E616FF6EC2AF0010E0001C96F50
:104228000400E00E0001B66F03C1B7F0B86BC80E0A
:10423800B96FC95135EC23F0000943E07B0E00014A
:10424800626F990E616FF6EC2AF00101006704D0E5
:104258000001C66B0A0E03D00001C66B100EC56FB5
:10426800010E0001716F540E706FAEC172F0736B66
:10427800C5C074F0C6C075F0D6EC2CF0010E000174
:10428800626F540E616FF6EC2AF0740E0001626FD3
:104298008A0E616FF6EC2AF00001C951CDEC22F0CC
:1042A8000001C95109EC20F00001C951A5EC26F024
:1042B800710E0001626F530E616FF6EC2AF0000177
:1042C800C72B0001C92BC967ABD7010E716F540EFC
:1042D800706FC7C072F0736B756B0A0E746FD6EC93
:1042E8002CF0010E0001626F540E616FF6EC2AF09B
:1042F8007E0E0001626F4E0E616FF6EF2AF078C0F5
:104308007EF079C07FF07AC080F07BC081F07EC0FB
:1043180060F07FC061F080C062F081C063F058D85F
:10432800C0EC28F063C081F062C080F061C07FF00B
:1043380060C07EF0764B772B81517E117F11801102
:10434800E6E176C0D9FF77C0DAFFDF6A7607D8A042
:10435800770778C06DF079C06EF07AC06FF07BC0D7
:1043680070F07CC071F07DC072F0000E72BFFF0E5D
:10437800736F746F3BEC2AF06D51826F78C060F0F8
:1043880079C061F07AC062F07BC063F021D8C0ECDC
:1043980028F063C07BF062C07AF061C079F060C039
:1043A80078F0090E826502D0070E8227300E822728
:1043B80076C0D9FF77C0DAFF82C0DFFF7607D8A0C2
:1043C80077077B51781179117A11D8B41200C1D7C7
:1043D8007CC064F07DC065F0000E65BFFF0E666F9F
:1043E800676F12000BC196F00001976B986B996B81
:1043F80098C099F097C098F096C097F0966B0AC14C
:104408009AF09B6B9C6B9D6B9BC09DF09AC09CF037
:104418009B6B9A6B09C19EF09F6BA06BA16B1A0EE8
:10442800D8909E379F37A037A137E82EF9D79A51F1
:104438009E11A26F9B519F11A36F9C51A011A46F55
:104448009D51A111A56F9651A211A66F9751A31165
:10445800A76F9851A411A86F9951A511A96F0101CF
:104468000C510001A611B26FA751B36FA851B46FD8
:10447800A951B56F01010851FC0F0001B66F000E7C
:10448800616FAA0E606F0D0E966F010E976F96C042
:1044980062F097C063F0B6C064F0656BFCEC2BF07B
:1044A800B2C08FF0B3C090F0B4C091F0B5C092F034
:1044B800B6C093F0000E956FAA0E946FBAEF2CF069
:1044C800E8CF70F0716BACA2FED7100EC5EC2DF0E2
:1044D800ACA2FED7020EC5EC2DF0ACA2FED7FE0EA4
:1044E800C5EC2DF00001000E686F710E676FFE0EAF
:1044F800696FF2EC2CF0ACA2FED7000EC5EC2DF0E3
:1045080041D8F2EC2CF0000E6D6F710E6C6F01014A
:1045180006516CEC2AF0ACA2FED7000EC5EC2DF0CB
:1045280031D8F2EC2CF0ACA2FED7020EC5EC2DF07F
:104538000001000E686F710E676F020E696FF2EC72
:104548002CF0ACA2FED7000E6D6F710E6C6F70511F
:104558006CEC2AF0ACA2FED7000E6D6F710E6C6F7A
:104568006F516CEC2AF06D6B6C6B71516CEC2AF02E
:10457800ACA2FED7100EC5EC2DF0ACA2FED7030EF0
:10458800C5EF2DF00001000E686F710E676F696B43
:10459800000CE8CFBFF0010E0001616F540E606F90
:1045A800636B626B656B500E646F55EC2DF07D0E7E
:1045B800626FBE0E616FF6EC2AF00001C46BC45145
:1045C800940FB66F000103C1B7F0B86BC30EB96F93
:1045D800BF5135EC23F0000919E00001000E716F9E
:1045E800C00E706FC3C072F0736B756B100E746F72
:1045F800D6EC2CF0010E0001616F540E606F000EB6
:10460800636FC00E626FCAEC2AF00BD0010E000176
:10461800616F540E606F7F0E636FFC0E626FCAECA1
:104628002AF0020E0001C4610AD0010E616F540E17
:10463800606F7F0E636FF60E626FCAEC2AF000019E
:10464800C42B020EC465BBD7010E626F540E616F96
:10465800F6EC2AF0740E0001626F8A0E616FF6EFB5
:104668002AF0E8CFBEF0BEC0A4F1B6C0A5F1976BA2
:10467800966B090E986F996B9A6B020E9B6F010EE1
:1046880000019D6FA40E9C6FBDEC24F000094EE064
:10469800E56BE66BE76BE86B39D00400010E0001AF
:1046A800736FAC0E726F010E756FB10E746F010EE1
:1046B800776FAE0E766F010E796FAF0E786F010EC1
:1046C8007B6FB00E7A6F010E7D6FA40E7C6FC5EC08
:1046D80027F000091BE00101AE510001BE6316D0AE
:1046E8000101AD51AC1112E1B1510A0A0FE1B0510B
:1046F800020A0CE1A4510001B66308D0B951D96E81
:10470800DA6A0101A5C1DFFF010E11D00001B7511E
:10471800BA6FB851BB6FBC6BBD6BBA51E55DBB518D
:10472800E659BC51E759BD51E859B7E3000E1200EC
:10473800E8CF6CF060C068F061C069F06A6B6B6BC1
:104748003ED06C51D96EDA6A020E43D8D8B4E71855
:104758002FE04ED8DECF64F0DDCF65F06C51D96E16
:10476800DA6ADECF66F0DDCF67F064516625D96E70
:1047780065516721DA6E68C0E1FF69C0E2FFDFCFEB
:10478800E7FF684B692B6C51D96EDA6A040ED9269B
:10479800DA6ADE2A000EDD226C51D96EDA6A060E5C
:1047A80018D8D8B4E71809E123D8DE6ADD6A05D03D
:1047B8006AC060F06BC061F00BD06A4B6B2B625122
:1047C8006A5D63516B59BDE362C060F063C061F01C
:1047D8001200D926DA6A6C51E16EE26A040EE1260B
:1047E800E26AE652DE52DD50E518DFCFE8FF12003C
:1047F8006C51D96EDA6A040ED926DA6A1200E8CF4B
:104808006FF00001706BACA2FED7100EC5EC2DF056
:10481800ACA2FED7020EC5EC2DF0ACA2FED7FD0E61
:10482800C5EC2DF00001000E686F700E676FFD0E6D
:10483800696FF2EC2CF0ACA2FED7000EC5EC2DF09F
:1048480036D8F2EC2CF0000E6D6F700E6C6F010113
:1048580006516CEC2AF0ACA2FED7000EC5EC2DF088
:1048680026D8F2EC2CF0ACA2FED7010EC5EC2DF048
:104878000001000E686F700E676F010E696FF2EC31
:104888002CF0000E6D6F700E6C6F6F516CEC2AF08F
:104898006D6B6C6B70516CEC2AF0ACA2FED7100EED
:1048A800C5EC2DF0ACA2FED7030EC5EF2DF000012C
:1048B800000E686F700E676F696B000C00016F6BFC
:1048C800ACA2FED7100EC5EC2DF0ACA2FED7020E9E
:1048D800C5EC2DF0ACA2FED7090EC5EC2DF00001F9
:1048E800000E686F6F0E676F090E696FF2EC2CF09F
:1048F800ACA2FED7000EC5EC2DF00001000E686FCB
:104908006F0E676F000E696BF2EC2CF0000E6D6F86
:104918006F0E6C6FF3516CEC2AF0F32B000E6D6F79
:104928006F0E6C6F000E6CEC2AF0000E6D6F6F0E40
:104938006C6F020E6CEC2AF0000E6D6F6F0E6C6FD0
:10494800010E6CEC2AF0000E6D6F6F0E6C6F000E8E
:104958006CEC2AF06D6B6C6B6F516CEC2AF0ACA2AE
:10496800FED7100EC5EC2DF0ACA2FED7030EC5EF96
:104978002DF098C09EF09F6BA06BA16BA0C0A1F01A
:104988009FC0A0F09EC09FF09E6B9651A26F97515A
:10499800A36FA46BA56BA3C0A5F0A2C0A4F0A36BE2
:1049A800A26B9AC0A6F0A76BA86BA96B1A0ED89039
:1049B800A637A737A837A937E82EF9D7A251A611E5
:1049C800AA6FA351A711AB6FA451A811AC6FA55141
:1049D800A911AD6F9E51AA11AE6F9F51AB11AF6F68
:1049E800A051AC11B06FA151AD11B16F9951AE1179
:1049F800B26FAF51B36FB051B46FB151B56FB2C0B0
:104A08008FF0B3C090F0B4C091F0B5C092F09BC0E5
:104A180093F09CC094F09DC095F0BAEC2CF000097E
:104A2800000ED8A4010E120000016F6BACA2FED7D5
:104A3800100EC5EC2DF0ACA2FED7020EC5EC2DF081
:104A4800ACA2FED7FC0EC5EC2DF00001000E686F7D
:104A58006F0E676FFC0E696FF2EC2CF0ACA2FED7FC
:104A6800000EC5EC2DF029D8F2EC2CF0000E6D6F7D
:104A78006F0E6C6F010106516CEC2AF0ACA2FED7E8
:104A8800000EC5EC2DF019D8F2EC2CF0ACA2FED734
:104A9800000EC5EC2DF011D8F2EC2CF06D6B6C6BA0
:104AA8006F516CEC2AF0ACA2FED7100EC5EC2DF0BD
:104AB800ACA2FED7030EC5EF2DF00001000E686F03
:104AC8006F0E676F696B000C00016F6BACA2FED7AD
:104AD800100EC5EC2DF0ACA2FED7020EC5EC2DF0E1
:104AE800ACA2FED7FB0EC5EC2DF00001000E686FDE
:104AF8006F0E676FFB0E696FF2EC2CF0ACA2FED75D
:104B0800000EC5EC2DF029D8F2EC2CF0000E6D6FDC
:104B18006F0E6C6F010106516CEC2AF0ACA2FED747
:104B2800000EC5EC2DF019D8F2EC2CF0ACA2FED793
:104B3800000EC5EC2DF011D8F2EC2CF06D6B6C6BFF
:104B48006F516CEC2AF0ACA2FED7100EC5EC2DF01C
:104B5800ACA2FED7030EC5EF2DF00001000E686F62
:104B68006F0E676F696B000C69C06DF06AC06EF0FC
:104B78006DC060F06EC061F06BC062F06CC063F035
:104B88006EEC2BF060C06DF061C06EF0674B682B67
:104B98006E516D11EDE167C0D9FF68C0DAFF000EF4
:104BA800DF6A6707D8A0680769C060F06AC061F06B
:104BB8006BC062F06CC063F09BEC2CF060516F6FBF
:104BC80069C060F06AC061F06BC062F06CC063F0ED
:104BD8006EEC2BF060C069F061C06AF0090E6F6579
:104BE80002D0070E6F27300E6F2767C0D9FF68C045
:104BF800DAFF6FC0DFFF6707D8A068076A5169113D
:104C0800D3E1674B682B1200E8CF0BF03FD80B506D
:104C1800E16EE26A020EE126E26AE652DE52DD50F9
:104C2800E55C02E1DF50E75C10E237D8DECF03F045
:104C3800DDCF04F02BD8DECF05F0DDCF06F0035032
:104C4800055C016E045006581FD020D8DECF03F053
:104C5800DDCF04F022D8DECF05F0DDCF06F00B5013
:104C6800D96EDA6A060ED926DA6ADECF07F0DDCF0A
:104C780008F00550075C096E065008580A6E035084
:104C88000924016E04500A20026E12000B50D96EDE
:104C9800DA6A040ED926DA6A12000B50D96EDA6A7B
:104CA800020ED926DA6A120067C060F068C061F0A7
:104CB8001DEC2CF0D89061316D6F60316C6F6651CE
:104CC800696F6A6B6A51800A6B6F6C51695D6D51CF
:104CD800800A6B5902E2000E33D0706B716B67C0AB
:104CE8006EF068C06FF022D070516425D96E715192
:104CF8006521DA6E10EE01F06E51E1266F51E22265
:104D0800E7505DEC2CF0696F6EC0E1FF6FC0E2FF09
:104D1800E7505DEC2CF06A6F6A39F00B6911DF6EB1
:104D2800020E6E27000E6F23704B712B7151800A93
:104D3800696F6C51705D6D51800A6959D5E3705186
:104D48001200E8CFBFF0010E0001C26F540EC16F10
:104D5800010E616F540E606F636B626B656B500E72
:104D6800646F55EC2DF07E0E626F6C0E616FF6EC81
:104D78002AF00001C36BC351E00FB66F000103C1F5
:104D8800B7F0B86BC00EB96FBF5135EC23F000090E
:104D98000AE0C1C0D9FFC2C0DAFFC0C0DFFF00010E
:104DA800C14BC22B07D0C1C0D9FFC2C0DAFF3F0E2A
:104DB800DF6EF5D7C32B1F0EC365DDD7010E0001CB
:104DC800626F540E616FF6EC2AF0740E0001626F88
:104DD8008A0E616FF6EF2AF06D516C1104E13BC049
:104DE8006CF03CC06DF06D516C1116E06CC066F053
:104DF8006DC067F06EC068F06FC069F0DAEC2BF038
:104E080066516C2767516D236CC0D9FF6DC0DAFFFE
:104E1800DF5005E13B6A3C6A6C6B6D6B25D06CC05A
:104E280066F06DC067F06EC068F06FC069F0B8ECEE
:104E38002BF066516C253B6E67516D213C6E3BC073
:104E4800D9FF3CC0DAFFDF5009E03BC0D9FF3CC0C6
:104E5800DAFF000EDF6E3B4A3C2A02D03B6A3C6A0E
:104E68006CC06CF06DC06DF012007E0E0001626FB8
:104E78009C0E616FF6EC2AF038D8010E726F756BD4
:104E88000A0E746FD6EC2CF0000E626F780E616F0C
:104E9800F6EC2AF0ACA2FED72E0EC5EC2DF025D8E4
:104EA800726B756B0A0E746FD6EC2CF0000E626F85
:104EB800780E616FF6EC2AF0ACA2FED72E0EC5EC88
:104EC8002DF013D8726B756B0A0E746FD6EC2CF03C
:104ED800000E626F780E616FF6EC2AF0740E000116
:104EE800626F8A0E616FF6EF2AF00001000E716F93
:104EF800780E706F736B1200616B010E606F550E48
:104F0800626F6CEC2DF0616B020E606FAA0E626F1F
:104F18006CEC2DF0616B030E606F000E626B6CEC35
:104F28002DF0616B050E606F000E626B6CEC2DF05E
:104F3800616B060E606F000E626B6CEC2DF0616B9E
:104F4800090E606F0A0E626F6CEC2DF0200E636F15
:104F5800616B010E606FFF0E62696CEC2DF0632BC4
:104F68005F0E6365F5D7600E636F616B010E606F4E
:104F7800FF0E62696CEC2DF0632B670E6365F5D745
:104F8800670C7AC06DF07BC06EF07CC06FF07DC09E
:104F980070F0820E84EC28F0000902E1000E33D094
:104FA80076C0D9FF77C0DAFF82C0DFFF74C0D9FFAF
:104FB80075C0DAFF83C0DFFF000184517E6F010EE8
:104FC80085157F6F72C0D9FF73C0DAFF7EC0DEFF20
:104FD8007FC0DDFF82C07EF083C07FF084C080F098
:104FE80085C081F01B0E05D0D890813380337F3384
:104FF8007E33E82EF9D77E51070B78C0D9FF79C0E8
:10500800DAFFDF6E010E1200800EADEC2DF0090EF6
:10501800706EFC0E716E010E726E200E736E778EBE
:10502800779C606A0F01506B0E01206B306B406BF0
:10503800506B606B706B0D01F86B0F01006B080E05
:10504800016F026B036B010E0D01D46FD56BE06B22
:10505800110EE16FE26FE36BE46BE56BE66BE76BF8
:10506800540EF06F050EF16FF26BF26B0F01186BB7
:10507800196B1A6B1B6B19871C6B1D6B1E6B1F6BD7
:105088001D87200EADEF2DF02FD06DC064F06EC0DF
:1050980065F06FC066F070C067F06FC060F070C0F8
:1050A80061F01DEC2CF060C068F061C069F0A6ECFE
:1050B80029F06551641105E16DC06DF06EC06EF0A8
:1050C8001ED06D29616F000E6E21626F6FC0F6FFF2
:1050D80070C0F7FF0800F550636F646B7CEC2CF030
:1050E80061C06DF062C06EF06E516D1106E06DC06A
:1050F800D9FF6EC0DAFFDF50C8E16D6B6E6B12002E
:10510800E8CF71F0F0510FE0F29E71C060F0616B72
:10511800636B040E626F400E9CEC23F06051040A2E
:10512800611103E0F28E000E26D06DC060F06EC0F3
:1051380061F0636B010E626F400E9CEC23F060051A
:105148006111F0E16FC060F070C061F06DC0D9FF0F
:105158006EC0DAFFDF50626F636B400E9CEC23F089
:105168006DC0D9FF6EC0DAFFDF5060196111DAE156
:10517800F007F28E010E1200686B696B6A6B6B6B3D
:10518800675164116511661129E0010E6C6F06D034
:10519800D89064376537663767376C2B67AFF8D7B1
:1051A800D890683769376A376B376451605D6551E5
:1051B8006159665162596751635909E36451605FE7
:1051C8006551615B6651625B6751635B6881D8902A
:1051D80067336633653364336C2FE2D768C060F099
:1051E80069C061F06AC062F06BC063F012007F0EA4
:1051F8000001626F250E616FF6EC2AF00001F1677D
:1052080007D07F0E626F1D0E616FF6EC2AF023D077
:10521800F10507E17E0E626F7A0E616FF6EC2AF0F7
:105228001AD0F151020A07E17E0E626FB00E616F6B
:10523800F6EC2AF010D0F151030A07E17E0E626FF6
:10524800A60E616FF6EC2AF006D07C0E626FEE0EA9
:10525800616FF6EC2AF0740E0001626F8A0E616FBE
:10526800F6EF2AF0E8CF04F024D00F0E066E600E99
:105278001ED00F010F0E066E500E19D00E010E0E25
:10528800066E200E14D00E010E0E066E300E0FD0D4
:105298000E010E0E066E400E0AD00E010E0EEBD752
:1052A8000E010E0EE3D70E010E0E066E700E056E81
:1052B8000FD00450DAE0010ADCE0030ADFE0010A5B
:1052C800E2E0070AE5E0010AE8E0030AE9E0EBD7D3
:1052D80005C001F006C002F012003850371031E165
:1052E800656B666B65C064F0626B636B64BF03D00B
:1052F800606B616B03D0616B070E606F645164254E
:105308006019646F624B632B6351800A800F080E2B
:10531800D8B4625DEBE3000E00016525D96E030E7B
:105328006621DA6E64C0DFFF654B662B6651800A22
:105338007F0F000ED8B4655DD5E3000E386E010E00
:10534800376E120027D066C0F6FF67C0F7FF080067
:10535800F550BAEC2DF06A6F64C0D9FF65C0DAFF6A
:10536800DF50BAEC2DF06B6F6A516B5D6C6F00010A
:105378006C6706D064C0D9FF65C0DAFFDF5006E16C
:105388006C51646F656B64BF65070ED0644B652B09
:10539800664B672B6807D8A0690700016829D8B44D
:1053A8006929D1E1646B656B120004EE00F011EE1F
:1053B800EEF0EE6AE550E150FCE1E250FAE103EE6E
:1053C80000F011EE00F0EE6AE550E150FCE1E25029
:1053D800FAE102EE00F0800EEE6AE806FDE101EE69
:1053E80000F0B20EEE6AE806FDE100EED1F0240E00
:1053F800EE6AE806FDE100EE2BF0250EEE6AE806FF
:10540800FDE1000EF86E000108EF1CF0000160518C
:10541800F66EE96E050EEA6E6151EA6403D0EA6E33
:10542800EF5003D0F76E0800F5500001621905E14E
:1054380060C060F061C061F019D06051646F615163
:10544800656F604B612B6451F66EE96E050EEA6E6E
:105458006551EA6403D0EA6EEF5003D0F76E080096
:10546800F5500009D3E10001606B616B12007451C3
:1054780071117211731123E0010E756F06D0D89067
:105488007137723773377437752B74AFF8D771511A
:105498006D5D72516E5973516F597451705908E3AB
:1054A80071516D5F72516E5B73516F5B7451705BBC
:1054B800D8907433733372337133752FE8D76DC056
:1054C8006DF06EC06EF06FC06FF070C070F01200BB
:1054D800E8CF6EF000016E51100A17E1ACA2FED7BA
:1054E800100EC5EC2DF0ACA2FED7100EC5EC2DF0B9
:1054F80000016D516C111BE06CC067F06DC068F065
:10550800100E696FF2EC2CF012D0ACA2FED700019D
:105518006E51C5EC2DF000016D516C1108E06CC0A6
:1055280067F06DC068F06EC069F0F2EC2CF0120004
:10553800E8CF62F0AC6AAB6A62B1AC8862A302D011
:10554800AC8CAB8C62B5AC8E62A702D0AB8801D0B4
:10555800AB8A62B9AC849E9862BBAB8662AD02D05E
:105568009D8A01D09D9A9E9A62AF02D09D8801D0F3
:105578009D9860C0AFFF6151B06EAC8AAB8E949CB1
:10558800948EACB8ACBE01D0948C120060C064F0AC
:1055980061C065F002D0644B652B64C0D9FF65C05B
:1055A800DAFFDF5006E0F7D70001644B652B624B4A
:1055B800632B62C0F6FF63C0F7FFF86A64C0D9FFC7
:1055C80065C0DAFF050EF76403D00800F55005D072
:1055D800F6CFE9FFF7CFEAFFEF50DF6EDF50D8B420
:1055E8001200E2D7ACA2FED700016151F66EE96E57
:1055F800050EEA6E6251EA6403D0EA6EEF5003D0FA
:10560800F76E0800F550C5EC2DF000016151636F8D
:105618006251646F614B622B6351F66EE96E050E41
:10562800EA6E6451EA6403D0EA6EEF5003D0F76E75
:105638000800F5500009D8B41200D4D70001D16B86
:10564800D26BD36BD46B2B6A2C6A2D6A2E6A2F6AA5
:10565800306A316A326A336A346A356A366A616B2B
:10566800060E606FD8EC2DF00101006F0001616B30
:10567800030E606FD8EC2DF0F16F616B090E606F4F
:10568800D8EC2DF00101036F1200E8CF63F00001A0
:10569800656B070E646F64C061F0010E626F612B69
:1056A80002D0D8906237612FFCD76251631506E0AB
:1056B800ACA2FED7310EC5EC2DF005D0ACA2FED7BA
:1056C800300EC5EC2DF000016407D8A0650765BF52
:1056D8001200E1D7656B666B635162111BE0010E26
:1056E800646F04D0D89062376337642B63AFFAD7FE
:1056F800D890653766376251605D6351615905E33B
:105708006251605F6351615B6581D8906333623336
:10571800642FEED765C060F066C061F0120022EC1D
:105728002BF0D388D38AD38C9B8C939493869492B2
:10573800949C948E0001616B150E606F7C0E9CEC3E
:105748002AF09E9A9F9A9D8AF28C920E8FEC2DF0E9
:10575800FB0E616F1D0E606FCFEC2DF008EC28F08A
:10576800A382A38AF28E12006A6B6B6B04D0664B1D
:10577800672B6A4B6B2B66C0D9FF67C0DAFFDF5017
:1057880010E068C060F069C061F066C0D9FF67C00A
:10579800DAFFDF50626F636B0AEC2AF06151601127
:1057A800E6E06AC066F06BC067F012006A6B6B6B6C
:1057B80004D0664B672B6A4B6B2B66C0D9FF67C05A
:1057C800DAFFDF5010E068C060F069C061F066C0C1
:1057D800D9FF67C0DAFFDF50626F636B0AEC2AF00B
:1057E80061516011E6E16AC066F06BC067F01200B3
:1057F80062C068F063C069F060C066F061C067F0BD
:105808000ED068C0D9FF69C0DAFF66C0E1FF67C083
:10581800E2FFDFCFE7FF684B692B664B672B640716
:10582800D8A0650700016429D8B46529D8B4120046
:10583800E8D760C062F061C063F003D00001624B3A
:10584800632B6251F66EE96E050EEA6E6351EA64E7
:1058580003D0EA6EEF5003D0F76E0800F550000948
:10586800EDE100016051625D606F61516359616FE4
:105878001200E8CF64F06451D96EDA6A020E11D8CA
:10588800040E0FD8060ED926DA6A62C0DEFF63C09E
:10589800DDFF6451D96EDA6A60C0DEFF61C0DDFFEA
:1058A8001200D926DA6ADE6ADD6A6451D96EDA6ACC
:1058B8001200E8CF60F02F0E606506D03A0E6061E6
:1058C80003D06051D00F13D0600E606506D0670E0C
:1058D800606103D06051A90F0AD0400E606506D000
:1058E800470E606103D06051C90F01D0FF0E12004E
:1058F8006351BAEC2DF0636F646B10D061C0D9FFAF
:1059080062C0DAFFDF50BAEC2DF0631905E161C01F
:1059180061F062C062F00AD0614B622B61C0D9FFAE
:1059280062C0DAFFDF50EAE1616B626B120063511B
:10593800621117E0010E646F04D0D89062376337A4
:10594800642B63AFFAD76251605D6351615904E318
:105958006251605F6351615BD89063336233642F37
:10596800F2D760C060F061C061F012008FC06AF0C9
:1059780090C06BF091C06CF092C06DF094C06EF066
:1059880095C06FF093C070F0200E716F51EC1BF052
:10599800000906E12B2A000E2C222D222E2201D0EE
:1059A800010E120073AF0CD070C0D9FF71C0DAFFBE
:1059B8002D0EDF6E704B712B726D731FD8B0732B69
:1059C80070C067F071C068F072C069F073C06AF0A7
:1059D80074C06BF075C06CF0B8EF25F03850371014
:1059E800D8B471EC29F067C0D9FF68C0DAFFDF507E
:1059F80069196A6F6B6B000E00016A25D96E030E78
:105A08006B21DA6E67C0E1FF68C0E2FFDFCFE7FF16
:105A1800120060516203F3CF64F0F4CF65F0605177
:105A2800630308D86151620305D864C060F065C09B
:105A380061F01200F3CFF4FFF36AF3506427F450D7
:105A48006523120060C064F061C065F005D00001F4
:105A5800644B652B624B632B62C0D9FF63C0DAFFCE
:105A680064C0E1FF65C0E2FFDFCFE7FFE750D8B4CD
:105A78001200EDD7706B6F6B0FD0000E686F700E51
:105A8800676F6F516C25D96E000E6D21DA6EDF508D
:105A9800696FF2EC2CF06F2B6E516F5DEEE3705175
:105AA800120060C066F061C067F008D066C0D9FF18
:105AB80067C0DAFF62C0DFFF664B672B6407D8A0B8
:105AC800650700016429D8B46529D8B41200EED757
:105AD80060C0A9FF62C0A8FFA69EA69CA684F29EED
:105AE800550EA76EAA0EA76EA682F28EA1A8FED7A3
:105AF800A198A6941200E8CF62F00001616B3A0EFB
:105B0800626105D02F0E626502D0010E616F61C01F
:105B180060F060311200E8CF60F060517F0BD56E05
:105B2800D76AD66AF29460AF02D0F28A01D0F29AAC
:105B3800D58E1200F20E3D16ABAC03D03D90ABB043
:105B48003D80ABB43D84ABB23D86AECF01F0015091
:105B58001200E8CF60F01F0E6F16000160516F123F
:105B68006F50E00B6019D8B41200FAD7E8CF60F094
:105B78007B0E606104D0600E606501D0609B60514F
:105B88001200E8CF60F0ACAC03D0AC903DB2AC8072
:105B980060C0ADFF120060C062F061C063F063C016
:105BA800D7FF62C0D6FF120060C0A9FFA69EA69CC0
:105BB800A680A8CF62F06251120001C003F002C0B3
:105BC80004F004C0D7FF03C0D6FF120080EC27F012
:085BD80022EF2BF01200000C7B
:106FB4000100000008000000400000000002000082
:106FC4000010000000800000000004000000200009
:106FD4000000000100000008000000400000000064
:106FE400010000000A00000064000000E803000043
:106FF40010270000A086010040420F0080969800F0
:1070040000E1F50500CA9A3B0100000010000000F1
:10701400000100000010000000000100000010004A
:10702400000000010000001020202020202020204B
:1070340020466F726D61743A2066696C74657220C3
:1070440066696C7465726E6F2C7072696F2C636CF8
:107054006173732C747970652C6E6F646569642038
:10706400202866696C7465726E6F203D20302D3166
:1070740035292E0D0A00494E464F202D20476574B0
:1070840020696E666F2061626F757420616E206581
:1070940078697374656E74206E6F6465206F6E20FA
:1070A400746865206275732028466F726D61743A46
:1070B40020696E666F206E69636B6E616D65292E43
:1070C4000D0A0020202020202020466F726D61745C
:1070D4003A206D61736B206D61736B6E6F2C7072EF
:1070E400696F2C636C6173732C747970652C6E6F8B
:1070F4006465696420286D61736B6E6F203D203078
:10710400206F722031292E0D0A0052524547202D3E
:1071140020526561642072656769737465722873AF
:1071240029206F66206E6F64652028466F726D613A
:10713400743A2072726567205B706167653A5D72AC
:107144006567205B636F756E745D292E0D0A002DD3
:107154002D2D2D2D2D2D2D2D2D2D2D2D2D2D2D2D5B
:107164002D2D2D2D2D2D2D2D2D2D2D2D2D2D2D2D4B
:107174002D2D2D2D2D2D2D2D2D2D2D2D2D2D2D2D3B
:107184002D2D2D2D2D2D2D2D2D2D2D2D2D2D2D0D4B
:107194000A0020202020525754494D454F55542071
:1071A4002D2053657420726567697374657220724B
:1071B4006561642F77726974652074696D656F7594
:1071C400742E2044656661756C743D3130206D7396
:1071D400202E0D0A0057524547202D2057726974FE
:1071E40065207265676973746572206F66206E6FBF
:1071F40064652028466F726D61743A207772656702
:10720400205B706167653A5D72656720636F6E74B9
:10721400656E74292E0D0A002D4552524F52202DB1
:107224002046696C746572206E756D6265722063A8
:10723400616E206F6E6C79206265207365742074B2
:107244006F20612076616C75652062657477656571
:107254006E20302D31352E0D0A00202020204D4F78
:107264004445202D205365742061646170746572F7
:10727400206D6F646520746861742073686F756C29
:10728400642062652075736564206F6E2073746179
:10729400727475702E0D0A005472616E736D697488
:1072A40074657220696E204572726F722053746126
:1072B4007465205761726E696E67202831323820F8
